:020000040000fa
:080000000002040000000000f2
:020000040000fa
:10000800c4020000940200009a020000a00200004e
:10001800a6020000c4020000c4020000c4020000de
:10002800c4020000c4020000c4020000c4020000b0
:10003800c4020000c4020000c4020000c4020000a0
:10004800c4020000c4020000c4020000c402000090
:10005800c4020000c4020000c4020000c402000080
:10006800c4020000c4020000c4020000c402000070
:10007800c4020000c4020000c4020000c402000060
:10008800c4020000c4020000c4020000c402000050
:10009800c4020000c4020000c4020000c402000040
:1000a800c4020000c4020000c4020000c402000030
:1000b800c4020000c4020000c4020000c402000020
:1000c800c4020000c4020000c4020000c402000010
:1000d800c4020000c4020000c4020000c402000000
:1000e800c4020000c4020000c4020000c4020000f0
:1000f800c4020000c4020000c4020000c4020000e0
:10010800c4020000c4020000c4020000c4020000cf
:10011800c4020000c4020000c4020000c4020000bf
:10012800c4020000c4020000c4020000c4020000af
:10013800c4020000c4020000c4020000c40200009f
:10014800c4020000c4020000c4020000c40200008f
:10015800c4020000c4020000c4020000c40200007f
:10016800c4020000c4020000c4020000c40200006f
:10017800c4020000c4020000c4020000c40200005f
:10018800c4020000c4020000c4020000c40200004f
:10019800c4020000c4020000c4020000c40200003f
:1001a800c4020000c4020000c4020000c40200002f
:1001b800c4020000c4020000c4020000c40200001f
:1001c800c4020000c4020000c4020000c40200000f
:1001d800c4020000c4020000c4020000c4020000ff
:1001e800c4020000c4020000c4020000c4020000ef
:0801f800c4020000c402000073
:020000040000fa
:10020800c4020000ac020000b2020000b802000004
:10021800be020000c4020000c4020000c4020000c4
:10022800c4020000c4020000c4020000c4020000ae
:10023800c4020000c4020000c4020000c40200009e
:10024800c4020000c4020000c4020000c40200008e
:10025800c4020000c4020000c4020000c40200007e
:10026800c4020000c4020000c4020000c40200006e
:10027800c4020000c4020000c4020000c40200005e
:10028800c4020000c4020000c4020000c40200004e
:10029800c4020000c4020000c4020000c40200003e
:1002a800c4020000c4020000c4020000c40200002e
:1002b800c4020000c4020000c4020000c40200001e
:1002c800c4020000c4020000c4020000c40200000e
:1002d800c4020000c4020000c4020000c4020000fe
:1002e800c4020000c4020000c4020000c4020000ee
:1002f800c4020000c4020000c4020000c4020000de
:10030800c4020000c4020000c4020000c4020000cd
:10031800c4020000c4020000c4020000c4020000bd
:10032800c4020000c4020000c4020000c4020000ad
:10033800c4020000c4020000c4020000c40200009d
:10034800c4020000c4020000c4020000c40200008d
:10035800c4020000c4020000c4020000c40200007d
:10036800c4020000c4020000c4020000c40200006d
:10037800c4020000c4020000c4020000c40200005d
:10038800c4020000c4020000c4020000c40200004d
:10039800c4020000c4020000c4020000c40200003d
:1003a800c4020000c4020000c4020000c40200002d
:1003b800c4020000c4020000c4020000c40200001d
:1003c800c4020000c4020000c4020000c40200000d
:1003d800c4020000c4020000c4020000c4020000fd
:1003e800c4020000c4020000c4020000c4020000ed
:0803f800c4020000c402000071
:020000040000fa
:10040000afbd20000e7f24000e0188000000000018
:1004100000012000200288000c000700a0972200a5
:100420000100200011000700000020000000e00093
:100430000200320000000200000000003c1f020029
:10044000000000000040da000000fe004440a90067
:10045000a0d520000000e0000300320000002000d2
:10046000a00188004440a800000006009101880017
:10047000800078000000eb0015003700e2804000ab
:1004800032a0b4009101ba00e280400032a0b40072
:100490009102ba00e280400032a0b4000002eb00fa
:1004a000472bde00f507b200602ce10004003a00a3
:1004b0000059eb008301e900fdff3e000400370016
:1004c0006128e100010032000082eb000400070017
:1004d0001101ba000200e000e8ff3a000000060047
:1004e0003159ba008301e9000c0032002159ba00e9
:1004f0008301e900080032000400e00003003a0034
:10050000e280400032a0b400f5ff370011d9ba00f4
:100510008301e900faff3a008100e800e180400031
:1005200032a0b400000006000000fa008020a900fc
:10053000ffff37000000fa008060a900ffff3700ce
:100540000000fa008040a900ffff37000000fa0019
:100550008080a900ffff37000000fa008020a9007a
:10056000ffff37000000fa008060a900ffff37009e
:100570000000fa008040a900ffff37000000fa00e9
:100580008080a900ffff37000000fa00ffff37005e
:100590000c00fa00889fbe0000047800f4ff2700da
:1005a000d4bf9f008004eb0099bf9f0088bf9f00cd
:1005b000a8bf9f00240c2000b4bf9f007881570083
:1005c000cfb0970070805700070007000fba970060
:1005d000094a78000fba9700080052004f04be0085
:1005e0000080fa00000006002f03b000889fbe00c4
:1005f0008a9fbe008c9fbe008e1f7800e0af9f00d8
:10060000c1af9f00b2b79f008006eb006e023700bb
:10061000cfa897008100e800c1af9f0054c2b3008b
:10062000844f500006003a00010278000006eb00fb
:1006300001c3b30000c2b300b7c2b3000700370064
:100640000000fb00efa897006b020700e10f4000dd
:100650005d0232008d06e8005b02370084027800fc
:1006600034437800d2c2b300824f530009003200f5
:1006700005003c00804f530008003200874f5300b4
:100680000c003a0007003700814f530009003a0080
:10069000060037000c30a000f0ff37000c00a0006f
:1006a000eeff37000c10a000ecff37000c20a0007c
:1006b000eaff370062026600010032000c00a10070
:1006c00068026600010032000c20a1000602fb0057
:1006d0000403b100e90f52000c003e00050378004e
:1006e0000002eb006a22b900b603fb000703b10069
:1006f00004824300860278009603fb000703b100e2
:10070000e98f5300f7ff3600080037000002eb00c6
:10071000a7c2b300874f530004003a00bfb197004f
:1007200043027800b3b79f008502e8000007eb00a2
:10073000e6c2b300954f13000a003a000ce0a00097
:1007400064435300d54f13000200320005037800c4
:10075000080037003fb3970046077800b6b79f0000
:100760008502e80005037800080037006a70b900c8
:100770000087430086027800b603fb000703b10040
:10078000e98f5300f9ff3600f6ff3700b6427800d4
:10079000c6af9f00c0c6b30080cf52002500320014
:1007a0000f003c0036c6b30086cf52006e00320008
:1007b00004003c00e0cf5200080232006b435300bb
:1007c0000f00370046c6b30086cf52001700320034
:1007d0006543430086cf520083003a001300370080
:1007e00036c7b30086cf52001f00320007003c001e
:1007f0006443530086cf5200140032000643e800e1
:1008000086cf520078003a001300370056c7b30075
:1008100086cf5200790032006343430086cf5200f6
:1008200071003a00a5c79f000d003700a5c79f00c3
:1008300074003700f003660005012000010032005b
:100840000500280005067600d0ff3700a5c79f00e9
:100850000c60a0006b003700a5c79f000c50a000e3
:100860000c70a00067003700a5c79f00bfb09700bd
:10087000c1027800b1b79f0005047800e08f5200f4
:1008800001003a0048ba2000080378008002eb001b
:10089000010037008502e800e6c37a00e0cf53008c
:1008a000fcff3a0085047800e00f57000300320097
:1008b000890f5700010031008e0478000007eb001b
:1008c000890f5200010036000907520068066600d1
:1008d00014003a0007003700efa89700000220003c
:1008e000c5010700e10f4000010032008d06e8005d
:1008f0000e07e900e00f5700f7ff3a000087eb0012
:1009000008003700080278003400fb000404780077
:10091000efa89700b8010700e10f40000100320086
:100920008d06e800090278008404e900e00f520017
:10093000f4ff3a00e00f5600a30132000700370031
:10094000efa8970000022000ab010700e10f400074
:10095000010032008d06e8000e07e900e00f5700a5
:10096000f7ff3a00980137003fb19700c2027800c4
:10097000b2b79f0005007800cf80de00010178004b
:1009800082017800f0af9f0081b79f0092b79f006f
:10099000a3b79f004800de00c80add000080720097
:1009a000a0c79f007003660009003200e04f5000ae
:1009b00007003200e14f400005003200b0c79f0041
:1009c0006fdb9700c6c79f00290020000300370097
:1009d000efdb9700b7c79f001900200038fc2f00fd
:1009e0000f044400b0ff3700a5c79f0028fc2f006c
:1009f0000f04440019002000abff3700a5c79f007b
:100a00000c0cb3008c027800050cb2002b003a00ed
:100a1000e00f560005003d003fb097004005be00c6
:100a20004004be00b0b79f0017003700f002660018
:100a30000f003200bfb297004501be00b5b79f005e
:100a4000c2a79f00d3a79f000503780096029000dd
:100a5000cfaade00e5a79f00f5a79f004fa497004f
:100a6000dfa497006fa59700ffa597000600370049
:100a70003fb0970040047800b0b79f00cfc4de00bd
:100a8000090578008a057800e00f5400e08f5c00cb
:100a9000e00f5d00e08f5d0025003d003c00b300ed
:100aa0006000b8006011b800080450008984580044
:100ab0000a0559008b8559001d003700e00f5600cc
:100ac00005003d00bfb097004105be004104be00d7
:100ad000b1b79f0016003700f00266000e0032002a
:100ae000bfb297004501be00b5b79f0082af9f001f
:100af00093af9f000003eb00a6af9f008003eb00c5
:100b0000b7af9f000fac97009fac97002fad970039
:100b1000bfad9700060037003fb097004004780053
:100b2000b0b79f00090020000a0020000b00200041
:100b3000e00f570007003a001e002000e00f5400ad
:100b4000e08f5c00e00f5d00e08f5d00010032008f
:100b50000007eb008c007800010cb200f1af9f00a1
:100b600005042000858f50002c00320003003c005b
:100b7000e08f5000080032003c00370005082000dc
:100b80007fa99700850f510010003200050c20004e
:100b9000850f510035003a00a6ae200015c0b30005
:100ba0003600be003601be000040e10001c8e10091
:100bb00002d0e10003d8e1002b0039008542e800b3
:100bc000f4cf5200f6ff3a002700370015c0b300fb
:100bd00000012000010020006011b8000040e10089
:100be00001c8e10002d0e10003d8e1001e00390095
:100bf000460020000000d0008180d2000281d20097
:100c00008381d2000603e900faff3a008542e8003a
:100c1000f0cf5200f1ff3a001300370015c0b300c7
:100c200080002000010020006011b8000040e100b9
:100c300001c8e10002d0e10003d8e1000a00390058
:100c4000370020000000d0008180d2000281d20055
:100c50008381d2008703e900faff3a008542e80069
:100c6000f5cf5200f1ff3a00a5c79f002fc09700b3
:100c70008002fb008e8f520002003d00aec79f0035
:100c800003003700850f570001003d00050778007d
:100c9000e00f520003003200e30266000100320060
:100ca0000402e90005002400850266000500320008
:100cb0008e0f5200020034000e0252000100370075
:100cc0000002eb002fc197008202fb008001eb00c5
:100cd000d3af9f00850f52000200340085025200fe
:100ce000d5af9f00640266002c003200e20266006d
:100cf00061026600e08f520006003200b002200060
:100d0000e00f5200010032000080e800efa89700d9
:100d100004003700e00f520006003200efa89700f1
:100d200000022000b4000700e10f40000100320083
:100d30008d06e8005faa9700e00f52008d00320098
:100d40000802be000a03be00dfac9700efa89700c0
:100d500000032000c4b79f00d5b79f00e6b79f00ef
:100d6000f7b79f00a40007004fb29700dfb29700cb
:100d70006fb39700ffb39700e10f4000010032000e
:100d80008d06e8008904e900f0ff3a00d9af9f0022
:100d90000605be000404be0076003700dfaa9700f7
:100da000e08f5200180032006802660016003a0018
:100db0000802be000a03be00dfac9700efa8970050
:100dc00000022000c4b79f00d5b79f00e6b79f0080
:100dd000f7b79f00880007004fb29700dfb2970077
:100de0006fb39700ffb39700e10f4000010032009e
:100df0008d06e8008904e900f0ff3a00d9af9f00b2
:100e00000605be000404be00e20266006102660040
:100e1000e08f520006003200b0022000e00f5200c6
:100e2000010032000080e800efa8970004003700be
:100e3000e00f52004f003200efa8970000022000a0
:100e40006d000700e10f40004a0032008d06e80007
:100e5000480037000e07e9007fab97000704200029
:100e6000870f53002d00320003003c00e00f5300b9
:100e70000800320037003700040820007fae9700da
:100e8000840f560012003200040c2000840f56001c
:100e900030003a004372dd0020ae20000002420024
:100ea0005403be004402be000800be000a01be009a
:100eb000b4010700a4002000050020006033b80042
:100ec000b701070004c3b30004424000200037000c
:100ed00034b92000bfa29700e08f52000100320019
:100ee00024b82000c272dd000800be000a01be0066
:100ef0008502e900050033008301d1000281d3009f
:100f00008180d3000080d300f9ff37006f006000bc
:100f100064407800a0c79f000e0037006372b900dc
:100f20000800be000a01be00040678000c06e900b5
:100f3000050033008301d1000281d3008180d300fa
:100f40000080d300f9ff3700674260000443b0001f
:100f5000a4c79f00afc097000100fb00efa8970057
:100f600025000700e10f4000060032008d06e80072
:100f7000040037000c0178000202b200b2a79f0003
:100f80008cbf9f00e00f5700b2ff3a000fbe9700e2
:100f9000680666000c003200dfa99700e08f510060
:100fa0000900340003067800efa897000002200033
:100fb00011000700e10f4000010032008d06e8003b
:100fc0000c06e900f8ff3a004faa97001440780099
:100fd000a0c79f00e04f50008dfd3a000d00780043
:100fe0004f0778004f06be004f05be004f04be00fd
:100ff0002f03b10000000600889fbe0001047800a6
:1010000038029000e20262008084eb003b00320074
:10101000040378000620b2009802900002003a0013
:10102000e08f520035003a000490a000340498008c
:1010300080047800f90fb200e08f520002003a00fd
:10104000a8029000050c7800ea8f540005003a00d1
:101050000408b20003003a0088007800d0002000a5
:10106000e5ff070018029000d8029000850f52009b
:101070000b0032000402e800140498001802780003
:10108000094a7800040ce80015c0b30024bd200014
:10109000054a7800ea8f540018003a00050037002e
:1010a0008800780009407800170007008004780065
:1010b00012003700380290000410b2000f00320016
:1010c00018019000a800900048009000520007000e
:1010d00018029000840f5000040032003802900083
:1010e0000403b300340498008084eb000002eb009a
:1010f0001404980028029000040c7800090078007d
:101100004f04be00000006000200fa00889fbe00e7
:10111000a0ff9f000104780038029000840278004c
:101120000504b200020032000000fb003500370069
:10113000e202620005003a000403b30034049800a0
:10114000150498000080eb002e003700d8049000b2
:10115000e08f540006003a0012002000e68057009d
:10116000480090002c000700190498002300370065
:10117000a8029000e08f520008003a0055bd200000
:1011800025049800050c78002500200055049800df
:10119000150498000430a000340498001801900051
:1011a000a8009000480090001b0007002802900053
:1011b0008082eb0015049800affa9700054a78008a
:1011c000040ce8002ffa9700ea4f52000b003a0097
:1011d000380290000410b20008003200180190009c
:1011e000a8009000480090000b0007000002eb00f0
:1011f00014049800a8029000050c78002ffa9700bc
:101200000400fb004f04be000080fa00000006004e
:1012100000c0da00000006000a00fa00e20f5000e9
:1012200022003e00c45e8000e10f52000600320042
:1012300087232000462320002423200005232000ac
:10124000e08f530004003a0087222000462220004d
:101250002422200005222000000028001500600044
:1012600003003a00800b780007002800958a73007d
:10127000054020009482620001003a0014a0a00002
:101280008202780006003700940378000710b2004d
:10129000fdff3200b103fb00070b78008502e90077
:1012a000e08f5200f8ff3a000800370034002000b9
:1012b000b4bf9f00c0bf9f00d1bf9f00e2bf9f008f
:1012c0006a805700d2ff07006fb9970002007800cc
:1012d0000080fa0000000600889fbe008a9fbe00c2
:1012e0003004be002005be000404440085844c0088
:1012f00006054d0087854d000898be000a90be0087
:101300000440e10005c8e10006d0e10007d8e10093
:1013100002003100680040001008e8004f05be00e0
:101320004f04be00000006001000fa00889fbe00b7
:101330008a9fbe000605be000404be003002be0047
:101340002003be00c4b79f00d5b79f00e6b79f003b
:10135000f7b79f000802520089825a000a035b0017
:101360008b835b0084bf9f0095bf9f00a6bf9f003b
:10137000b7bf9f000498be000698be001100200071
:101380004fb29700dfb297006fb39700ffb397009b
:101390000820e10009a8e1000ab0e1000bb8e10073
:1013a000010039008000eb00108810004f05be00de
:1013b0004f04be000080fa00000006001400fa008e
:1013c000889fbe008a9fbe008c9fbe003f00070022
:1013d0000605be000404be000006eb00ccb79f006b
:1013e000bcb79f00acb79f009cb79f008cb79f0015
:1013f0000d0420004fb39700bfb29700860343004f
:101400002fb29700e00f530004003d003d0007009d
:101410000f004000b0ff070003003700390007004d
:101420000f004000c0ff0700cfb2970095bf9f009c
:10143000e08f5200090035002b0007001400200047
:10144000050020006033b800000072008180720047
:1014500002017300838173001c0007000c06e80082
:101460008d0f5600e3ff3a001fba9700e00f5200bd
:1014700005003d000802be000a03be0000fe2f006a
:101480000f00400094ff07004faa9700e00f5200a2
:1014900008003a000fb497009fb497002fb597004b
:1014a000bfb59700d8b79f00e9b79f00fab79f0074
:1014b0008bbf9f000c0007004f06be004f05be000b
:1014c0004f04be000080fa00000006000100070083
:1014d0000000060090b79f00a1b79f00b2b79f0021
:1014e000c3b79f00000006000100070000000600cf
:1014f0001fb09700afb097003fb19700cfb19700f2
:10150000000006004f2bde0087037300a7b79f0083
:101510004f23de00858242008502730095b79f004d
:10152000ffaa97004f2bde00040242000402730062
:1015300084b79f006faa97004f23de008582420088
:1015400085027300f5af9f00e9ff07004f18de002a
:101550000402420000027200e4af9f00e4ff0700b3
:101560000000400081804800020149008381490059
:10157000d8ff07000802be000a03be0000fe2f00cd
:1015800000000600881f780018002000881f7800df
:101590008aff07008f87e9004f04780000000600eb
:1015a000801feb0085ff07008f87e9000000060021
:1015b000889fbe008a9fbe00e00f5000e08f580059
:1015c000e00f5900e08f59000c003d006044b80066
:1015d0006055b8000000540081805c0002015d008d
:1015e00083815d00180020001500070008003d0001
:1015f000180007000004eb00050037000004eb00b2
:101600000f00070002003d00120007001800200034
:10161000dcff0700e00f5400060032006022b80033
:101620006033b8000000520081805a0002015b0064
:1016300083815b004f05be004f04be000000060022
:10164000e00f5200e08f5a00e00f5b00e08f5b007c
:10165000000006006044b8006055b8000402540061
:1016600085825c0006035d0087835d000000060044
:10167000889fbe008a9fbe008c1f7800e00f50003c
:10168000e08f5800e00f5900e08f59000d003d0039
:101690006044b8006055b8000000540081805c00d0
:1016a00002015d0083815d001c0020000820e10034
:1016b00009a8e1000ab0e1000bb8e1000d003d000f
:1016c000080037000006eb00e00f5200e08f5a00e0
:1016d000e00f5b00e08f5b0006003d006044b80057
:1016e0006055b8000402540085825c0006035d006a
:1016f00087835d00aaff0700e00f56000600320056
:101700006022b8006033b8000000520081805a00a7
:1017100002015b0083815b004f0678004f05be002d
:081720004f04be0000000600aa
:020000040000fa
:10172800ff0000002cff00002edf0000ff0100007a
:101738003c320000110000000902000004a800006b
:1017480013e50000144800002c0c0000337800005a
:101758003a3300003bfb00003e000000431100004c
:10176800161000003902000035880000220a000027
:10177800374000002300000034a0000006020000eb
:101788000688000007c000000db700000e01000029
:101798004c0000004a81000021990000244000000c
:1017a80025380000268200005c000000630000006d
:1017b800462200000c3a00005d5500005e7d0000e6
:1017c8005f7d0000605500006170000062800000cd
:1017d8007c05000020800000283000006c0000001c
:1017e8006d8000006e00000070020000719400001f
:1017f80073c100003d340000120400005a57000075
:101808004fbb0000509c0000ff000000e57f000077
:10181800f9c0000041240000e014000076ff000039
:1018280033a0000042200000431800004c000000d4
:1018380087d00000883f0000d7030000d9100000bf
:10184800d3820000c8080000c98000007c000000a6
:101858007d0000007c0300007d4800007d480000fa
:101868007c0800007d2000007d1000007d0e000037
:1018780090000000910e0000911a000091310000c4
:10188800915a00009169000091750000917e000056
:1018980091880000918f00009196000091a30000ac
:1018a80091af000091c4000091d7000091e80000ba
:1018b80091200000920000009306000093e30000ce
:1018c80093030000930300009300000093020000bc
:1018d80093000000930000009300000093000000b4
:1018e80093000000930000009300000096000000a1
:1018f800970800009719000097020000970c000055
:1019080097240000973000009728000097260000d1
:101918009702000097980000978000009700000049
:1019280097000000a4000000a8000000c5110000f6
:10193800c6510000bf800000c7100000b666000056
:10194800b8a50000b7640000b97c0000b3af000080
:10195800b4970000b5ff0000b0c50000b1940000c6
:10196800b20f0000c45c0000a6000000a720000021
:10197800a7d80000a71b0000a7310000a70000009f
:10198800a7180000a7200000a7d80000a71900008a
:10199800a7310000a7000000a7180000a72000003a
:1019a800a7d80000a7190000a7310000a700000071
:1019b800a71800007f000000e51f0000e177000085
:1019c800dd7f0000c20e0000ff000000e004000000
:1019d800c0c80000c1960000863d0000519000007c
:1019e800522c000051900000522c000053000000bf
:1019f800540000005588000057000000ff01000057
:101a08001711000018140000321600001901000018
:101a18001a050000030e0000ff000000050000008a
:101a2800da080000d7030000e0000000050000000d
:101a3800ff0000002cff00002edf0000ff01000067
:101a48003c320000110000000902000003cf000032
:101a58000408000013e50000144800002c0c0000e6
:101a6800337800003a3300003bfb00003e000000e2
:101a780043110000161000003902000035880000ec
:101a8800220a0000374000002300000034a00000b4
:101a9800361a00000602000007c000000db700005b
:101aa8000e0100004c0000004a810000219900004e
:101ab800243a000025320000268200005c00000065
:101ac800630000005d5500005e7d00005f7d000042
:101ad8006055000061700000628000007c05000015
:101ae80020800000283000006c0000006d8000009d
:101af8006e000000700200007196000073e10000a3
:101b08003d3400005a5700004fbb0000509c0000b5
:101b18000f430000ff000000e57f0000f9c000004f
:101b280041240000e014000076ff000033a000000c
:101b380042200000431800004c00000087d000003d
:101b4800883f0000d7030000d9100000d3820000ae
:101b5800c8080000c98000007c0000007d02000069
:101b68007c0300007d4800007d4800007c080000e0
:101b78007d2000007d1000007d0e00009000000018
:101b8800910e0000911a000091310000915a000056
:101b98009169000091750000917e00009188000015
:101ba800918f00009196000091a3000091af000072
:101bb80091c4000091d7000091e800009120000036
:101bc800920000009306000093e3000093050000d4
:101bd80093050000930000009300000093000000ac
:101be80093000000930000009300000093000000a1
:101bf8009300000093000000960000009708000082
:101c08009719000097020000970c00009724000025
:101c180097300000972800009726000097020000e0
:101c28009798000097800000970000009700000038
:101c3800c3ed0000a4000000a8000000bf000000e1
:101c4800baf00000bc640000bb020000b63d000012
:101c5800b8570000b7380000b94e0000b3e80000dc
:101c6800b4e10000b5660000b0670000b15e000096
:101c7800b2040000c7000000c6510000c5110000f2
:101c8800c49c0000cf020000a6000000a7e00000ee
:101c9800a7100000a71e0000a7210000a700000051
:101ca800a7280000a7d00000a7100000a716000072
:101cb800a7210000a7000000a7280000a7d0000067
:101cc800a7100000a7170000a7210000a700000028
:101cd800a7280000c0c80000c1960000861d0000ab
:101ce80050000000519000005218000053000000fe
:101cf8005400000055880000570000005a9000006a
:101d08005b1800005c050000c3ef00007f000000c6
:101d1800da000000e51f0000e1670000e0000000b5
:101d2800ddff000005000000ff010000ff010000ca
:101d380012000000171100001843000019000000ed
:101d48001a4b0000320900004fbb00006d800000f4
:101d58003d3400003902000035880000220a0000e6
:101d6800374000002300000034a00000361a0000ad
:101d78000602000007c000000db700000e010000b9
:101d88004c000000ff000000e00400008c00000090
:101d980087d00000e0000000ff000000e014000011
:101da800e1770000e51f0000d7030000da1000000b
:101db800e0000000ff000000e0040000c0c80000d0
:101dc800c1960000861d00005000000051900000e0
:101dd800522c0000530000005400000055880000f9
:101de800570000005a9000005b2c00005c050000c2
:101df800e0000000d3040000ff000000c3ef000073
:101e0800a6000000a7dd0000a7780000a77e00005c
:101e1800a7240000a7000000a7250000a6060000d0
:101e2800a7200000a7580000a7730000a7340000ef
:101e3800a7000000a7250000a60c0000a7280000a6
:101e4800a7580000a76d0000a7340000a7000000f5
:101e5800a7250000ff000000e0040000e167000083
:101e6800e51f0000d7010000da080000da090000c9
:101e7800e00000009800000099000000ff0000004a
:101e8800e0140000e1770000e51f0000d703000020
:101e9800da100000e0000000ff000000e00400008d
:101ea800c0c80000c1960000861d00005000000058
:101eb80051900000522c0000530000005400000014
:101ec80055880000570000005a9000005b2c000065
:101ed8005c050000e0000000d3040000ff000000e3
:101ee800c3ef0000a6000000a7dd0000a7780000ef
:101ef800a77e0000a7240000a7000000a725000077
:101f0800a6060000a7200000a7580000a77300003d
:101f1800a7340000a7000000a7250000a60c0000b9
:101f2800a7280000a7580000a76d0000a7340000ec
:101f3800a7000000a7250000ff000000e004000043
:101f4800e1670000e51f0000d7010000da08000083
:101f5800da090000e0000000980000009900000085
:101f6800ff01000004280000ff01000012400000eb
:101f78001711000018430000190000001a4b000058
:101f8800320900004fca000050a800005a23000080
:101f98006d0000003912000035da0000221a000036
:101fa80037c300002300000034c00000361a0000c8
:101fb8000688000007c000000d8700000e410000e1
:101fc8004c000000ff000000e0040000c0640000b6
:101fd800c14b0000863500005092000051c8000037
:101fe8005296000053000000540000005500000005
:101ff800570000005a2800005b1e00005c0000002b
:10200800e0000000ff010000110000003d38000062
:102018002d00000050650000ff000000d304000000
:102028007c0000007d0400007c0900007d28000081
:102038007d00000004280000ff010000124000009d
:102048001711000018430000190000001a4b000087
:10205800320900004fca000050a800005a230000af
:102068006d0000003912000035da0000221a000065
:1020780037c300002300000034c00000361a0000f7
:102088000688000007c000000d8700000e41000010
:102098004c000000ff000000e0040000c0640000e5
:1020a800c14b00008635000050920000519000009e
:1020b800522c000053000000540000005588000016
:1020c80057000000509200005a5000005b3c00008e
:1020d8005c000000d3040000e0000000ff000000e6
:1020e80005000000da080000d7030000e000000047
:1020f80005000000ff0000002cff00002edf00009c
:10210800ff0100003c32000011000000090200003d
:1021180004a8000013e50000144800002c0c00007f
:10212800337800003a3300003bfb00003e0000001b
:102138004311000016100000390200003588000025
:10214800220a0000374000002300000034a00000ed
:10215800060200000688000007c000000db7000056
:102168000e0100004c0000004a8100002199000087
:102178002440000025380000268200005c00000092
:1021880063000000462200000c3a00005d55000084
:102198005e7d00005f7d00006055000061700000fa
:1021a800628000007c0500002080000028300000cc
:1021b8006c0000006d8000006e00000070020000de
:1021c8007194000073c100003d3400001204000047
:1021d8005a5700004fbb0000509c0000ff00000051
:1021e800e57f0000f9c0000041240000e014000071
:1021f80076ff000033a000004220000043180000d2
:102208004c00000087d00000883f0000d703000082
:10221800d9100000d3820000c8080000c98000005f
:102228007c0000007d0000007c0300007d48000069
:102238007d4800007c0800007d2000007d10000023
:102248007d0e000090000000910e0000911a000021
:1022580091310000915a00009169000091750000c9
:10226800917e000091880000918f000091960000f7
:1022780091a3000091af000091c4000091d7000025
:1022880091e80000912000009200000093060000f1
:1022980093e3000093030000930300009300000001
:1022a80093020000930000009300000093000000d8
:1022b80093000000930000009300000093000000ca
:1022c8009600000097080000971900009702000088
:1022d800970c000097240000973000009728000012
:1022e800972600009702000097980000978000004a
:1022f8009700000097000000a4000000a80000005c
:10230800c5110000c6510000bf800000c7100000c2
:10231800b6660000b8a50000b7640000b97c0000ec
:10232800b3af0000b4970000b5ff0000b0c50000cf
:10233800b1940000b20f0000c45c0000a6000000c9
:10234800a7200000a7d80000a71b0000a7310000a5
:10235800a7000000a7180000a7200000a7d80000c9
:10236800a7190000a7310000a7000000a718000067
:10237800a7200000a7d80000a7190000a731000077
:10238800a7000000a71800007f000000e51f00005c
:10239800e1770000dd7f0000c20e0000ff000000b2
:1023a800e0040000c0c80000c1960000863d00009f
:1023b80051900000522c000053000000540000000f
:1023c8005588000057000000509200005a50000045
:1023d8005b3c00005c000000d3040000e00000004b
:1023e800ff00000005000000da080000d703000025
:1023f800e000000005000000ffff0000ff000000f3
:102408002cff00002edf0000ff0100003c3200001e
:10241800090200000428000013e500001448000029
:102428002c0c0000337800003a3300003bfb00001e
:102438003e00000043110000161000003992000011
:1024480035da0000221a000037c30000230000001c
:1024580034c00000361a00000688000007c00000db
:102468000d8700000e4100004c00000048000000ed
:102478005b000000420300004a810000219900002f
:102488002440000025380000268200005c0000007f
:102498006300000061700000628000007c0500009d
:1024a80020800000283000006c0000006d800000d3
:1024b8006e000000700200007194000073c10000fb
:1024c8001240000017110000184300001900000016
:1024d8001a4b00003209000037c000004f600000ae
:1024e80050a800006d0000003d380000463f000085
:1024f8004f6000000c3c0000ff000000e57f00007a
:10250800f9c0000041240000e014000076ff00003c
:1025180033a0000042200000431800004c000000d7
:1025280087d50000883f0000d7030000d9100000bd
:10253800d3820000c8080000c98000007c000000a9
:102548007d0000007c0300007d4800007d480000fd
:102558007c0800007d2000007d1000007d0e00003a
:1025680090000000910e0000911a000091310000c7
:10257800915a00009169000091750000917e000059
:1025880091880000918f00009196000091a30000af
:1025980091af000091c4000091d7000091e80000bd
:1025a80091200000920000009306000093e30000d1
:1025b80093050000930500009300000093040000b9
:1025c80093000000930000009300000093000000b7
:1025d80093000000930000009300000096000000a4
:1025e800970800009719000097020000970c000058
:1025f80097240000973000009728000097260000d5
:10260800970200009798000097800000970000004c
:1026180097000000c3ed0000a4000000a80000001f
:10262800c5110000c6510000bf800000c71000009f
:10263800b6660000b8a50000b7640000b97c0000c9
:10264800b3af0000b4970000b5ff0000b0c50000ac
:10265800b1940000b20f0000c45c0000c064000028
:10266800c14b00008c000000863d000050000000b7
:1026780051c80000529600005300000054000000aa
:10268800550000005ac800005b9600005c0000007e
:10269800d3000000c3ed00007f000000da00000056
:1026a800e51f0000e1670000e0000000dd7f00009a
:1026b8000500000012400000d3040000c01600000e
:1026c800c11200008c000000863d00005000000090
:1026d800512c000052240000530000005400000058
:1026e800550000005a2c00005b2400005c0000002c
:1026f800ffff0000ff00000005000000da100000e6
:10270800d7030000df000000338000003c400000d9
:10271800e177000000000000ffff0000ff0000005c
:10272800e0140000e1770000e51f0000d703000077
:10273800da100000e0000000ff01000004080000bb
:10274800ffff0000ff010000124000001711000009
:1027580018430000190000001a4b0000320900005d
:102768004fca000050a800005a2300006d00000066
:102778003912000035da0000221a000037c30000c1
:102788002300000034c00000361a0000068800004c
:1027980007c000000d8700000e4100004c0000003b
:1027a800ff000000e0040000c0640000c14b00000e
:1027b800863500005092000051c800005296000073
:1027c80053000000540000005500000057000000ae
:1027d8005a2800005b1e00005c000000e0000000ba
:1027e800ffff0000ff010000124000001711000069
:1027f80018430000190000001a4b000032090000bd
:102808004fca000050a800005a2300006d000000c5
:102818003912000035da0000221a000037c3000020
:102828002300000034c00000361a000006880000ab
:1028380007c000000d8700000e4100004c0000009a
:10284800ff000000e0040000c0640000c14b00006d
:10285800863500005092000051c8000052960000d2
:10286800530000005400000055000000570000000d
:102878005a2c00005b2400005c000000e00000000f
:10288800ffff0000ff0100001240000017110000c8
:1028980018430000190000001a4b0000320900001c
:1028a8004fca000050a800005a2300006d00000025
:1028b8003912000035da0000221a000037c3000080
:1028c8002300000034c00000361a0000068800000b
:1028d80007c000000d8700000e4100004c000000fa
:1028e800ff000000e0040000c0640000c14b0000cd
:1028f800863500005089000051c80000529600003b
:10290800530000005400000055000000570000006c
:102918005a5000005b3c00005c000000e000000032
:10292800ffff0000ff010000124000001711000027
:1029380018430000190000001a4b0000320900007b
:102948004fca000050a800005a2300006d00000084
:102958003912000035da0000221a000037c30000df
:102968002300000034c00000361a0000068800006a
:1029780007c000000d8700000e4100004c00000059
:10298800ff000000e0040000c0640000c14b00002c
:10299800863500005089000051c80000529600009a
:1029a80053000000540000005500000057000000cc
:1029b8005a5800005b4800005c000000e00000007e
:1029c800ffff0000ff0100001101000012000000dd
:1029d80017110000187500003236000019010000b8
:1029e8001a970000030f0000374000004fbb00009b
:1029f800509c00005a5700006d8000003d340000d4
:102a08003902000035880000220a00003740000023
:102a180034a00000060200000db700000e010000ff
:102a2800ff000000e0040000c0c80000c1960000dc
:102a3800863d00005089000051900000522c000093
:102a480053000000540000005588000057000000a3
:102a58005aa000005b7800005c000000d37f0000f3
:102a6800e0000000ffff0000ff010000110100006e
:102a7800120000001711000018750000323600001f
:102a8800190100001a970000030f000037400000ea
:102a98004fbb0000509c00005a5700006d8000009a
:102aa8003d3400003902000035880000220a000089
:102ab8003740000034a00000060200000db70000f7
:102ac8000e010000ff000000e0040000c0c8000084
:102ad800c196000086350000508900005190000022
:102ae800522c0000530000005400000055880000dc
:102af800570000005ac800005b9600005c00000008
:102b0800d3020000e0000000ffff0000ff0100000a
:102b180011010000120000001711000018750000d4
:102b280032360000190100001a970000030f000058
:102b3800374000004fbb0000509c00005a5700006f
:102b48006d8000003d340000390200003588000027
:102b5800220a00003740000034a0000006020000ee
:102b68000db700000e010000ff000000c0c8000003
:102b7800c19600008c000000863d00005000000057
:102b880051900000522c0000530000005400000037
:102b9800558800005a0000005bc000005c0100007e
:102ba800d3020000ffff0000ff0100001101000038
:102bb80012000000171100001875000032360000de
:102bc800190100001a970000030f000037400000a9
:102bd8004fbb0000509c00005a5700006d80000059
:102be8003d3400003902000035880000220a000048
:102bf8003740000034a00000060200000db70000b6
:102c08000e010000ff000000e0040000c0c8000042
:102c1800c1960000863d0000500000005190000061
:102c2800522c00005300000054000000558800009a
:102c3800570000005a4000005bf000005c010000f3
:102c4800d3020000e0000000ffff0000ff010000c9
:102c58001101000012000000171100001875000093
:102c680032360000190100001a970000030f000017
:102c7800374000004fbb0000509c00005a5700002e
:102c88006d8000003d3400003902000035880000e6
:102c9800220a00003740000034a0000006020000ad
:102ca8000db700000e010000ff000000e004000066
:102cb800c0c80000c1960000863d0000500000001a
:102cc80051900000522c00005300000054000000f6
:102cd80055880000570000005a9000005b2c000047
:102ce8005c050000d3020000e0000000ffff0000c8
:102cf800203e00003e3e000000430000414d000021
:102d08005f500000445700004d2000002d3e000099
:102d180020300000000d00000a0000000043000001
:102d2800414d00005f52000045530000455400002b
:102d3800202d00003e20000031000000434100002b
:102d48004d5f000050440000574d0000202d00004a
:102d58003e20000031000000496e000020430000c2
:102d6800616d000057720000697400006500000082
:102d780072650000675f0000616400006472000013
:102d880020250000640000006461000074610000f8
:102d9800202500006400000065720000726f0000ca
:102da8007220000025640000004900006e20000029
:102db800436100006d52000065610000640000007e
:102dc800424d0000365800000200000000000000dc
:102dd800000000003600000000000000280000008d
:102de800000000004001000000000000f0000000aa
:102df80000000000010000001000000000000000ba
:102e0800000000000058000002000000c40e00008e
:102e180000000000c40e00000000000000000000d8
:102e280000000000000000000000000054680000de
:102e380065200000766100006c75000065200000c8
:102e48006f6600002070000061720000616d000074
:102e580065740000657200002070000020690000a1
:102e68007320000025640000000d00000a00000027
:102e78005265000061640000696e00006720000070
:102e880072650000676900007374000065720000d5
:102e98002030000078250000730000005661000013
:102ea8006c750000653a00002030000078250000ad
:102eb8007300000050720000696e00007469000021
:102ec8006e670000207200006567000069730000eb
:102ed80074650000727300003a200000004400008e
:102ee800657600006963000065200000436f0000fc
:102ef8006e740000726f00006c20000052650000c4
:102f0800676900007374000065720000204c0000bf
:102f180069730000742000002852000065670000f3
:102f280069730000746500007220000030780000aa
:102f380046460000203d00002030000078300000a8
:102f480031290000000900005265000067200000d8
:102f58003078000025730000002000003d200000ac
:102f680030780000257300000044000065760000fa
:102f78006963000065200000436f00006e74000064
:102f8800726f00006c200000526500006769000045
:102f98007374000065720000204c00006973000023
:102fa8007420000028520000656700006973000063
:102fb800746500007220000030780000464600006a
:102fc800203d00002030000078300000302900004b
:102fd800005200006573000065740000696e00000f
:102fe80067200000636100006d65000072610000e9
:102ff8002e2e00002e0000005020000069730000f3
:10300800207300006574000021000000476500007f
:1030180074740000696e000067200000636100009e
:103028006d6500007261000020730000746100008b
:1030380074750000732e00002e2e00000050000052
:103048004f570000455200003a20000009090000cf
:10305800004f00004e0000004f46000046000000f0
:103068005245000053450000543a00002009000072
:1030780009000000504300004c4b00003a200000bb
:10308800090900000048000052450000463a0000c7
:10309800200900000900000056530000594e0000a6
:1030a800433a0000200900000900000057490000c9
:1030b80044540000483a0000200900000925000097
:1030c8006c750000004800004549000047480000b2
:1030d800543a000020090000256c0000750000002b
:1030e8004e42000059540000454c0000494e000073
:1030f800453a000020090000256c0000750000001a
:103108004e480000535900004e4300003a2000008a
:10311800092500006c750000004e000042590000af
:1031280054450000544f0000544100004c3a000040
:1031380020090000256c00007500000054610000a3
:103148006b6900006e670000207000006963000072
:1031580074750000726500002e2e00002e0000001d
:103168000a4400006f6e0000652100000054000052
:10317800757200006e6900006e670000206f000025
:103188006666000020630000616d00006572000043
:10319800612e00002e2e0000004400006f6e00001b
:1031a8006521000000540000757200006e6900007f
:1031b8006e670000206f00006e2000006361000051
:1031c8006d650000726100002e2e00002e000000c8
:0431d80000000000f3
:020000040000fa
:1031dc000000fa00c862a900c882a900d802a800a1
:1031ec00e862a800d962a800c802a800c9c2a80059
:1031fc00c9a2a800c982a800c962a800c942a80037
:10320c00c922a800c902a800c8a2a800c842a800e8
:10321c0004002900743a8800b3010700020007007b
:10322c000080fa00000006000000fa0011c0b30094
:10323c0000c0eb00d901070001c8b30020c1b300e6
:10324c00d601070040062000f708070020202900bf
:10325c0027020700e0372900250207002039290042
:10326c002302070011c0b30000c0eb00cb01070024
:10327c008040eb0050c1b300c80107006044290036
:10328c001b02070011c0b30000c0eb00c301070014
:10329c0031c2b30010c1b300c00107000080fa00b6
:1032ac00000006000000fa0054168000680262005c
:1032bc00e00f5200020032000002eb000100370068
:1032cc0014002000040078000080fa0000000600c2
:1032dc000000fa005416800070026200e00f5200e9
:1032ec00020032000002eb00010037001400200045
:1032fc00040078000080fa00000006001e00fa00ae
:10330c00881f780000047800e6ff070000027800b0
:10331c00040f7800eeff07000002780014079800f5
:10332c004300070000027800240798007e00070085
:10333c0000027800340798005c0007000002780057
:10334c00440798000414200005002000540798003e
:10335c0065079800040a20000500200074079800f7
:10336c00050f98002e029000e00f52001f00320053
:10337c003e029000e00f52001c0032004e02900002
:10338c00e00f520019003200560207000002be0086
:10339c00140f9800250f9800840207000002be004d
:1033ac00340f9800450f98001e0b9000ae0b900048
:1033bc003e0a9000ce0a900004b8b90000007800d4
:1033cc0006a9b900820078000100400006037800cd
:1033dc00040278000432b800050040008002780036
:1033ec00540f9800650f9800090037006022b80050
:1033fc00140f9800250f98006022b800340f980025
:10340c00450f98006022b800540f9800650f980083
:10341c000e0009003e1c7800e801b100ee01b1007d
:10342c00080078004f0478000080fa0000000600c5
:10343c000600fa00d4168000044278006142620053
:10344c00444798006022b800048fbe000d0037007e
:10345c00d4168000044278006142620084427800f5
:10346c004e42900084cf5200020032001400200023
:10347c000b00370014002000050020001e0f420036
:10348c005e974a00f4342c00050020001e03be0099
:10349c00840f5300858f5b00edff34000002eb00be
:1034ac00040078000080fa00000006000600fa0014
:1034bc00d41680004b22de00614262004447980023
:1034cc006022b800048fbe000d003700d4168000b7
:1034dc004b22de0061426200844278004e42900032
:1034ec0084cf520002003200140020000b00370081
:1034fc0014002000050020001e0f42005e974a00b9
:10350c00f4072f00a52f20001e03be00840f5300cc
:10351c00858f5b00edff34000002eb0004007800a7
:10352c000080fa00000006000600fa005417800024
:10353c004322de0061426200444798006022b800da
:10354c00048fbe000d003700541780004322de00ac
:10355c0061426200844278004e42900084cf520057
:10356c0002003200140020000b0037001400200071
:10357c00050020001e0f42005e974a00f4072f0042
:10358c00a52f20001e03be00840f5300858f5b0007
:10359c00edff34000002eb00040078000080fa001c
:1035ac00000006000400fa0000000000d5168000a0
:1035bc000480200004826200e00f5200fbff320006
:1035cc0000000000d51680000480200004826200f8
:1035dc00e00f5200fbff3a000002eb00040f7800f2
:1035ec0029003700000000005417800068026200b8
:1035fc00e00f5200fcff32000002eb0014079800b1
:10360c001700370000000000d41680006102620031
:10361c00e00f5200fcff3a0000000000d4168000be
:10362c0061026200e00f5200fcff3200000000005b
:10363c00d416800061026200e00f5200fcff3a00d9
:10364c0000000000d416800061026200e00f5200fe
:10365c00fcff32001e0290000402e80014079800e0
:10366c009e029000f4132000848f5200e5ff34007a
:10367c00000000005417800068026200e00f520046
:10368c00fcff3a001e0fe800f40920009e027800af
:10369c00848f5200d3ff34000080fa000000060033
:1036ac000400fa001007980000000000d5168000f6
:1036bc000480200004826200e00f5200fbff320005
:1036cc0000000000d51680000480200004826200f7
:1036dc00e00f5200fbff3a000002eb00040f7800f1
:1036ec000b003700000000005417800068026200d5
:1036fc00e00f5200fcff3200000000005417800065
:10370c0068026200e00f5200fcff3a001e0fe80056
:10371c001e0290009e027800848f5200f1ff35004b
:10372c00000000005417800068026200e00f520095
:10373c00fcff32000002eb00040f78001b00370086
:10374c0000000000d416800061026200e00f5200fd
:10375c00fcff3a0000000000d416800061026200f9
:10376c00e00f5200fcff3200551680001e0278005c
:10377c0004034200a485200004024300050a7800db
:10378c0000000000d416800061026200e00f5200bd
:10379c00fcff3a0000000000d416800061026200b9
:1037ac00e00f5200fcff32001e0fe800f413200063
:1037bc009e027800848f5200e1ff34000080fa00f2
:1037cc00000006000a00fa00300798004107980034
:1037dc000002eb00040f78000002eb0014079800c5
:1037ec0000000000d51680000480200004826200d6
:1037fc00e00f5200fbff320000000000d5168000e5
:10380c000480200004826200e00f5200fbff3a00ab
:10381c000002eb00040f78000b00370000000000e2
:10382c005417800068026200e00f5200fcff320067
:10383c00000000005417800068026200e00f520084
:10384c00fcff3a001e0fe8003e0290009e0278003a
:10385c00848f5200f1ff35000000000054178000e7
:10386c0068026200e00f5200fcff32000002eb0025
:10387c00140798000d00370000000000d4168000db
:10388c0061026200e00f5200fcff3a0000000000f1
:10389c00d416800061026200e00f5200fcff32007f
:1038ac001e0290000402e800140798009e0290008b
:1038bc004e029000848f5200efff35000000000094
:1038cc00d416800061026200e00f5200fcff3a0047
:1038dc0054168000240798002e02900004007800f3
:1038ec000080fa00000006000000fa00d4568000a8
:1038fc00e00f520007003200c06729003c070700a8
:10390c00106829003a070700f068290038070700fb
:10391c00020037002069290035070700ca62a90098
:10392c00d4568000e00f520007003200c067290017
:10393c002f070700306929002d070700f0682900c0
:10394c002b07070002003700206929002807070011
:10395c00ca82a8000080fa00000006000000fa00ed
:10396c00d4568000e00f520007003200c0672900d7
:10397c001f070700206a29001d070700f0682900af
:10398c001b070700020037002069290018070700f1
:10399c00ca62a8000080fa00000006000400fa00c9
:1039ac0020479800314798000042eb00044f780004
:1039bc003e419000ae40900000c3b300a705070045
:1039cc0000427800044f7800d4568000e00f52007b
:1039dc0007003200c067290005070700006b2900ab
:1039ec0003070700f06829000107070002003700f1
:1039fc0020692900fe0607002e4290000482fb007d
:103a0c00841f7800c46b2900841f7800008020007c
:103a1c00dcf20700e4875700d4568000e00f520018
:103a2c0007003200c0672900f10607000080200063
:103a3c00ef060700f0682900ed06070002003700ca
:103a4c0020692900ea0607003e4290000482fb0030
:103a5c00841f7800846c2900841f7800008020006b
:103a6c00c8f20700e4875700d4568000e00f5200dc
:103a7c0007003200c0672900dd0607000080200027
:103a8c00db060700f0682900d906070002003700a2
:103a9c0020692900d60607009e4278000582fb00ab
:103aac00841f7800046d2900841f7800008020009a
:103abc00b4f20700e4875700d4568000e00f5200a0
:103acc0007003200c0672900c906070000802000eb
:103adc00c7060700f0682900c5060700020037007a
:103aec0020692900c20607000080fa0000000600c9
:103afc000600fa00200798000042eb00044f780003
:103b0c000042eb00144798002e0290001407980016
:103b1c000b0037001e029000144f78001e0290001c
:103b2c0094429000154798009e4090001e407800eb
:103b3c009aff07001e0290000482e8001407980008
:103b4c0000c2eb009e426a000582fb000402ea0000
:103b5c004f22de00844278001e43900000c2eb002e
:103b6c0004426b000482fb000402ea004f22de00d8
:103b7c000442780004c27200e04f5200e5ff3a00a4
:103b8c000080fa00000006000400fa0020479800ac
:103b9c000042eb00044f78000e02e80004017800ac
:103bac00ae40900000c3b3005205070000427800fd
:103bbc00044f7800d4568000e00f5200070032000a
:103bcc00c06729008a060700906d29008806070047
:103bdc00f0682900860607000200370020692900da
:103bec00830607002e4290000482fb00841f78009d
:103bfc00c46b2900841f78000080200061f207004c
:103c0c00e4875700d4568000e00f520007003200c2
:103c1c00c0672900760607000080200074060700a4
:103c2c00f06829007206070002003700206929009d
:103c3c006f0607001e4290000482fb00841f780070
:103c4c00846c2900841f7800008020004df207004e
:103c5c00e4875700d4568000e00f52000700320072
:103c6c00c06729006206070000802000600607007c
:103c7c00f06829005e060700020037002069290061
:103c8c005b0607009e4278000582fb00841f7800cb
:103c9c00046d2900841f78000080200039f2070091
:103cac00e4875700d4568000e00f52000700320022
:103cbc00c06729004e060700008020004c06070054
:103ccc00f06829004a060700020037002069290025
:103cdc00470607001e429000044078000080fa005e
:103cec00000006000400fa006022b800048fbe0039
:103cfc0000000000d51680000480200004826200c1
:103d0c00e00f5200fbff320000000000d5168000cf
:103d1c000480200004826200e00f5200fbff3a0096
:103d2c00000000005417800068026200e00f52008f
:103d3c00fcff3a000000000054178000680262008b
:103d4c00e00f5200fcff32006022b800048fbe006e
:103d5c000e00370000000000d416800061026200e3
:103d6c00e00f5200fcff3a0000000000d416800067
:103d7c0061026200e00f5200fcff320014002000d0
:103d8c00050020001e0f42005e974a005417800069
:103d9c0068026200e00f5200eeff3a001e02be0005
:103dac000400be000080fa00000006000400fa00c7
:103dbc006022b800048fbe0000000000d516800001
:103dcc000480200004826200e00f5200fbff3200ee
:103ddc0000000000d51680000480200004826200e0
:103dec00e00f5200fbff3a00130037000000000008
:103dfc00d51680000480200004826200e00f52007f
:103e0c0004003a005417800068026200e00f520070
:103e1c00f7ff320014002000050020001e0f4200a6
:103e2c005e974a0000000000541780006802620090
:103e3c00e00f5200fcff3a00d516800004802000f1
:103e4c0004826200e00f5200e8ff32000082eb00b7
:103e5c008082eb001e0f42005e974a001e02be00dd
:103e6c000400be000080fa00000006003800fa00d2
:103e7c00d6010700b20507000042780044479800bd
:103e8c00af0507000042780054479800e0cfb3001c
:103e9c00cb0507004e4290000482fb00cfa2de004f
:103eac00a600200007002000860f5200878f5a00c2
:103ebc00c0013e0004600100c0013700b3013700af
:103ecc00a801370031013700060037009d0037008c
:103edc0096003700a30037000e003700b7013700fb
:103eec002f003700e4568000841f7800a47129004d
:103efc00841f780000802000a2f10700e48757009f
:103f0c0000802000ba05070090732900b80507004f
:103f1c00ab0137005e4290000482fb00018220005e
:103f2c0004007800b101070004822000841f78008f
:103f3c00c4732900841f78000080200091f10700d1
:103f4c00e487570000802000a90507009073290022
:103f5c00a70507005e4090000bff070000427800a9
:103f6c000482fb0001822000040078009f010700fe
:103f7c0004822000841f780024752900841f780097
:103f8c00008020007ff10700e487570000802000ac
:103f9c0097050700907329009505070088013700e5
:103fac00e075290092050700907329009005070021
:103fbc00307729008e050700907329008c050700c7
:103fcc0011c0b30000c0eb0074fe07000002eb0050
:103fdc00040f780021003700018220001e007800b9
:103fec008201070004822000841f7800747a290063
:103ffc00841f78000080200062f10700e4875700de
:10400c00008020007a0507001e0278000442780028
:10401c0004407800dcfe0700004278000482fb00bc
:10402c000182200004007800700107000482200047
:10403c00841f7800147b2900841f780000802000e6
:10404c0050f10700e4875700008020006805070046
:10405c0090732900660507001e0fe800e40f20008e
:10406c009e027800848f5200dbff3400907b290085
:10407c005f050700907329005d0507008040eb0089
:10408c0000c0eb0045fe07000002eb00040f7800b7
:10409c0021003700018220001e0078005301070028
:1040ac0004822000841f7800747a2900841f780011
:1040bc000080200033f10700e487570000802000c7
:1040cc004b0507001e02780004427800044078007b
:1040dc00adfe0700004278000482fb000182200044
:1040ec00040078004101070004822000841f78003e
:1040fc00147b2900841f78000080200021f1070028
:10410c00e4875700008020003905070090732900d0
:10411c00370507001e0fe800e40f20009e02780010
:10412c00848f5200dbff340025013700d07e29003c
:10413c002f050700907329002d0507003afc070096
:10414c001f01370000802900290507009073290002
:10415c00270507005e4290000482fb00e4568800ad
:10416c0017013700a0802900210507009073290052
:10417c001f0507007a024700040078005ffc070067
:10418c00308229001a0507005e0a9000e00f5200e9
:10419c0005003200d0822900150507009073290014
:1041ac0013050700040037000083290010050700e1
:1041bc00907329000e050700408329000c050700a9
:1041cc006e0a9000e00f520005003200d0822900e8
:1041dc000705070090732900050507000400370048
:1041ec0000832900020507009073290000050700d1
:1041fc00e0832900fe0407007e0a9000e00f5200c5
:10420c0005003200d0822900f904070090732900c0
:10421c00f70407000400370000832900f4040700aa
:10422c0090732900f204070070842900f004070041
:10423c000e129000e00f520005003200d0822900cf
:10424c00eb04070090732900e90407000400370011
:10425c0000832900e604070090732900e40407009a
:10426c0000852900e20407001e129000e00f5200a6
:10427c0005003200d0822900dd040700907329006c
:10428c00db0407000400370000832900d804070072
:10429c0090732900d60407002e129000be129000d5
:1042ac00849fbe00a4852900841f78000080200014
:1042bc00b4f00700e687570000802000cc0407000c
:1042cc0090732900ca0407004e129000de12900071
:1042dc00849fbe0074862900841f78000080200013
:1042ec00a8f00700e687570000802000c0040700f4
:1042fc0090732900be0407006e129000fe1290000d
:10430c00849fbe0044872900841f78000080200011
:10431c009cf00700e687570000802000b4040700db
:10432c0090732900b20407000e1a90009e1a900098
:10433c00849fbe0044882900841f780000802000e0
:10434c0090f00700e687570000802000a8040700c3
:10435c0090732900a60407002e1a9000be1a900034
:10436c00849fbe0014892900841f780000802000df
:10437c0084f00700e6875700008020009c040700ab
:10438c00907329009a0407008d003700208a2900b9
:10439c00970407009073290095040700d0cfb30051
:1043ac00870407000002eb00040f7800640037005c
:1043bc001e007800bafc07000082eb00c45688008f
:1043cc000002eb00b45688000002eb0014079800c2
:1043dc00560037001e02900084024200a485200083
:1043ec000482420094027800350798003e02900047
:1043fc006102620044079800be0290000400240091
:10440c00048262004e22de0054079800be02900027
:10441c0004002200048262004d22de006407980032
:10442c00be02900004002100048262004c22de00d7
:10443c0074079800be029000048020000482620081
:10444c004b22de00040f9800be02900004402000b6
:10445c00048262004a22de00140f9800be02900013
:10446c0004202000048262004922de00240f980000
:10447c00be02900004102000048262004822de007c
:10448c00340f98004e029000044278007500200012
:10449c008522dd005e029000044278006600200058
:1044ac000622dd0084c272006e0290000442780085
:1044bc00560020000622dd0084c272007e029000ad
:1044cc0004427800460020000622dd0084c27200ff
:1044dc000e0a900004427800360020000622dd000f
:1044ec0084c272001e0a900004427800260020004c
:1044fc000622dd0084c272002e0a9000044278006d
:10450c000442420084c272003e0a900004427800c9
:10451c0004c27200045f98000e5890002804070033
:10452c001e0290000402e800140798009e029000fe
:10453c00f4132000848f5200a6ff34001e0fe800f5
:10454c00f40920009e027800848f520098ff3400fa
:10455c00408b2900260407009073290024040700cf
:10456c0017003700b08b2900210407009073290035
:10457c001f040700f9fc0700108d29001c0407001c
:10458c00907329001a0407000d003700708d290064
:10459c00170407009073290015040700d2fc0700cc
:1045ac00108d2900120407009073290010040700d5
:1045bc00030037000000000001003700000000007d
:1045cc0000c0eb00fe0307002afe37000000fa00d3
:1045dc000082eb0064198800b40307004402070052
:1045ec00fbfa07000080fa00000006000a00fa003f
:1045fc003007980041079800040323002407980013
:10460c000002eb00040f780044003700be0290005b
:10461c0004012000110009008402d8000102780076
:10462c00140798001e0290006123b90064ff2f004c
:10463c00f5ff2f000602420087824a005600200038
:10464c0007002000860f5200878f5a0025003e007d
:10465c000460010005003700090037000d00370029
:10466c0011003700150037001900370064024700ad
:10467c009e02420014c4b300844a78002000370024
:10468c00640247009e02420024c4b300844a7800ae
:10469c001b003700640247009e02420034c4b30082
:1046ac00844a780016003700640247009e024200dc
:1046bc0044c4b300844a78001100370064024700f8
:1046cc009e02420054c4b300844a78000c003700a8
:1046dc00640247009e02420064c4b300844a78001e
:1046ec00070037001e029000044278000443b0001b
:1046fc00e40247009e824200844a780000000000d9
:10470c001e0fe800be0290000401200011000900f9
:10471c008402d80000027800340798003e02900012
:10472c00e00f5200b9ff3a005e429000ce029000ba
:10473c00844a78004e0290008402e8004e429000b9
:10474c00844a78004e0290008482e8000042eb001c
:10475c00844a78000080fa00000006000c00fa0081
:10476c00300798004107980052079800ce0290003d
:10477c005e02900004aab900840278006443200011
:10478c00048f42001e027800244798001e02780015
:10479c004822de00344798003e029000240798001f
:1047ac00ae02900024c4b300844a78002e0290001c
:1047bc000402e80024079800ae029000d4c4b300b1
:1047cc00844a78002e0290000402e8002407980026
:1047dc002e029000ae429000054a78002e02900006
:1047ec000402e800240798002e029000be429000bc
:1047fc00054a78002e0290000402e8002407980075
:10480c00ae0290000042eb00844a78002e02900029
:10481c000402e80024079800ae0290000042eb006e
:10482c00844a78002e0290000402e80024079800c5
:10483c00ae0290000042eb00844a78002e029000f9
:10484c000402e80024079800ae0290000042eb003e
:10485c00844a78002e0290000402e8002407980095
:10486c00ae0290000042eb00844a78002e029000c9
:10487c000402e80024079800ae0290000042eb000e
:10488c00844a78002e0290000402e8002407980065
:10489c00ae02900064c3b300844a78002e029000ec
:1048ac000402e80024079800ae02900044c0b30054
:1048bc00844a78002e0290000402e8002407980035
:1048cc00ae0290000042eb00844a78002e02900069
:1048dc000402e80024079800ae0290000042eb00ae
:1048ec00844a78002e0290000402e8002407980005
:1048fc000080fa00000006000c00fa003007980057
:10490c0041079800520798004e029000044f78001f
:10491c004e0290004822de00144798005e02900080
:10492c00244798005e0290004822de00344798002d
:10493c003e02900024079800ae02900084c2b3009f
:10494c00844a78002e0290000402e80024079800a4
:10495c00ae0290000042eb00844a78002e029000d8
:10496c000402e80024079800ae0290000042eb001d
:10497c00844a78002e0290000402e8002407980074
:10498c00ae0290000042eb00844a78002e029000a8
:10499c000402e800240798002e029000ae4290001a
:1049ac00054a78002e0290000402e80024079800c3
:1049bc002e029000be429000054a78002e02900014
:1049cc000402e80024079800ae0290000042eb00bd
:1049dc00844a78002e0290000402e8002407980014
:1049ec00ae0290000042eb00844a78002e02900048
:1049fc000402e800240798002e0290001e4a78005a
:104a0c002e0290000402e800240798002e02900069
:104a1c009e429000054a78002e0290000402e800a5
:104a2c0024079800ae0290000042eb00844a780004
:104a3c002e0290000402e80024079800ae029000b9
:104a4c000042eb00844a78002e0290000402e80039
:104a5c0024079800ae02900014c0b300844a78007a
:104a6c002e0290000402e80024079800ae02900089
:104a7c000042eb00844a78002e0290000402e80009
:104a8c0024079800ae02900084c0b300844a7800da
:104a9c002e0290000402e80024079800ae02900059
:104aac000042eb00844a78002e0290000402e800d9
:104abc0024079800ae0290000042eb00844a780074
:104acc002e0290000402e80024079800ae02900029
:104adc000042eb00844a78002e0290000402e800a9
:104aec0024079800ae0290000042eb00844a780044
:104afc002e0290000402e80024079800ae029000f9
:104b0c000042eb00844a78002e0290000402e80078
:104b1c0024079800ae0290000042eb00844a780013
:104b2c002e0290000402e80024079800ae029000c8
:104b3c000042eb00844a78002e0290000402e80048
:104b4c0024079800ae0290000042eb00844a7800e3
:104b5c002e0290000402e80024079800ae02900098
:104b6c000042eb00844a78002e0290000402e80018
:104b7c0024079800ae0290000042eb00844a7800b3
:104b8c002e0290000402e80024079800ae02900068
:104b9c000042eb00844a78002e0290000402e800e8
:104bac0024079800ae0290000042eb00844a780083
:104bbc002e0290000402e80024079800ae02900038
:104bcc000042eb00844a78002e0290000402e800b8
:104bdc0024079800ae0290000042eb00844a780053
:104bec002e0290000402e80024079800ae02900008
:104bfc000042eb00844a78002e0290000402e80088
:104c0c0024079800ae0290000042eb00844a780022
:104c1c002e0290000402e80024079800ae029000d7
:104c2c000042eb00844a78002e0290000402e80057
:104c3c0024079800ae0290000042eb00844a7800f2
:104c4c002e0290000402e80024079800ae029000a7
:104c5c0014c0b300844a78002e0290000402e800cd
:104c6c0024079800ae0290000042eb00844a7800c2
:104c7c002e0290000402e80024079800ae02900077
:104c8c000042eb00844a78002e0290000402e800f7
:104c9c0024079800ae0290000042eb00844a780092
:104cac002e0290000402e80024079800ae02900047
:104cbc000042eb00844a78002e0290000402e800c7
:104ccc0024079800ae0290000042eb00844a780062
:104cdc002e0290000402e80024079800ae02900017
:104cec000042eb00844a78002e0290000402e80097
:104cfc00240798000080fa00000006000800fa0063
:104d0c0020079800310798002e029000040f7800bd
:104d1c000002eb0014079800080037001e02780010
:104d2c001442780004407800250207001e0fe800aa
:104d3c001e0290000402e800140798009e029000e6
:104d4c003e029000848f5200f4ff35000080fa0080
:104d5c00000006000200fa000002eb00040f7800cd
:104d6c000f0037001e0278000442780004407800df
:104d7c00130207001e0278000442780004407800f9
:104d8c000f0207001e0278000442780004407800ed
:104d9c000b0207000040eb00090207001e0fe800a1
:104dac00f40f20009e027800848f5200edff340037
:104dbc000080fa00000006000400fa000002eb007c
:104dcc00040f7800440037000002eb001407980031
:104ddc003c0037001e029000044278006522b900a6
:104dec00040278000442780004407800f4010700c3
:104dfc001e029000044278006522b900040278007b
:104e0c00044278006a42420004407800ec0107003a
:104e1c001e029000044278006522b900040278005a
:104e2c00044278007442420004407800e401070018
:104e3c001e027800044278000442420004407800cc
:104e4c00df0107009e02780079824200044278005c
:104e5c000442420004407800d90107001e02900071
:104e6c00044278006922b9000402780004427800f8
:104e7c0004407800d20107001e0290000442780022
:104e8c006922b90004027800044278006a424200a8
:104e9c0004407800ca0107001e029000044278000a
:104eac006922b9000402780004427800744242007e
:104ebc0004407800c20107001e0290000402e800c2
:104ecc00140798009e029000b4022000848f5200b8
:104edc00c0ff34001e0fe800340f20009e02780043
:104eec00848f5200b8ff34000080fa0000000600e6
:104efc000000fa000742a9000782a9000002eb009b
:104f0c00541088000002eb00641088000702a9000e
:104f1c00540220002410880007e2a8000080fa0048
:104f2c00000006000000fa000602a80000000000c5
:104f3c003410800061026200e00f5200fcff3a0066
:104f4c000080fa00000006000000fa000642a800eb
:104f5c00000000003410800064026200e00f520078
:104f6c00fcff3a000080fa00000006000000fa0086
:104f7c000622a800000000003410800062026200cb
:104f8c00e00f5200fcff3a000080fa00000006001f
:104f9c000000fa0006a2a8000682a800000000008b
:104fac003410800070026200e00f5200fcff3a00e7
:104fbc0006a2a9000080fa00000006000000fa001a
:104fcc0006a2a9000682a800000000003410800090
:104fdc0070026200e00f5200fcff3a000080fa0001
:104fec00000006000200fa00004f78009e42780094
:104ffc000582fb00141088000000000045108000a2
:10500c000400240004826200e00f5200fbff3a000f
:10501c00441080000482ea004f22de000442780033
:10502c00044078000080fa00000006000000fa003e
:10503c000662a800000000004410800062026200ba
:10504c00e00f5200fcff3200041080000442780094
:10505c00044078000080fa00000006000600fa0008
:10506c002047980031479800424798000042eb00d7
:10507c00044f7800abff07002e4290000442420020
:10508c0004407800d7ff0700004278000482fb0040
:10509c000402e9004f22de00044278001e4f420059
:1050ac003e409000cfff0700004278000482fb00d6
:1050bc000402e9004f22de00044278001e4f420039
:1050cc004e409000c7ff0700004278000482fb00ae
:1050dc000402e9004f22de00044278001e4f420019
:1050ec0099ff07001e427800044078000080fa0007
:1050fc00000006000600fa0020479800314798008f
:10510c00220798000042eb00044f780085ff07004f
:10511c002e4290000442420004407800b1ff070088
:10512c00004278000482fb000402e9004f22de00fa
:10513c00044278001e4f42003e409000a9ff070039
:10514c00004278000482fb000402e9004f22de00da
:10515c00044278001e4f420072ff07002e4290005e
:10516c000482fb0004024200044278000404a00004
:10517c00044078009bff0700004278000482fb008b
:10518c000402e9004f22de00044278001e4f420068
:10519c00a6ff070000427800ae029000844a780017
:1051ac007bff070068ff07001e4278000440780070
:1051bc000080fa00000006000800fa002047980062
:1051cc003147980022079800634798000042eb0093
:1051dc00044f780053ff07002e4290000442420017
:1051ec00044078007fff0700004278000482fb0037
:1051fc000402e9004f22de00044278001e4f4200f8
:10520c003e40900077ff0700004278000482fb00cc
:10521c000402e9004f22de00044278001e4f4200d7
:10522c0040ff07002e4290000482fb000402420063
:10523c00044278000404a0000440780069ff0700d1
:10524c00004278000482fb000402e9004f22de00d9
:10525c00044278001e4f42001e427800e04f52007c
:10526c000c00320038ff07001e4278001b0037008c
:10527c006eff070000427800ae029000844a78006e
:10528c002e0290000402e800240798004bff070050
:10529c00010037000000000014c0b300ee42900083
:1052ac00e1cf520001003e000042eb00ee429000c4
:1052bc008542e90065479800e04f5200ecff3a0048
:1052cc005aff070000427800ae029000844a780032
:1052dc002fff07001cff07001e42780004407800d7
:0852ec000080fa00000006003a
:020000040000fa
:1052f400da0a00000400000002000000000064005c
:105304000000000000080000da02000000000000b5
:10531400de0a00000200000000000000e00a0000b5
:10532400020000000200000000000000820b0000e8
:105334002a0000000200000030313200333435000e
:1053440036373800394142004344450046003000b6
:105354003132330034353600373839006162630046
:105364006465660000286e00756c6c0029000000fe
:10537400e20a0000a000000002000000010000009a
:105384000000000000000a0000000000000000000f
:10539400006400000000000000000000e8030000ba
:1053a40000000000000010002700000000000000c2
:1053b40000a08600010000000000000040420f0031
:1053c400000000000000800096980000000000002b
:1053d4000000e100f50500000000000000ca9a008a
:1053e4003b00000000000000e40b54000200000039
:1053f4000000e80076481700000000000010a50037
:10540400d4e8000000000000a0724e00180900005b
:10541400000040007a10f3005a0000000080c6002b
:10542400a47e8d000300000000c16f00f2862300fb
:10543400000000008a5d78004563010000006400fc
:10544400a7b3b600e00d000000e889000423c700fc
:105454008a000000d20b00000600000000000000db
:10546400ac0b00002600000002000000d30b00007b
:1054740000d30b000900000000020000d50b00005f
:1054840000d50b000e020100000000000000000027
:10549400000000000602020000000000ac0b000047
:1054a400d80b000002000000020000000100000010
:0454b40000000000f4
:020000040000fa
:1054b8000200fa0014022000441188008400280029
:1054c800041188000440200014118800e882a80014
:1054d800e8a2a9002535800004fc2f0004826200a0
:1054e800a400b3002435880085368000f40f2c0012
:1054f80084826200043020000482720084368800ae
:105508000200370034118000044f78001411800025
:1055180061026200e00f5200faff3a000080fa00d0
:10552800000006000000fa00141180000442780010
:10553800614262000482fb00040078000080fa00e7
:10554800000006000000fa002222a9000000000066
:105558001411800061026200e00f5200fcff32006b
:105568003411800004427800044078000080fa007a
:10557800000006000200fa00c48e2900040f78001b
:105588002222a900000000001411800061026200bc
:10559800e00f5200fcff3200020037003411800097
:1055a8001e0f42001411800061026200e00f5200d9
:1055b800faff32001e027800040078000080fa002a
:1055c800000006000200fa00004f7800000000000a
:1055d800151180000420200004826200e00f5200b0
:1055e800fbff3a001e02fb00241188000080fa002d
:1055f800000006000200fa00000f780005003700de
:105608001e027800144278001e0fe800044078005b
:10561800ecff07001e02780014427800e04f5200a9
:10562800f7ff3a000080fa00000006000200fa00c6
:10563800000f7800040028002408880007003700bd
:105648000002eb0004088800000000000508800044
:10565800f4e72300848f5200fcff36001e02780016
:1056680004f0a7000402ea000402ea004f22de0068
:10567800044278001e0fe900e04f5200f0ff3a00a4
:105688000080fa00000006000200fa00000f78000f
:105698000400280024088800060037000002eb00f8
:1056a800040888000000000004088000ef0f520082
:1056b800fdff36001e02780004f0a7000402ea008d
:1056c8000402ea004f22de00044278001e0fe900bf
:1056d800e04f5200f1ff3a000080fa000000060097
:1056e8000000fa0040a7a900360020008407200027
:1056f800a509200037742000844b7800854b78007a
:10570800864b7800160020006404200075052000f0
:1057180027742000844b7800854b7800864b7800ee
:1057280000000000153a800004002700848262000f
:1057380004002300848f5200faff3a000080fa0028
:045748000000060057
:020000040000fa
:020000040005f5
:0457f400ffff0000b3
:020000040000fa
:020000040005f5
:0457f80066a30000a4
:020000040000fa
:020000040005f5
:0457fc007f3e0000ec
:00000001FF
