:020000040000fa
:080000000002040000000000f2
:020000040000fa
:10000800c4020000940200009a020000a00200004e
:10001800a6020000c4020000c4020000c4020000de
:10002800c4020000c4020000c4020000dc1000008a
:10003800c4020000c4020000c4020000c4020000a0
:10004800c4020000c4020000c4020000c402000090
:10005800c4020000c4020000c4020000c402000080
:10006800c4020000c4020000c4020000c402000070
:10007800c4020000c4020000c4020000c402000060
:10008800c4020000c4020000c4020000c402000050
:10009800c4020000c4020000c4020000c402000040
:1000a800c4020000c4020000c4020000c402000030
:1000b800c4020000c4020000c4020000c402000020
:1000c800c4020000c4020000c4020000c402000010
:1000d800c4020000c4020000c4020000c402000000
:1000e800c4020000c4020000c4020000c4020000f0
:1000f800c4020000c4020000c4020000c4020000e0
:10010800c4020000c4020000c4020000c4020000cf
:10011800c4020000c4020000c4020000c4020000bf
:10012800c4020000c4020000c4020000c4020000af
:10013800c4020000c4020000c4020000c40200009f
:10014800c4020000c4020000c4020000c40200008f
:10015800c4020000c4020000c4020000c40200007f
:10016800c4020000c4020000c4020000c40200006f
:10017800c4020000c4020000c4020000c40200005f
:10018800c4020000c4020000c4020000c40200004f
:10019800c4020000c4020000c4020000c40200003f
:1001a800c4020000c4020000c4020000c40200002f
:1001b800c4020000c4020000c4020000c40200001f
:1001c800c4020000c4020000c4020000c40200000f
:1001d800c4020000c4020000c4020000c4020000ff
:1001e800c4020000c4020000c4020000c4020000ef
:0801f800c4020000c402000073
:020000040000fa
:10020800c4020000ac020000b2020000b802000004
:10021800be020000c4020000c4020000c4020000c4
:10022800c4020000c4020000c4020000dc10000088
:10023800c4020000c4020000c4020000c40200009e
:10024800c4020000c4020000c4020000c40200008e
:10025800c4020000c4020000c4020000c40200007e
:10026800c4020000c4020000c4020000c40200006e
:10027800c4020000c4020000c4020000c40200005e
:10028800c4020000c4020000c4020000c40200004e
:10029800c4020000c4020000c4020000c40200003e
:1002a800c4020000c4020000c4020000c40200002e
:1002b800c4020000c4020000c4020000c40200001e
:1002c800c4020000c4020000c4020000c40200000e
:1002d800c4020000c4020000c4020000c4020000fe
:1002e800c4020000c4020000c4020000c4020000ee
:1002f800c4020000c4020000c4020000c4020000de
:10030800c4020000c4020000c4020000c4020000cd
:10031800c4020000c4020000c4020000c4020000bd
:10032800c4020000c4020000c4020000c4020000ad
:10033800c4020000c4020000c4020000c40200009d
:10034800c4020000c4020000c4020000c40200008d
:10035800c4020000c4020000c4020000c40200007d
:10036800c4020000c4020000c4020000c40200006d
:10037800c4020000c4020000c4020000c40200005d
:10038800c4020000c4020000c4020000c40200004d
:10039800c4020000c4020000c4020000c40200003d
:1003a800c4020000c4020000c4020000c40200002d
:1003b800c4020000c4020000c4020000c40200001d
:1003c800c4020000c4020000c4020000c40200000d
:1003d800c4020000c4020000c4020000c4020000fd
:1003e800c4020000c4020000c4020000c4020000ed
:0803f800c4020000c402000071
:020000040000fa
:10040000cf8f20000e7f24000e0188000000000026
:1004100000012000200288000c00070080dc200082
:100420000100200011000700000020000000e00093
:10043000020032000000020000000000161002005e
:10044000000000000040da000000fe004440a90067
:10045000a00320000000e0000300320000002000a4
:10046000a00188004440a800000006009101880017
:10047000800078000000eb0015003700e2804000ab
:1004800032a0b4009101ba00e280400032a0b40072
:100490009102ba00e280400032a0b4000002eb00fa
:1004a000472bde00f507b200602ce10004003a00a3
:1004b0000059eb008301e900fdff3e000400370016
:1004c0006128e100010032000082eb000400070017
:1004d0001101ba000200e000e8ff3a000000060047
:1004e0003159ba008301e9000c0032002159ba00e9
:1004f0008301e900080032000400e00003003a0034
:10050000e280400032a0b400f5ff370011d9ba00f4
:100510008301e900faff3a008100e800e180400031
:1005200032a0b400000006000000fa008020a900fc
:10053000ffff37000000fa008060a900ffff3700ce
:100540000000fa008040a900ffff37000000fa0019
:100550008080a900ffff37000000fa008020a9007a
:10056000ffff37000000fa008060a900ffff37009e
:100570000000fa008040a900ffff37000000fa00e9
:100580008080a900ffff37000000fa00ffff37005e
:100590000c00fa00889fbe0000047800f4ff2700da
:1005a000d4bf9f008004eb0099bf9f0088bf9f00cd
:1005b000a8bf9f00240c2000b4bf9f007881570083
:1005c000cfb0970070805700070007000fba970060
:1005d000094a78000fba9700080052004f04be0085
:1005e0000080fa00000006002f03b000889fbe00c4
:1005f0008a9fbe008c9fbe008e1f7800e0af9f00d8
:10060000c1af9f00b2b79f008006eb006e023700bb
:10061000cfa897008100e800c1af9f0054c2b3008b
:10062000844f500006003a00010278000006eb00fb
:1006300001c3b30000c2b300b7c2b3000700370064
:100640000000fb00efa897006b020700e10f4000dd
:100650005d0232008d06e8005b02370084027800fc
:1006600034437800d2c2b300824f530009003200f5
:1006700005003c00804f530008003200874f5300b4
:100680000c003a0007003700814f530009003a0080
:10069000060037000c30a000f0ff37000c00a0006f
:1006a000eeff37000c10a000ecff37000c20a0007c
:1006b000eaff370062026600010032000c00a10070
:1006c00068026600010032000c20a1000602fb0057
:1006d0000403b100e90f52000c003e00050378004e
:1006e0000002eb006a22b900b603fb000703b10069
:1006f00004824300860278009603fb000703b100e2
:10070000e98f5300f7ff3600080037000002eb00c6
:10071000a7c2b300874f530004003a00bfb197004f
:1007200043027800b3b79f008502e8000007eb00a2
:10073000e6c2b300954f13000a003a000ce0a00097
:1007400064435300d54f13000200320005037800c4
:10075000080037003fb3970046077800b6b79f0000
:100760008502e80005037800080037006a70b900c8
:100770000087430086027800b603fb000703b10040
:10078000e98f5300f9ff3600f6ff3700b6427800d4
:10079000c6af9f00c0c6b30080cf52002500320014
:1007a0000f003c0036c6b30086cf52006e00320008
:1007b00004003c00e0cf5200080232006b435300bb
:1007c0000f00370046c6b30086cf52001700320034
:1007d0006543430086cf520083003a001300370080
:1007e00036c7b30086cf52001f00320007003c001e
:1007f0006443530086cf5200140032000643e800e1
:1008000086cf520078003a001300370056c7b30075
:1008100086cf5200790032006343430086cf5200f6
:1008200071003a00a5c79f000d003700a5c79f00c3
:1008300074003700f003660005012000010032005b
:100840000500280005067600d0ff3700a5c79f00e9
:100850000c60a0006b003700a5c79f000c50a000e3
:100860000c70a00067003700a5c79f00bfb09700bd
:10087000c1027800b1b79f0005047800e08f5200f4
:1008800001003a00688c2000080378008002eb0029
:10089000010037008502e800e6c37a00e0cf53008c
:1008a000fcff3a0085047800e00f57000300320097
:1008b000890f5700010031008e0478000007eb001b
:1008c000890f5200010036000907520068066600d1
:1008d00014003a0007003700efa89700000220003c
:1008e000c5010700e10f4000010032008d06e8005d
:1008f0000e07e900e00f5700f7ff3a000087eb0012
:1009000008003700080278003400fb000404780077
:10091000efa89700b8010700e10f40000100320086
:100920008d06e800090278008404e900e00f520017
:10093000f4ff3a00e00f5600a30132000700370031
:10094000efa8970000022000ab010700e10f400074
:10095000010032008d06e8000e07e900e00f5700a5
:10096000f7ff3a00980137003fb19700c2027800c4
:10097000b2b79f0005007800cf80de00010178004b
:1009800082017800f0af9f0081b79f0092b79f006f
:10099000a3b79f004800de00c80add000080720097
:1009a000a0c79f007003660009003200e04f5000ae
:1009b00007003200e14f400005003200b0c79f0041
:1009c0006fdb9700c6c79f00290020000300370097
:1009d000efdb9700b7c79f001900200038fc2f00fd
:1009e0000f044400b0ff3700a5c79f0028fc2f006c
:1009f0000f04440019002000abff3700a5c79f007b
:100a00000c0cb3008c027800050cb2002b003a00ed
:100a1000e00f560005003d003fb097004005be00c6
:100a20004004be00b0b79f0017003700f002660018
:100a30000f003200bfb297004501be00b5b79f005e
:100a4000c2a79f00d3a79f000503780096029000dd
:100a5000cfaade00e5a79f00f5a79f004fa497004f
:100a6000dfa497006fa59700ffa597000600370049
:100a70003fb0970040047800b0b79f00cfc4de00bd
:100a8000090578008a057800e00f5400e08f5c00cb
:100a9000e00f5d00e08f5d0025003d003c00b300ed
:100aa0006000b8006011b800080450008984580044
:100ab0000a0559008b8559001d003700e00f5600cc
:100ac00005003d00bfb097004105be004104be00d7
:100ad000b1b79f0016003700f00266000e0032002a
:100ae000bfb297004501be00b5b79f0082af9f001f
:100af00093af9f000003eb00a6af9f008003eb00c5
:100b0000b7af9f000fac97009fac97002fad970039
:100b1000bfad9700060037003fb097004004780053
:100b2000b0b79f00090020000a0020000b00200041
:100b3000e00f570007003a001e002000e00f5400ad
:100b4000e08f5c00e00f5d00e08f5d00010032008f
:100b50000007eb008c007800010cb200f1af9f00a1
:100b600005042000858f50002c00320003003c005b
:100b7000e08f5000080032003c00370005082000dc
:100b80007fa99700850f510010003200050c20004e
:100b9000850f510035003a00c680200015c0b30013
:100ba0003600be003601be000040e10001c8e10091
:100bb00002d0e10003d8e1002b0039008542e800b3
:100bc000f4cf5200f6ff3a002700370015c0b300fb
:100bd00000012000010020006011b8000040e10089
:100be00001c8e10002d0e10003d8e1001e00390095
:100bf000460020000000d0008180d2000281d20097
:100c00008381d2000603e900faff3a008542e8003a
:100c1000f0cf5200f1ff3a001300370015c0b300c7
:100c200080002000010020006011b8000040e100b9
:100c300001c8e10002d0e10003d8e1000a00390058
:100c4000370020000000d0008180d2000281d20055
:100c50008381d2008703e900faff3a008542e80069
:100c6000f5cf5200f1ff3a00a5c79f002fc09700b3
:100c70008002fb008e8f520002003d00aec79f0035
:100c800003003700850f570001003d00050778007d
:100c9000e00f520003003200e30266000100320060
:100ca0000402e90005002400850266000500320008
:100cb0008e0f5200020034000e0252000100370075
:100cc0000002eb002fc197008202fb008001eb00c5
:100cd000d3af9f00850f52000200340085025200fe
:100ce000d5af9f00640266002c003200e20266006d
:100cf00061026600e08f520006003200b002200060
:100d0000e00f5200010032000080e800efa89700d9
:100d100004003700e00f520006003200efa89700f1
:100d200000022000b4000700e10f40000100320083
:100d30008d06e8005faa9700e00f52008d00320098
:100d40000802be000a03be00dfac9700efa89700c0
:100d500000032000c4b79f00d5b79f00e6b79f00ef
:100d6000f7b79f00a40007004fb29700dfb29700cb
:100d70006fb39700ffb39700e10f4000010032000e
:100d80008d06e8008904e900f0ff3a00d9af9f0022
:100d90000605be000404be0076003700dfaa9700f7
:100da000e08f5200180032006802660016003a0018
:100db0000802be000a03be00dfac9700efa8970050
:100dc00000022000c4b79f00d5b79f00e6b79f0080
:100dd000f7b79f00880007004fb29700dfb2970077
:100de0006fb39700ffb39700e10f4000010032009e
:100df0008d06e8008904e900f0ff3a00d9af9f00b2
:100e00000605be000404be00e20266006102660040
:100e1000e08f520006003200b0022000e00f5200c6
:100e2000010032000080e800efa8970004003700be
:100e3000e00f52004f003200efa8970000022000a0
:100e40006d000700e10f40004a0032008d06e80007
:100e5000480037000e07e9007fab97000704200029
:100e6000870f53002d00320003003c00e00f5300b9
:100e70000800320037003700040820007fae9700da
:100e8000840f560012003200040c2000840f56001c
:100e900030003a004372dd00408020000002420032
:100ea0005403be004402be000800be000a01be009a
:100eb000b4010700a4002000050020006033b80042
:100ec000b701070004c3b30004424000200037000c
:100ed000548b2000bfa29700e08f52000100320027
:100ee000448a2000c272dd000800be000a01be0074
:100ef0008502e900050033008301d1000281d3009f
:100f00008180d3000080d300f9ff37006f006000bc
:100f100064407800a0c79f000e0037006372b900dc
:100f20000800be000a01be00040678000c06e900b5
:100f3000050033008301d1000281d3008180d300fa
:100f40000080d300f9ff3700674260000443b0001f
:100f5000a4c79f00afc097000100fb00efa8970057
:100f600025000700e10f4000060032008d06e80072
:100f7000040037000c0178000202b200b2a79f0003
:100f80008cbf9f00e00f5700b2ff3a000fbe9700e2
:100f9000680666000c003200dfa99700e08f510060
:100fa0000900340003067800efa897000002200033
:100fb00011000700e10f4000010032008d06e8003b
:100fc0000c06e900f8ff3a004faa97001440780099
:100fd000a0c79f00e04f50008dfd3a000d00780043
:100fe0004f0778004f06be004f05be004f04be00fd
:100ff0002f03b10000000600889fbe0001047800a6
:1010000038029000e20262008084eb003b00320074
:10101000040378000620b2009802900002003a0013
:10102000e08f520035003a000490a000340498008c
:1010300080047800f90fb200e08f520002003a00fd
:10104000a8029000050c7800ea8f540005003a00d1
:101050000408b20003003a0088007800d0002000a5
:10106000e5ff070018029000d8029000850f52009b
:101070000b0032000402e800140498001802780003
:10108000094a7800040ce80015c0b300448f200022
:10109000054a7800ea8f540018003a00050037002e
:1010a0008800780009407800170007008004780065
:1010b00012003700380290000410b2000f00320016
:1010c00018019000a800900048009000520007000e
:1010d00018029000840f5000040032003802900083
:1010e0000403b300340498008084eb000002eb009a
:1010f0001404980028029000040c7800090078007d
:101100004f04be00000006000200fa00889fbe00e7
:10111000a0ff9f000104780038029000840278004c
:101120000504b200020032000000fb003500370069
:10113000e202620005003a000403b30034049800a0
:10114000150498000080eb002e003700d8049000b2
:10115000e08f540006003a0012002000e68057009d
:10116000480090002c000700190498002300370065
:10117000a8029000e08f520008003a00758f20000e
:1011800025049800050c78002500200055049800df
:10119000150498000430a000340498001801900051
:1011a000a8009000480090001b0007002802900053
:1011b0008082eb0015049800affa9700054a78008a
:1011c000040ce8002ffa9700ea4f52000b003a0097
:1011d000380290000410b20008003200180190009c
:1011e000a8009000480090000b0007000002eb00f0
:1011f00014049800a8029000050c78002ffa9700bc
:101200000400fb004f04be000080fa00000006004e
:1012100000c0da00000006000a00fa00e20f5000e9
:1012200022003e00d4478000e10f52000600320049
:1012300087232000462320002423200005232000ac
:10124000e08f530004003a0087222000462220004d
:101250002422200005222000000028001500600044
:1012600003003a00800b780007002800958a73007d
:10127000054020009482620001003a0014a0a00002
:101280008202780006003700940378000710b2004d
:10129000fdff3200b103fb00070b78008502e90077
:1012a000e08f5200f8ff3a000800370034002000b9
:1012b000b4bf9f00c0bf9f00d1bf9f00e2bf9f008f
:1012c0006a805700d2ff07006fb9970002007800cc
:1012d0000080fa0000000600889fbe008a9fbe00c2
:1012e0003004be002005be000404440085844c0088
:1012f00006054d0087854d000898be000a90be0087
:101300000440e10005c8e10006d0e10007d8e10093
:1013100002003100680040001008e8004f05be00e0
:101320004f04be00000006001000fa00889fbe00b7
:101330008a9fbe000605be000404be003002be0047
:101340002003be00c4b79f00d5b79f00e6b79f003b
:10135000f7b79f000802520089825a000a035b0017
:101360008b835b0084bf9f0095bf9f00a6bf9f003b
:10137000b7bf9f000498be000698be001100200071
:101380004fb29700dfb297006fb39700ffb397009b
:101390000820e10009a8e1000ab0e1000bb8e10073
:1013a000010039008000eb00108810004f05be00de
:1013b0004f04be000080fa00000006001400fa008e
:1013c000889fbe008a9fbe008c9fbe003f00070022
:1013d0000605be000404be000006eb00ccb79f006b
:1013e000bcb79f00acb79f009cb79f008cb79f0015
:1013f0000d0420004fb39700bfb29700860343004f
:101400002fb29700e00f530004003d003d0007009d
:101410000f004000b0ff070003003700390007004d
:101420000f004000c0ff0700cfb2970095bf9f009c
:10143000e08f5200090035002b0007001400200047
:10144000050020006033b800000072008180720047
:1014500002017300838173001c0007000c06e80082
:101460008d0f5600e3ff3a001fba9700e00f5200bd
:1014700005003d000802be000a03be0000fe2f006a
:101480000f00400094ff07004faa9700e00f5200a2
:1014900008003a000fb497009fb497002fb597004b
:1014a000bfb59700d8b79f00e9b79f00fab79f0074
:1014b0008bbf9f000c0007004f06be004f05be000b
:1014c0004f04be000080fa00000006000100070083
:1014d0000000060090b79f00a1b79f00b2b79f0021
:1014e000c3b79f00000006000100070000000600cf
:1014f0001fb09700afb097003fb19700cfb19700f2
:10150000000006004f2bde0087037300a7b79f0083
:101510004f23de00858242008502730095b79f004d
:10152000ffaa97004f2bde00040242000402730062
:1015300084b79f006faa97004f23de008582420088
:1015400085027300f5af9f00e9ff07004f18de002a
:101550000402420000027200e4af9f00e4ff0700b3
:101560000000400081804800020149008381490059
:10157000d8ff07000802be000a03be0000fe2f00cd
:1015800000000600881f780018002000881f7800df
:101590008aff07008f87e9004f04780000000600eb
:1015a000801feb0085ff07008f87e9000000060021
:1015b000889fbe008a9fbe00e00f5000e08f580059
:1015c000e00f5900e08f59000c003d006044b80066
:1015d0006055b8000000540081805c0002015d008d
:1015e00083815d00180020001500070008003d0001
:1015f000180007000004eb00050037000004eb00b2
:101600000f00070002003d00120007001800200034
:10161000dcff0700e00f5400060032006022b80033
:101620006033b8000000520081805a0002015b0064
:1016300083815b004f05be004f04be000000060022
:10164000e00f5200e08f5a00e00f5b00e08f5b007c
:10165000000006006044b8006055b8000402540061
:1016600085825c0006035d0087835d000000060044
:10167000889fbe008a9fbe008c1f7800e00f50003c
:10168000e08f5800e00f5900e08f59000d003d0039
:101690006044b8006055b8000000540081805c00d0
:1016a00002015d0083815d001c0020000820e10034
:1016b00009a8e1000ab0e1000bb8e1000d003d000f
:1016c000080037000006eb00e00f5200e08f5a00e0
:1016d000e00f5b00e08f5b0006003d006044b80057
:1016e0006055b8000402540085825c0006035d006a
:1016f00087835d00aaff0700e00f56000600320056
:101700006022b8006033b8000000520081805a00a7
:1017100002015b0083815b004f0678004f05be002d
:081720004f04be0000000600aa
:020000040000fa
:101728004f4e0000000d00000a0000004f46000068
:1017380046000000504900004300000054680000c3
:1017480065200000766100006c75000065200000cf
:101758006f6600002070000061720000616d00007b
:1017680065740000657200002070000020690000a8
:10177800732000002564000000500000206900006c
:101788007320000073650000742100000000000051
:04179800000000004d
:020000040000fa
:10179c000200fa00004f7800114798000080fa0010
:1017ac00000006000200fa00004f78000042eb0037
:1017bc00044078000080fa00000006000400fa00e3
:1017cc00004f780011479800224798003700070017
:1017dc001e02fb0004007800880007001e429000e7
:1017ec000402fb0004007800840007002e429000e5
:1017fc000402fb0004007800800007005a00070078
:10180c000080fa00000006000400fa00204798004f
:10181c0031479800250007002e4290000402fb007f
:10182c0004007800750007003e4290000402fb00a3
:10183c000400780071000700a0002000410207009e
:10184c00330007002e4290000404a0000402fb00a9
:10185c000400780069000700970007000042780038
:10186c00044f7800400007001e42780004407800c6
:10187c000080fa00000006000400fa00100798002f
:10188c001e0290002410880007e2a9000722a8007d
:10189c008620a90007e2a80004108000040f78003d
:1018ac00310007000080fa00000006000200fa0078
:1018bc000002eb00040f780006a2a900a000200093
:1018cc00200207000602a8000000000006003700f6
:1018dc00100020001b0207001e0fe8001e027800fb
:1018ec00f40f520005003c003410800061026200cd
:1018fc00e00f5200f6ff3a00010037000000000034
:10190c00200020000f0207000080fa0000000600f3
:10191c000200fa000002eb00040f78000622a80077
:10192c000000000006003700100020000502070030
:10193c001e0fe8001e027800f40f520005003c0058
:10194c003410800062026200e00f5200f6ff3a0091
:10195c00010037000000000020002000f901070002
:10196c000080fa00000006000200fa000002eb0002
:10197c00040f78000642a800040037001e0fe80090
:10198c001e027800f40f520005003c003410800059
:10199c0064026200e00f5200f8ff3a0001003700c9
:1019ac00000000000662a9008620a90008e2a90038
:1019bc000942a9000080fa00000006000400fa00a9
:1019cc00204798000042eb00044f7800b7ff070057
:1019dc002e4290000402fb00040078000700070070
:1019ec0000427800044f7800dfff07001e427800a9
:1019fc00044078000080fa00000006000400fa00a1
:101a0c001007980000000000441080006102620082
:101a1c00e00f5200fcff3a008620a9001e02900045
:101a2c00141088000002eb00040f78000800370047
:101a3c00451080000400240004826200e00f520074
:101a4c000800320010002000be0107001e0fe80045
:101a5c00341f20009e027800848f5200f4ff340063
:101a6c000100370000000000441f20009e02780097
:101a7c00848f520002003a0014c0b3000b003700f0
:101a8c00451080000400280004826200e00f520020
:101a9c0003003200b4ff070014c0b300030037008a
:101aac0020002000a70107000042eb000440780052
:101abc000080fa00000006000400fa000002eb00af
:101acc00040f78000042eb00244798000662a8003f
:101adc00050037001e0fe800047d20009e027800f0
:101aec00848f520005003c004410800062026200aa
:101afc00e00f5200f7ff3200010037000000000039
:101b0c0004108000244798002e4290000440780076
:101b1c000080fa00000006000400fa000002eb004e
:101b2c00040f78000042eb00244798000662a800de
:101b3c00050037001e0fe800047d20009e0278008f
:101b4c00848f520005003c00441080006202620049
:101b5c00e00f5200f7ff32000100370000000000d8
:101b6c0004108000244798000682a800a0002000e2
:101b7c00740107002e429000044078000080fa00a7
:041b8c00000006004f
:020000040000fa
:101b900000080000020000000200000064000000d5
:101ba0000208000002000000020000000000000027
:101bb000a40800002a0000000200000030313200ba
:101bc000333435003637380039414200434445004c
:101bd00046003000313233003435360037383900b2
:101be000616263006465660000286e00756c6c00bd
:101bf0002900000004080000a0000000020000000e
:101c0000010000000000000000000a0000000000c9
:101c10000000000000640000000000000000000060
:101c2000e803000000000000000010002700000092
:101c30000000000000a0860001000000000000007d
:101c400040420f0000000000000080009698000055
:101c5000000000000000e100f505000000000000a9
:101c600000ca9a003b00000000000000e40b540092
:101c7000020000000000e8007648170000000000a5
:101c80000010a500d4e8000000000000a0724e0083
:101c900018090000000040007a10f3005a0000000c
:101ca0000080c600a47e8d000300000000c16f000c
:101cb000f2862300000000008a5d78004563010081
:101cc00000006400a7b3b600e00d000000e8890042
:101cd0000423c7008a000000f4080000060000008a
:101ce00000000000ce0800002600000002000000f6
:101cf000f508000000f508000900000000020000df
:101d0000f708000000f708000e02010000000000c4
:101d100000000000000000000602020000000000b9
:101d2000ce080000fa0800000200000002000000d7
:081d30000100000000000000aa
:020000040000fa
:101d38000200fa00140220004411880084002800e0
:101d4800041188000440200014118800e882a800cb
:101d5800e8a2a9002535800004fc2f000482620057
:101d6800a400b3002435880085368000f40f2c00c9
:101d78008482620004302000048272008436880065
:101d88000200370034118000044f780014118000dd
:101d980061026200e00f5200faff3a000080fa0088
:101da800000006000000fa001411800004427800c8
:101db800614262000482fb00040078000080fa009f
:101dc800000006000000fa002222a900000000001e
:101dd8001411800061026200e00f5200fcff320023
:101de8003411800004427800044078000080fa0032
:101df800000006000200fa00c4bc2800040f7800a6
:101e08002222a90000000000141180006102620073
:101e1800e00f5200fcff320002003700341180004e
:101e28001e0f42001411800061026200e00f520090
:101e3800faff32001e027800040078000080fa00e1
:101e4800000006000200fa00004f780000000000c1
:101e5800151180000420200004826200e00f520067
:101e6800fbff3a001e02fb00241188000080fa00e4
:101e7800000006000200fa00000f78000500370095
:101e88001e027800144278001e0fe8000440780013
:101e9800ecff07001e02780014427800e04f520061
:101ea800f7ff3a000080fa00000006000000fa0080
:101eb80020c1b3003cfe07000042780005c8b3000b
:101ec800054272008440780020c1b30031fe07004b
:101ed8000080fa00000006000000fa000080fa0006
:101ee800000006000000fa000080fa00000006006a
:101ef8000600fa000002eb00040f780043003700e8
:101f080000000000d51680000480200004826200d2
:101f1800e00f5200fbff3a0000000000d5168000d9
:101f28000480200004826200e00f5200fbff3200b0
:101f38000002eb00140798002f0037000000000093
:101f48005417800068026200e00f5200fcff320064
:101f58000002eb00240798000d0037000000000085
:101f6800d416800061026200e00f5200fcff3a00c4
:101f780000000000d416800061026200e00f5200e9
:101f8800fcff32002e0290000402e80024079800ab
:101f98002e0290009e0f5200f0ff3500541680006c
:101fa8004f22de00044278000482fb004722dd0055
:101fb80084427800541680004e22de00614262009e
:101fc8000482fb004622dd000442780004c272004d
:101fd800044078009bff07000000000054178000b1
:101fe80068026200e00f5200fcff3a001e029000f7
:101ff8000402e800140798009e029000340f2000a5
:10200800848f5200cdff34001e0fe800f415200025
:102018009e027800848f5200b9ff34000080fa00d5
:10202800000006002400fa004100070065ff0700d1
:1020380000427800044f780062ff070000427800f1
:10204800144798001e02fb00cfa2de0056002000b5
:1020580007002000860f5200878f5a0032003e008a
:102068000460010005003700050037000a0037004a
:102078000f00370014003700230037002b0037000b
:1020880040b928007bff070070b9280079ff0700d6
:1020980091ff070025003700a0b9280075ff070049
:1020a80070b9280073ff07008eff07001f00370074
:1020b800e0b928006fff070070b928006dff07001e
:1020c8008bff0700190037000480200014427800b5
:1020d8008482fb000e82e800851f780025ba28005c
:1020e800851f78000400780027f90700e487570067
:1020f8000e82e800040078005eff070070b928002f
:102108005cff07000900370010bc280059ff0700d2
:1021180070b9280057ff07001e429000044078005d
:1021280000e8b7000100370000000000bfff3700db
:102138000000fa000082eb0064198800fcfe07002a
:102148000080fa00000006000200fa00000f780084
:102158000002eb00144088000002eb00040888002d
:1021680000000000144080009e0f5200fdff350063
:102178000080fa00000006000000fa0004022000b7
:10218800140888002405800004c0a00004d0a10021
:1021980004e0a00024058800040028002408880022
:1021a8008460a9009460a8000080fa00000006007e
:1021b800841f78003400f80004002000a40188007f
:1021c8000000fa00144080000402e800144088006f
:1021d8008460a9000080fa003400f9004f027800fa
:1021e800004006000000fa0040a7a90036002000c1
:1021f80084072000a509200037742000844b78004c
:10220800854b7800864b7800160020006404200077
:102218007505200027742000844b7800854b7800d2
:10222800864b780000000000153a80000400270063
:102238008482620004002300848f5200faff3a006f
:082248000080fa00000006000e
:020000040000fa
:020000040005f5
:0457f400ffff0000b3
:020000040000fa
:020000040005f5
:0457f80066a30000a4
:020000040000fa
:020000040005f5
:0457fc007f3e0000ec
:00000001FF
