:020000040000fa
:080000000002040000000000f2
:020000040000fa
:10000800c4020000940200009a020000a00200004e
:10001800a6020000c4020000c4020000c4020000de
:10002800c4020000c4020000c4020000c4020000b0
:10003800c4020000c4020000c4020000c4020000a0
:10004800c4020000c4020000c4020000c402000090
:10005800c4020000c4020000c4020000c402000080
:10006800c4020000c4020000c4020000c402000070
:10007800c4020000c4020000c4020000c402000060
:10008800c4020000c4020000c4020000c402000050
:10009800c4020000c4020000c4020000c402000040
:1000a800c4020000c4020000c4020000c402000030
:1000b800c4020000c4020000c4020000c402000020
:1000c800c4020000c4020000c4020000c402000010
:1000d800c4020000c4020000c4020000c402000000
:1000e800c4020000c4020000c4020000c4020000f0
:1000f800c4020000c4020000c4020000c4020000e0
:10010800c4020000c4020000c4020000c4020000cf
:10011800c4020000c4020000c4020000c4020000bf
:10012800c4020000c4020000c4020000c4020000af
:10013800c4020000c4020000c4020000c40200009f
:10014800c4020000c4020000c4020000c40200008f
:10015800c4020000c4020000c4020000c40200007f
:10016800c4020000c4020000c4020000c40200006f
:10017800c4020000c4020000c4020000c40200005f
:10018800c4020000c4020000c4020000c40200004f
:10019800c4020000c4020000c4020000c40200003f
:1001a800c4020000c4020000c4020000c40200002f
:1001b800c4020000c4020000c4020000c40200001f
:1001c800c4020000c4020000c4020000c40200000f
:1001d800c4020000c4020000c4020000c4020000ff
:1001e800c4020000c4020000c4020000c4020000ef
:0801f800c4020000c402000073
:020000040000fa
:10020800c4020000ac020000b2020000b802000004
:10021800be020000c4020000c4020000c4020000c4
:10022800c4020000c4020000c4020000c4020000ae
:10023800c4020000c4020000c4020000c40200009e
:10024800c4020000c4020000c4020000c40200008e
:10025800c4020000c4020000c4020000c40200007e
:10026800c4020000c4020000c4020000c40200006e
:10027800c4020000c4020000c4020000c40200005e
:10028800c4020000c4020000c4020000c40200004e
:10029800c4020000c4020000c4020000c40200003e
:1002a800c4020000c4020000c4020000c40200002e
:1002b800c4020000c4020000c4020000c40200001e
:1002c800c4020000c4020000c4020000c40200000e
:1002d800c4020000c4020000c4020000c4020000fe
:1002e800c4020000c4020000c4020000c4020000ee
:1002f800c4020000c4020000c4020000c4020000de
:10030800c4020000c4020000c4020000c4020000cd
:10031800c4020000c4020000c4020000c4020000bd
:10032800c4020000c4020000c4020000c4020000ad
:10033800c4020000c4020000c4020000c40200009d
:10034800c4020000c4020000c4020000c40200008d
:10035800c4020000c4020000c4020000c40200007d
:10036800c4020000c4020000c4020000c40200006d
:10037800c4020000c4020000c4020000c40200005d
:10038800c4020000c4020000c4020000c40200004d
:10039800c4020000c4020000c4020000c40200003d
:1003a800c4020000c4020000c4020000c40200002d
:1003b800c4020000c4020000c4020000c40200001d
:1003c800c4020000c4020000c4020000c40200000d
:1003d800c4020000c4020000c4020000c4020000fd
:1003e800c4020000c4020000c4020000c4020000ed
:0803f800c4020000c402000071
:020000040000fa
:100400000f8020000e7f24000e01880000000000f5
:1004100000012000200288000c000700005420008a
:100420000100200011000700000020000000e00093
:10043000020032000000020000000000fa04020086
:10044000000000000040da000000fe004440a90067
:10045000e00520000000e000030032000000200062
:10046000a00188004440a800000006009101880017
:10047000800078000000eb0015003700e2804000ab
:1004800032a0b4009101ba00e280400032a0b40072
:100490009102ba00e280400032a0b4000002eb00fa
:1004a000472bde00f507b200602ce10004003a00a3
:1004b0000059eb008301e900fdff3e000400370016
:1004c0006128e100010032000082eb000400070017
:1004d0001101ba000200e000e8ff3a000000060047
:1004e0003159ba008301e9000c0032002159ba00e9
:1004f0008301e900080032000400e00003003a0034
:10050000e280400032a0b400f5ff370011d9ba00f4
:100510008301e900faff3a008100e800e180400031
:1005200032a0b400000006000000fa008020a900fc
:10053000ffff37000000fa008060a900ffff3700ce
:100540000000fa008040a900ffff37000000fa0019
:100550008080a900ffff37000000fa008020a9007a
:10056000ffff37000000fa008060a900ffff37009e
:100570000000fa008040a900ffff37000000fa00e9
:100580008080a900ffff37000000fa00ffff37005e
:020000040000fa
:1005900055410000525400002065000078610000c1
:1005a0006d7000006c6500002e0d00000a00000058
:1005b00044610000746500003a20000041700000b2
:1005c000722000003236000020320000303100007e
:1005d000340d00000a000000546900006d65000041
:1005e0003a200000313300003a330000313a000075
:1005f000343100000d0a000000520000756e00004a
:100600006e6900006e6700002074000068650000dd
:10061000206c00006f6f0000702e0000204a000068
:10062000757300007420000074790000706500008c
:10063000206100006e79000074680000696e00009f
:0c064000673a00000d0a000000000000f6
:020000040000fa
:10064c000200fa0097c0a90014022000c41188000f
:10065c008400280084118800044020009411880034
:10066c003535800004fc2f0004826200a400b30026
:10067c003435880085368000f40f2c0084826200ab
:10068c000450200004827200843688000200370077
:10069c00b4118000044f7800941180006102620054
:1006ac00e00f5200faff3a000080fa00000006004a
:1006bc000200fa00000f7800000000009511800085
:1006cc000420200004826200e00f5200fbff3a007d
:1006dc001e027800a41188000080fa0000000600b9
:1006ec000000fa009411800004427800614262001c
:1006fc00044078000080fa00000006000000fa00b8
:10070c003222a900000000009411800061026200f6
:10071c00e00f5200fcff32003202a90084c7b30084
:10072c00044078000080fa00000006000200fa0085
:10073c00000f7800060037001e0278001442780083
:10074c000402fb001e0fe80004007800d8ff07002d
:10075c001e02780014427800e04f5200f6ff3a0077
:10076c000080fa00000006000600fa00100798004e
:10077c00210798009e02900084c7b300844a780039
:10078c001e0290000402e800140798002e0290004c
:10079c004c22de00044f78001e427800e94f5200d4
:1007ac000300360075c3b3001ec2420002003700be
:1007bc0005c3b3001ec242009e029000844a78001a
:1007cc001e0290000402e800140798002e0290000c
:1007dc004822de00044278006f4f62001e4278000f
:1007ec00e94f52000300360075c3b3001ec242002d
:1007fc000200370005c3b3001ec242009e029000e7
:10080c00844a78001e0290000402e8001407980045
:10081c002e0290004422de00044278006f4f6200ea
:10082c001e427800e94f52000300360075c3b30036
:10083c001ec242000200370005c3b3001ec24200b4
:10084c009e029000844a78001e0290000402e80088
:10085c00140798002e029000044278006f4f62003b
:10086c001e427800e94f52000300360075c3b300f6
:10087c001ec242000200370005c3b3001ec2420074
:10088c009e029000844a78001e0290000402e80048
:10089c00140798001e029000040078000080fa00f3
:1008ac00000006000200fa00140220004411880027
:1008bc0084002800041188000440200014118800d2
:1008cc008560a9002535800004fc2f00048262009d
:1008dc00a400b3002435880085368000f40f2c006a
:1008ec008482620004302000048272008436880006
:1008fc000200370034118000044f7800141180007e
:10090c0061026200e00f5200faff3a000080fa0028
:10091c00000006000200fa00004f78000000000002
:10092c00151180000420200004826200e00f5200a8
:10093c00fbff3a001e02fb00241188000080fa0025
:10094c00000006000200fa009580a80000000000dc
:10095c00250480000480200004826200e00f520015
:10096c00fbff32009580a90034118000044f780001
:10097c008560a9001e427800044078000080fa00cf
:10098c00000006000000fa0040a7a9003600200075
:10099c0084072000a509200037742000844b7800c0
:1009ac00854b7800864b78001600200064042000ec
:1009bc007505200027742000844b7800854b780047
:1009cc00864b780000000000153a800004002700d8
:1009dc008482620004002300848f5200faff3a00e4
:1009ec000080fa00000006000000fa0014ff070067
:1009fc00d00020002eff0700a00020002cff0700d5
:100a0c00802c280049ff0700802d280047ff070095
:100a1c00c02e280045ff0700d02f280043ff0700f9
:100a2c0036ff0700004278000402fb000400780047
:100a3c001fff0700faff37000000fa0099ff0700bc
:100a4c000080fa00000006000200fa000042eb00f1
:100a5c00044f7800bbff070000427800044f780079
:100a6c001e42780004407800aaff07000080fa00bc
:040a7c000000060070
:020000040000fa
:040a80000000000072
:020000040000fa
:020000040005f5
:0457f400ffff0000b3
:020000040000fa
:020000040005f5
:0457f80066a30000a4
:020000040000fa
:020000040005f5
:0457fc007f3e0000ec
:00000001FF
