:020000040000fa
:080000000002040000000000f2
:020000040000fa
:10000800c4020000940200009a020000a00200004e
:10001800a6020000c4020000c4020000c4020000de
:10002800c4020000c4020000c4020000c4020000b0
:10003800c4020000c4020000c4020000c4020000a0
:10004800c4020000c4020000c4020000c402000090
:10005800c4020000c4020000c4020000c402000080
:10006800c4020000c4020000c4020000c402000070
:10007800c4020000c4020000c4020000c402000060
:10008800c4020000c4020000c4020000c402000050
:10009800c4020000c4020000c4020000c402000040
:1000a800c4020000c4020000c4020000c402000030
:1000b800c4020000c4020000c4020000c402000020
:1000c800c4020000c4020000c4020000c402000010
:1000d800c4020000c4020000c4020000c402000000
:1000e800c4020000c4020000c4020000c4020000f0
:1000f800c4020000c4020000c4020000c4020000e0
:10010800c4020000c4020000c4020000c4020000cf
:10011800c4020000c4020000c4020000c4020000bf
:10012800c4020000c4020000c4020000c4020000af
:10013800c4020000c4020000c4020000c40200009f
:10014800c4020000c4020000c4020000c40200008f
:10015800c4020000c4020000c4020000c40200007f
:10016800c4020000c4020000c4020000c40200006f
:10017800c4020000c4020000c4020000c40200005f
:10018800c4020000c4020000c4020000c40200004f
:10019800c4020000c4020000c4020000c40200003f
:1001a800c4020000c4020000c4020000c40200002f
:1001b800c4020000c4020000c4020000c40200001f
:1001c800c4020000c4020000c4020000c40200000f
:1001d800c4020000c4020000c4020000c4020000ff
:1001e800c4020000c4020000c4020000c4020000ef
:0801f800c4020000c402000073
:020000040000fa
:10020800c4020000ac020000b2020000b802000004
:10021800be020000c4020000c4020000c4020000c4
:10022800c4020000c4020000c4020000c4020000ae
:10023800c4020000c4020000c4020000c40200009e
:10024800c4020000c4020000c4020000c40200008e
:10025800c4020000c4020000c4020000c40200007e
:10026800c4020000c4020000c4020000c40200006e
:10027800c4020000c4020000c4020000c40200005e
:10028800c4020000c4020000c4020000c40200004e
:10029800c4020000c4020000c4020000c40200003e
:1002a800c4020000c4020000c4020000c40200002e
:1002b800c4020000c4020000c4020000c40200001e
:1002c800c4020000c4020000c4020000c40200000e
:1002d800c4020000c4020000c4020000c4020000fe
:1002e800c4020000c4020000c4020000c4020000ee
:1002f800c4020000c4020000c4020000c4020000de
:10030800c4020000c4020000c4020000c4020000cd
:10031800c4020000c4020000c4020000c4020000bd
:10032800c4020000c4020000c4020000c4020000ad
:10033800c4020000c4020000c4020000c40200009d
:10034800c4020000c4020000c4020000c40200008d
:10035800c4020000c4020000c4020000c40200007d
:10036800c4020000c4020000c4020000c40200006d
:10037800c4020000c4020000c4020000c40200005d
:10038800c4020000c4020000c4020000c40200004d
:10039800c4020000c4020000c4020000c40200003d
:1003a800c4020000c4020000c4020000c40200002d
:1003b800c4020000c4020000c4020000c40200001d
:1003c800c4020000c4020000c4020000c40200000d
:1003d800c4020000c4020000c4020000c4020000fd
:1003e800c4020000c4020000c4020000c4020000ed
:0803f800c4020000c402000071
:020000040000fa
:100400000f8020000e7f24000e01880000000000f5
:1004100000012000200288000c000700804c200012
:100420000100200011000700000020000000e00093
:10043000020032000000020000000000da030200a7
:10044000000000000040da000000fe004440a90067
:10045000400520000000e000030032000000200002
:10046000a00188004440a800000006009101880017
:10047000800078000000eb0015003700e2804000ab
:1004800032a0b4009101ba00e280400032a0b40072
:100490009102ba00e280400032a0b4000002eb00fa
:1004a000472bde00f507b200602ce10004003a00a3
:1004b0000059eb008301e900fdff3e000400370016
:1004c0006128e100010032000082eb000400070017
:1004d0001101ba000200e000e8ff3a000000060047
:1004e0003159ba008301e9000c0032002159ba00e9
:1004f0008301e900080032000400e00003003a0034
:10050000e280400032a0b400f5ff370011d9ba00f4
:100510008301e900faff3a008100e800e180400031
:1005200032a0b400000006000000fa008020a900fc
:10053000ffff37000000fa008060a900ffff3700ce
:100540000000fa008040a900ffff37000000fa0019
:100550008080a900ffff37000000fa008020a9007a
:10056000ffff37000000fa008060a900ffff37009e
:100570000000fa008040a900ffff37000000fa00e9
:100580008080a900ffff37000000fa00ffff37005e
:020000040000fa
:10059000000d00000a0000004461000074650000c6
:1005a0003a2000004d610000792000003130000049
:1005b0002032000030310000340000005469000097
:1005c0006d6500003a200000303200003a31000032
:1005d000373a00003037000000570000656c00001b
:1005e000636f00006d650000207400006f20000044
:1005f0004469000067430000616d0000204900006d
:100600006e740000657200006661000063650000a2
:1006100020760000302e000031210000004f000045
:100620004e0000004f460000460000005049000008
:0806300043000000000000007f
:020000040000fa
:100638000200fa00140220004411880084002800f7
:10064800041188000440200014118800e882a800e2
:10065800e8a2a9002535800004fc2f00048262006e
:10066800a400b3002435880085368000f40f2c00e0
:10067800848262000430200004827200843688007c
:100688000200370034118000044f780014118000f4
:1006980061026200e00f5200faff3a000080fa009f
:1006a800000006000000fa001411800004427800df
:1006b800614262000482fb00040078000080fa00b6
:1006c800000006000000fa002222a9000000000035
:1006d8001411800061026200e00f5200fcff32003a
:1006e8003411800004427800044078000080fa0049
:1006f800000006000200fa00a4312800040f780068
:100708002222a9000000000014118000610262008a
:10071800e00f5200fcff3200020037003411800065
:100728001e0f42001411800061026200e00f5200a7
:10073800faff32001e027800040078000080fa00f8
:10074800000006000200fa00004f780000000000d8
:10075800151180000420200004826200e00f52007e
:10076800fbff3a001e02fb00241188000080fa00fb
:10077800000006000200fa00000f780005003700ac
:100788001e027800144278001e0fe800044078002a
:10079800ecff07001e02780014427800e04f520078
:1007a800f7ff3a000080fa00000006000200fa0095
:1007b8005b000700802c2800eeff0700902c280023
:1007c800ecff0700c02c2800eaff0700902c280047
:1007d800e8ff0700e02d2800e6ff0700902c28001e
:1007e800e4ff0700802c2800e2ff0700902c280077
:1007f800e0ff0700d02e2800deff0700902c28001d
:10080800dcff0700802c2800daff0700902c280066
:10081800d8ff07000042eb00044f7800a9ff07004b
:1008280000427800044f78001e02fb00cfa2de00d1
:100838003600200007002000860f5200878f5a00dc
:100848001c003e0004600100030037000700370069
:100858000c00370011003700802c2800c5ff070066
:10086800902c2800c3ff070013003700f030280041
:10087800c0ff0700902c2800beff070039000700c2
:100888000d00370020312800baff0700902c2800ff
:10089800b8ff07003600070007003700603128005e
:1008a800b4ff0700902c2800b2ff070033000700b0
:1008b8000100370000000000d6ff37000000fa00f2
:1008c80040a7a9003600200084072000a5092000c1
:1008d80037742000844b7800854b7800864b78006d
:1008e80016002000640420007505200027742000ed
:1008f800844b7800854b7800864b78000000000018
:10090800153a800004002700848262000400230056
:10091800848f5200faff3a000080fa0000000600b7
:100928000000fa000082eb006419880040ff07000d
:100938000080fa00000006000200fa000042eb0006
:10094800044f78005fff070000427800044f7800ea
:100958001e427800044078007aff07000080fa0001
:10096800000006000000fa000080fa0000000600ff
:100978000000fa000080fa00000006000000fa00fb
:080988000080fa0000000600e7
:020000040000fa
:040990000000000063
:020000040000fa
:020000040005f5
:0457f400ffff0000b3
:020000040000fa
:020000040005f5
:0457f80066a30000a4
:020000040000fa
:020000040005f5
:0457fc007f3e0000ec
:00000001FF
