:020000040000fa
:080000000002040000000000f2
:020000040000fa
:100008009402000094020000940200009402000090
:100018009402000094020000940200009402000080
:100028009402000094020000940200009402000070
:100038009402000094020000940200009402000060
:100048009402000094020000940200004e17000081
:10005800ec160000940200009402000094020000d4
:100068009402000094020000940200009402000030
:100078009402000094020000940200009402000020
:100088009402000094020000940200009402000010
:100098009402000094020000940200009402000000
:1000a80094020000940200009402000094020000f0
:1000b80094020000940200009402000094020000e0
:1000c80094020000940200009402000094020000d0
:1000d80094020000940200009402000094020000c0
:1000e80094020000940200009402000094020000b0
:1000f80094020000940200009402000094020000a0
:10010800940200009402000094020000940200008f
:10011800940200009402000094020000940200007f
:10012800940200009402000094020000940200006f
:10013800940200009402000094020000940200005f
:10014800940200009402000094020000940200004f
:10015800940200009402000094020000940200003f
:10016800940200009402000094020000940200002f
:10017800940200009402000094020000940200001f
:10018800940200009402000094020000940200000f
:1001980094020000940200009402000094020000ff
:1001a80094020000940200009402000094020000ef
:1001b80094020000940200009402000094020000df
:1001c80094020000940200009402000094020000cf
:1001d80094020000940200009402000094020000bf
:1001e80094020000940200009402000094020000af
:0801f8009402000094020000d3
:020000040000fa
:10020800940200009402000094020000940200008e
:10021800940200009402000094020000940200007e
:10022800940200009402000094020000940200006e
:10023800940200009402000094020000940200005e
:100248009402000094020000940200004e1700007f
:10025800ec160000940200009402000094020000d2
:10026800940200009402000094020000940200002e
:10027800940200009402000094020000940200001e
:10028800940200009402000094020000940200000e
:1002980094020000940200009402000094020000fe
:1002a80094020000940200009402000094020000ee
:1002b80094020000940200009402000094020000de
:1002c80094020000940200009402000094020000ce
:1002d80094020000940200009402000094020000be
:1002e80094020000940200009402000094020000ae
:1002f800940200009402000094020000940200009e
:10030800940200009402000094020000940200008d
:10031800940200009402000094020000940200007d
:10032800940200009402000094020000940200006d
:10033800940200009402000094020000940200005d
:10034800940200009402000094020000940200004d
:10035800940200009402000094020000940200003d
:10036800940200009402000094020000940200002d
:10037800940200009402000094020000940200001d
:10038800940200009402000094020000940200000d
:1003980094020000940200009402000094020000fd
:1003a80094020000940200009402000094020000ed
:1003b80094020000940200009402000094020000dd
:1003c80094020000940200009402000094020000cd
:1003d80094020000940200009402000094020000bd
:1003e80094020000940200009402000094020000ad
:0803f8009402000094020000d1
:020000040000fa
:100400002fcb20000e7f24000e018800000000008a
:1004100000012000200288000c000700e075210088
:100420000100200011000700000020000000e00093
:10043000020032000000020000000000fa0c02007e
:10044000000000000040da000000fe004440a90067
:10045000801820000000e0000300320000002000af
:10046000a00188004440a800000006009101880017
:10047000800078000000eb0015003700e2804000ab
:1004800032a0b4009101ba00e280400032a0b40072
:100490009102ba00e280400032a0b4000002eb00fa
:1004a000472bde00f507b200602ce10004003a00a3
:1004b0000059eb008301e900fdff3e000400370016
:1004c0006128e100010032000082eb000400070017
:1004d0001101ba000200e000e8ff3a000000060047
:1004e0003159ba008301e9000c0032002159ba00e9
:1004f0008301e900080032000400e00003003a0034
:10050000e280400032a0b400f5ff370011d9ba00f4
:100510008301e900faff3a008100e800e180400031
:1005200032a0b400000006000040da000000fe0027
:10053000000278008042eb00b4cf1200fdff3a00c9
:100540000080ea0000004200000006000c00fa00f3
:10055000889fbe0000047800f4ff2700d4bf9f00ee
:100560008004eb0099bf9f0088bf9f00a8bf9f0039
:10057000240c2000b4bf9f0078815700cfb09700b3
:1005800070805700070007000fba9700094a7800eb
:100590000fba9700080052004f04be000080fa0016
:1005a000000006002f03b000889fbe008a9fbe0097
:1005b0008c9fbe008e1f7800e0af9f00c1af9f00f0
:1005c000b2b79f008006eb006e023700cfa89700fd
:1005d0008100e800c1af9f0054c2b300844f5000b7
:1005e00006003a00010278000006eb0001c3b300e8
:1005f00000c2b300b7c2b300070037000000fb0021
:10060000efa897006b020700e10f40005d02320087
:100610008d06e8005b0237008402780034437800de
:10062000d2c2b300824f53000900320005003c00e3
:10063000804f530008003200874f53000c003a00ef
:1006400007003700814f530009003a0006003700c9
:100650000c30a000f0ff37000c00a000eeff3700c8
:100660000c10a000ecff37000c20a000eaff3700c0
:1006700062026600010032000c00a1006802660000
:10068000010032000c20a1000602fb000403b100af
:10069000e90f52000c003e00050378000002eb0059
:1006a0006a22b900b603fb000703b10004824300cd
:1006b000860278009603fb000703b100e98f530020
:1006c000f7ff3600080037000002eb00a7c2b300b6
:1006d000874f530004003a00bfb1970043027800ef
:1006e000b3b79f008502e8000007eb00e6c2b30045
:1006f000954f13000a003a000ce0a0006443530039
:10070000d54f1300020032000503780008003700bf
:100710003fb3970046077800b6b79f008502e80010
:1007200005037800080037006a70b90000874300ad
:1007300086027800b603fb000703b100e98f53007f
:10074000f9ff3600f6ff3700b6427800c6af9f00cb
:10075000c0c6b30080cf5200250032000f003c001d
:1007600036c6b30086cf52006e00320004003c0053
:10077000e0cf5200080232006b4353000f003700f5
:1007800046c6b30086cf52001700320065434300cf
:1007900086cf520083003a001300370036c7b300fb
:1007a00086cf52001f00320007003c006443530014
:1007b00086cf5200140032000643e80086cf520074
:1007c00078003a001300370056c7b30086cf5200b6
:1007d000790032006343430086cf520071003a0033
:1007e000a5c79f000d003700a5c79f007400370004
:1007f000f00366000501200001003200050028001a
:1008000005067600d0ff3700a5c79f000c60a0004a
:100810006b003700a5c79f000c50a0000c70a00013
:1008200067003700a5c79f00bfb09700c1027800de
:10083000b1b79f0005047800e08f520001003a0034
:10084000c8c72000080378008002eb0001003700d1
:100850008502e800e6c37a00e0cf5300fcff3a00cf
:1008600085047800e00f570003003200890f57001d
:10087000010031008e0478000007eb00890f520060
:1008800001003600090752006806660014003a00ad
:1008900007003700efa8970000022000c5010700fd
:1008a000e10f4000010032008d06e8000e07e9006c
:1008b000e00f5700f7ff3a000087eb000800370011
:1008c000080278003400fb0004047800efa89700c9
:1008d000b8010700e10f4000010032008d06e8007a
:1008e000090278008404e900e00f5200f4ff3a00a6
:1008f000e00f5600a301320007003700efa8970071
:1009000000022000ab010700e10f400001003200af
:100910008d06e8000e07e900e00f5700f7ff3a00e8
:10092000980137003fb19700c2027800b2b79f002c
:1009300005007800cf80de00010178008201780098
:10094000f0af9f0081b79f0092b79f00a3b79f00b1
:100950004800de00c80add0000807200a0c79f00ca
:100960007003660009003200e04f500007003200bb
:10097000e14f400005003200b0c79f006fdb9700d9
:10098000c6c79f002900200003003700efdb970057
:10099000b7c79f001900200038fc2f000f04440047
:1009a000b0ff3700a5c79f0028fc2f000f044400ac
:1009b00019002000abff3700a5c79f000c0cb30047
:1009c0008c027800050cb2002b003a00e00f5600b4
:1009d00005003d003fb097004005be004004be004a
:1009e000b0b79f0017003700f00266000f0032001a
:1009f000bfb297004501be00b5b79f00c2a79f00d8
:100a0000d3a79f000503780096029000cfaade00ce
:100a1000e5a79f00f5a79f004fa49700dfa49700cc
:100a20006fa59700ffa59700060037003fb097001d
:100a300040047800b0b79f00cfc4de0009057800fd
:100a40008a057800e00f5400e08f5c00e00f5d0045
:100a5000e08f5d0025003d003c00b3006000b80061
:100a60006011b80008045000898458000a05590034
:100a70008b8559001d003700e00f560005003d0032
:100a8000bfb097004105be004104be00b1b79f0052
:100a900016003700f00266000e003200bfb2970069
:100aa0004501be00b5b79f0082af9f0093af9f0086
:100ab0000003eb00a6af9f008003eb00b7af9f00e1
:100ac0000fac97009fac97002fad9700bfad97007c
:100ad000060037003fb0970040047800b0b79f0091
:100ae000090020000a0020000b002000e00f570042
:100af00007003a001e002000e00f5400e08f5c0069
:100b0000e00f5d00e08f5d00010032000007eb00a8
:100b10008c007800010cb200f1af9f0005042000aa
:100b2000858f50002c00320003003c00e08f500005
:100b3000080032003c003700050820007fa997001c
:100b4000850f510010003200050c2000850f510068
:100b500035003a0026bc200015c0b3003600be00a8
:100b60003601be000040e10001c8e10002d0e10012
:100b700003d8e1002b0039008542e800f4cf520091
:100b8000f6ff3a002700370015c0b300000120002f
:100b9000010020006011b8000040e10001c8e10040
:100ba00002d0e10003d8e1001e0039004600200019
:100bb0000000d0008180d2000281d2008381d20067
:100bc0000603e900faff3a008542e800f0cf520040
:100bd000f1ff3a001300370015c0b3008000200079
:100be000010020006011b8000040e10001c8e100f0
:100bf00002d0e10003d8e1000a00390037002000ec
:100c00000000d0008180d2000281d2008381d20016
:100c10008703e900faff3a008542e800f5cf520069
:100c2000f1ff3a00a5c79f002fc097008002fb008c
:100c30008e8f520002003d00aec79f0003003700b8
:100c4000850f570001003d0005077800e00f5200b6
:100c500003003200e3026600010032000402e900f2
:100c60000500240085026600050032008e0f520048
:100c7000020034000e025200010037000002eb00b7
:100c80002fc197008202fb008001eb00d3af9f00d1
:100c9000850f52000200340085025200d5af9f003c
:100ca000640266002c003200e20266006102660007
:100cb000e08f520006003200b0022000e00f520028
:100cc000010032000080e800efa897000400370020
:100cd000e00f520006003200efa89700000220004b
:100ce000b4000700e10f4000010032008d06e8006b
:100cf0005faa9700e00f52008d0032000802be008c
:100d00000a03be00dfac9700efa8970000032000a5
:100d1000c4b79f00d5b79f00e6b79f00f7b79f0005
:100d2000a40007004fb29700dfb297006fb397009f
:100d3000ffb39700e10f4000010032008d06e8008c
:100d40008904e900f0ff3a00d9af9f000605be0014
:100d50000404be0076003700dfaa9700e08f52003f
:100d6000180032006802660016003a000802be0051
:100d70000a03be00dfac9700efa897000002200036
:100d8000c4b79f00d5b79f00e6b79f00f7b79f0095
:100d9000880007004fb29700dfb297006fb397004b
:100da000ffb39700e10f4000010032008d06e8001c
:100db0008904e900f0ff3a00d9af9f000605be00a4
:100dc0000404be00e202660061026600e08f520089
:100dd00006003200b0022000e00f52000100320095
:100de0000080e800efa8970004003700e00f5200f1
:100df0004f003200efa89700000220006d000700ae
:100e0000e10f40004a0032008d06e800480037003c
:100e10000e07e9007fab970007042000870f5300ff
:100e20002d00320003003c00e00f530008003200a8
:100e300037003700040820007fae9700840f56006b
:100e400012003200040c2000840f560030003a00db
:100e50004372dd00a0bb2000000242005403be002c
:100e60004402be000800be000a01be00b401070033
:100e7000a4002000050020006033b800b70107007f
:100e800004c3b3000442400020003700b4c6200071
:100e9000bfa29700e08f520001003200a4c52000dd
:100ea000c272dd000800be000a01be008502e90032
:100eb000050033008301d1000281d3008180d3007b
:100ec0000080d300f9ff37006f00600064407800b5
:100ed000a0c79f000e0037006372b9000800be0073
:100ee0000a01be00040678000c06e9000500330084
:100ef0008301d1000281d3008180d3000080d30020
:100f0000f9ff3700674260000443b000a4c79f00a8
:100f1000afc097000100fb00efa897002500070075
:100f2000e10f4000060032008d06e80004003700a3
:100f30000c0178000202b200b2a79f008cbf9f0094
:100f4000e00f5700b2ff3a000fbe97006806660038
:100f50000c003200dfa99700e08f51000900340037
:100f600003067800efa89700000220001100070098
:100f7000e10f4000010032008d06e8000c06e90098
:100f8000f8ff3a004faa970014407800a0c79f00ce
:100f9000e04f50008dfd3a000d0078004f077800bb
:100fa0004f06be004f05be004f04be002f03b10028
:100fb00000000600889fbe000104780038029000ff
:100fc000e20262008084eb003b0032000403780000
:100fd0000620b2009802900002003a00e08f520012
:100fe00035003a000490a000340498008004780092
:100ff000f90fb200e08f520002003a00a802900000
:10100000050c7800ea8f540005003a000408b2008d
:1010100003003a0088007800d0002000e5ff0700b8
:1010200018029000d8029000850f52000b00320089
:101030000402e8001404980018027800094a7800b5
:10104000040ce80015c0b300a4ca2000054a7800cb
:10105000ea8f540018003a00050037008800780035
:10106000094078001700070080047800120037005c
:10107000380290000410b2000f00320018019000f6
:10108000a80090004800900052000700180290004d
:10109000840f500004003200380290000403b300b3
:1010a000340498008084eb000002eb0014049800e4
:1010b00028029000040c7800090078004f04be005c
:1010c000000006000200fa00889fbe00a0ff9f00fb
:1010d0000104780038029000840278000504b20010
:1010e000020032000000fb0035003700e20262001f
:1010f00005003a000403b300340498001504980076
:101100000080eb002e003700d8049000e08f5400e0
:1011100006003a0012002000e680570048009000c8
:101120002c0007001904980023003700a802900043
:10113000e08f520008003a00d5ca2000250498002c
:10114000050c78002500200055049800150498002f
:101150000430a0003404980018019000a80090000a
:10116000480090001b000700280290008082eb00de
:1011700015049800affa9700054a7800040ce800bf
:101180002ffa9700ea4f52000b003a003802900005
:101190000410b2000800320018019000a80090006e
:1011a000480090000b0007000002eb0014049800b8
:1011b000a8029000050c78002ffa97000400fb00ad
:1011c0004f04be000080fa000000060000c0da00f4
:1011d000000006000a00fa00e20f500022003e0064
:1011e00084658000e10f5200060032008723200052
:1011f000462320002423200005232000e08f5300f5
:1012000004003a00872220004622200024222000e9
:1012100005222000000028001500600003003a00ad
:10122000800b780007002800958a73000540200095
:101230009482620001003a0014a0a00082027800ab
:1012400006003700940378000710b200fdff32005b
:10125000b103fb00070b78008502e900e08f520024
:10126000f8ff3a000800370034002000b4bf9f00a8
:10127000c0bf9f00d1bf9f00e2bf9f006a805700a0
:10128000d2ff07006fb99700020078000080fa00d3
:1012900000000600889fbe008a9fbe003004be008a
:1012a0002005be000404440085844c0006054d0062
:1012b00087854d000898be000a90be000440e100fa
:1012c00005c8e10006d0e10007d8e10002003100c6
:1012d000680040001008e8004f05be004f04be0043
:1012e000000006001000fa00889fbe008a9fbe0022
:1012f0000605be000404be003002be002003be008e
:10130000c4b79f00d5b79f00e6b79f00f7b79f000f
:101310000802520089825a000a035b008b835b003b
:1013200084bf9f0095bf9f00a6bf9f00b7bf9f00cf
:101330000498be000698be00110020004fb297002e
:10134000dfb297006fb39700ffb397000820e1006a
:1013500009a8e1000ab0e1000bb8e1000100390082
:101360008000eb00108810004f05be004f04be0047
:101370000080fa00000006001400fa00889fbe00fa
:101380008a9fbe008c9fbe003f0007000605be007e
:101390000404be000006eb00ccb79f00bcb79f0062
:1013a000acb79f009cb79f008cb79f000d04200036
:1013b0004fb39700bfb29700860343002fb2970048
:1013c000e00f530004003d003d0007000f00400007
:1013d000b0ff070003003700390007000f0040008e
:1013e000c0ff0700cfb2970095bf9f00e08f52006b
:1013f000090035002b000700140020000500200024
:101400006033b80000007200818072000201730036
:10141000838173001c0007000c06e8008d0f560046
:10142000e3ff3a001fba9700e00f520005003d00ad
:101430000802be000a03be0000fe2f000f0040009d
:1014400094ff07004faa9700e00f520008003a00ef
:101450000fb497009fb497002fb59700bfb59700c2
:10146000d8b79f00e9b79f00fab79f008bbf9f00d6
:101470000c0007004f06be004f05be004f04be0023
:101480000080fa00000006000100070000000600ce
:1014900090b79f00a1b79f00b2b79f00c3b79f004e
:1014a0000000060001000700000006001fb09700c2
:1014b000afb097003fb19700cfb197000000060092
:1014c0004f2bde0087037300a7b79f004f23de007a
:1014d000858242008502730095b79f00ffaa97009e
:1014e0004f2bde00040242000402730084b79f0009
:1014f0006faa97004f23de008582420085027300a9
:10150000f5af9f00e9ff07004f18de00040242001c
:1015100000027200e4af9f00e4ff070000004000fb
:10152000818048000201490083814900d8ff0700fb
:101530000802be000a03be0000fe2f0000000600e5
:10154000881f780018002000881f78008aff070095
:101550008f87e9004f04780000000600801feb0031
:1015600085ff07008f87e90000000600889fbe0006
:101570008a9fbe00e00f5000e08f5800e00f590036
:10158000e08f59000c003d006044b8006055b80081
:101590000000540081805c0002015d0083815d00d9
:1015a000180020001500070008003d001800070083
:1015b0000004eb00050037000004eb000f000700fb
:1015c00002003d001200070018002000dcff0700a9
:1015d000e00f5400060032006022b8006033b8000b
:1015e0000000520081805a0002015b0083815b0091
:1015f0004f05be004f04be0000000600e00f520081
:10160000e08f5a00e00f5b00e08f5b0000000600f7
:101610006044b8006055b8000402540085825c0044
:1016200006035d0087835d0000000600889fbe0002
:101630008a9fbe008c1f7800e00f5000e08f58009a
:10164000e00f5900e08f59000d003d006044b800e4
:101650006055b8000000540081805c0002015d000c
:1016600083815d001c0020000820e10009a8e10042
:101670000ab0e1000bb8e1000d003d0008003700a2
:101680000006eb00e00f5200e08f5a00e00f5b0015
:10169000e08f5b0006003d006044b8006055b80074
:1016a0000402540085825c0006035d0087835d00b0
:1016b000aaff0700e00f5600060032006022b800c3
:1016c0006033b8000000520081805a0002015b00c4
:1016d00083815b004f0678004f05be004f04be00bb
:0416e0000000060000
:020000040000fa
:1016e40050720000696e0000746900006e670000ab
:1016f40020720000656700006973000074650000d3
:10170400727300003a200000000d00000a0000007f
:101714004465000076690000636500002043000012
:101724006f6e0000747200006f6c000020520000a5
:101734006567000069730000746500007220000092
:101744004c690000737400002028000052650000fa
:1017540067690000737400006572000020300000a7
:1017640078460000462000003d200000307800004c
:1017740030310000290000000952000065670000b4
:10178400203000007825000073000000203d000098
:10179400203000007825000073000000446500003c
:1017a4007669000063650000204300006f6e00004e
:1017b400747200006f6c0000205200006567000026
:1017c4006973000074650000722000004c69000019
:1017d400737400002028000052650000676900004f
:1017e4007374000065720000203000007846000029
:1017f400462000003d20000030780000303000001a
:10180400290000005265000073650000746900003f
:101814006e67000020630000616d000065720000c7
:10182400612e00002e2e00000047000065740000a9
:10183400746900006e67000020630000616d0000a1
:101844006572000061200000737400006174000080
:10185400757300002e2e00002e000000504f000073
:1018640057450000523a000020090000090000001a
:101874004f4e0000004f000046460000005200009a
:1018840045530000455400003a20000009090000b7
:1018940000500000434c00004b3a000020090000b7
:1018a4000900000048520000454600003a200000ac
:1018b4000909000000560000535900004e4300007f
:1018c4003a200000090900000057000049440000c4
:1018d400544800003a20000009090000256c00006b
:1018e40075000000484500004947000048540000c6
:1018f4003a200000092500006c750000004e00002d
:1019040042590000544500004c4900004e45000077
:101914003a200000092500006c750000004e00000c
:1019240048530000594e0000433a000020090000cb
:10193400256c0000750000004e4200005954000060
:10194400455400004f540000414c00003a20000070
:10195400092500006c75000000540000616b000054
:10196400696e000067200000706900006374000065
:1019740075720000652e00002e2e0000000a000083
:10198400446f00006e6500002100000054750000e3
:10199400726e0000696e0000672000006f66000030
:1019a40066200000636100006d6500007261000044
:1019b4002e2e00002e000000446f00006e65000013
:1019c4002100000054750000726e0000696e000072
:1019d400672000006f6e000020630000616d00004e
:1019e40065720000612e00002e2e00000000000031
:020000040000fa
:1019f4003800fa00970107000100370000000000da
:101a0400c45d8000e00f5200fcff32000002eb00d6
:101a1400c45d8800af040700004278004447980082
:101a2400e0cfb300b20407004e4290000482fb00f2
:101a3400cfa2de007600200007002000860f5200af
:101a4400878f5a007d013e00046001007d0137004c
:101a54007001370065013700fa003700670037006e
:101a64006c003700350037000000370020b728002d
:101a7400ab04070070b82800a9040700a0b8280028
:101a8400a704070070b82800a504070011c0b3001c
:101a940000c0eb00310307000002eb00040f7800e4
:101aa40021003700018120001e0078007101070029
:101ab40004812000841f7800e4bb2800841f780080
:101ac40000802000a0fa0700e4875700008020006f
:101ad400930407001e027800044278000440780052
:101ae4002b030700004278000482fb0001812000e0
:101af400040078005f01070004812000841f78003f
:101b040084bc2800841f7800008020008efa07001f
:101b1400e4875700008020008104070070b8280083
:101b24007f0407001e0fe800e40f20009e027800e7
:101b3400848f5200dbff34004301370000bd2800ce
:101b44007704070070b82800750407008040eb0094
:101b540000c0eb00010307000002eb00040f780053
:101b640021003700018120001e0078004101070098
:101b740004812000841f7800e4bb2800841f7800bf
:101b84000080200070fa0700e487570000802000de
:101b9400630407001e0278000442780004407800c1
:101ba400fb020700004278000482fb000181200050
:101bb400040078002f01070004812000841f7800ae
:101bc40084bc2800841f7800008020005efa07008f
:101bd400e4875700008020005104070070b82800f3
:101be4004f0407001e0fe800e40f20009e02780057
:101bf400848f5200dbff34001301370040c02800fb
:101c04004704070070b82800450407008b0107004b
:101c14000d01370070c128004104070070b8280086
:101c24003f040700020407007a024700040078001a
:101c3400cd0107000304070000c32800380407008f
:101c44005e0a9000e00f520005003200a0c3280095
:101c54003304070070b8280031040700040037007b
:101c6400d0c328002e04070070b828002c040700f5
:101c740010c428002a0407006e0a9000e00f5200e6
:101c840005003200a0c328002504070070b828000e
:101c94002304070004003700d0c3280020040700f1
:101ca40070b828001e040700b0c428001c040700f4
:101cb4007e0a9000e00f520005003200a0c3280005
:101cc4001704070070b82800150407000400370043
:101cd400d0c328001204070070b8280010040700bd
:101ce40040c528000e0407000e129000e00f5200b9
:101cf40005003200a0c328000904070070b82800ba
:101d04000704070004003700d0c3280004040700b8
:101d140070b8280002040700d0c52800000407009a
:101d24001e129000e00f520005003200a0c32800ec
:101d3400fb03070070b82800f9030700040037000c
:101d4400d0c32800f603070070b82800f403070086
:101d54002e129000be129000849fbe0074c628000c
:101d6400841f780000802000f7f90700e6875700f9
:101d740000802000ea03070070b82800e803070089
:101d84004e129000de129000849fbe0044c72800cb
:101d9400841f780000802000ebf90700e6875700d5
:101da40000802000de03070070b82800dc03070071
:101db4006e129000fe129000849fbe0014c828008a
:101dc400841f780000802000dff90700e6875700b1
:101dd40000802000d203070070b82800d003070059
:101de4000e1a90009e1a9000849fbe0014c9280009
:101df400841f780000802000d3f90700e68757008d
:101e040000802000c603070070b82800c403070040
:101e14002e1a9000be1a9000849fbe00e4c92800c8
:101e2400841f780000802000c7f90700e687570068
:101e340000802000ba03070070b82800b803070028
:101e440081003700f0ca2800b503070070b82800e5
:101e5400b3030700d0cfb300a50307000002eb00d3
:101e6400040f7800580037007103070041812000f7
:101e74001e007800e6010700720307000002eb0071
:101e8400140798004b0037001e02900084024200a1
:101e940044812000048242009402780035079800af
:101ea4003e029000c722dd00f40f2000048262008d
:101eb40044079800be0290000400240004826200db
:101ec4004822de0054079800be029000040022005d
:101ed400048262004822de0064079800be0290007b
:101ee40004002100048262004822de007407980086
:101ef400be02900004802000048262004822de00ba
:101f0400040f9800be029000044020000482620086
:101f14004822de00140f9800be0290000420200026
:101f2400048262004822de00240f9800be02900062
:101f340004102000048262004822de00340f98005e
:101f44004e029000844278005e02900004427800c1
:101f540084c272006e0290000442780084c272004f
:101f64007e0290000442780084c272000e0a90003f
:101f74000442780084c272001e0a90000442780071
:101f840084c272002e0a90000442780084c2720057
:101f94003e0a90000442780004c27200045f980074
:101fa4000e589000520307001e0290000402e8003d
:101fb400140798009e029000f4182000848f5200a9
:101fc400b1ff34001e0fe800b41220009e02780016
:101fd400848f5200a4ff340010cc28005003070063
:101fe40070b828004e0307001700370080cc280083
:101ff4004b03070070b8280049030700d30107000a
:10200400e0cd28004603070070b828004403070009
:102014000d00370040ce28004103070070b82800a7
:102024003f030700c4010700e0cd28003c0307007c
:1020340070b828003a0307000300370000000000ce
:10204400010037000000000000c0eb002803070077
:102054006bfe37000000fa000082eb006419880070
:10206400fd0207003b0207005e0007000080fa0043
:10207400000006000a00fa003007980041079800a3
:1020840004032300240798000002eb00040f7800e7
:1020940044003700be029000040120001100090032
:1020a4008402d80001027800140798001e029000f0
:1020b4006123b90064ff2f00f5ff2f0006024200e0
:1020c40087824a005600200007002000860f520035
:1020d400878f5a0025003e00046001000500370088
:1020e400090037000d0037001100370015003700d4
:1020f40019003700640247009e02420014c4b30072
:10210400844a780020003700640247009e0242009f
:1021140024c4b300844a78001b00370064024700db
:102124009e02420034c4b300844a7800160037008b
:10213400640247009e02420044c4b300844a78000b
:1021440011003700640247009e02420054c4b300e9
:10215400844a78000c003700640247009e02420063
:1021640064c4b300844a7800070037001e0290005c
:10217400044278000443b000e40247009e82420017
:10218400844a7800000000001e0fe800be029000a0
:1021940004012000110009008402d8000002780024
:1021a400340798003e029000e00f5200b9ff3a0055
:1021b4005e429000ce029000844a78004e02900065
:1021c4008402e8004e429000844a78004e02900057
:1021d4008482e8000042eb00844a78000080fa0020
:1021e400000006000000fa00c862a900c882a90025
:1021f400d802a800e862a800d962a800c802a80012
:10220400c9c2a800c9a2a800c982a800c962a800be
:10221400c942a800c922a800c902a800c8a2a800ef
:10222400c842a80004002900743a8800420107004b
:10223400020007000080fa00000006000000fa0017
:1022440011c0b30000c0eb004401070001c8b30093
:1022540020c1b300410107004006200087030700a6
:1022640011c0b30000c0eb003c01070001c1b30082
:1022740020c1b3003901070011c1b30070c1b3001c
:102284003601070061c0b30030c0b300330107005a
:1022940031c4b30080c1b300300107008040eb00bb
:1022a40090c1b3002d01070071c9b300a0c1b300f0
:1022b4002a01070091c0b30020c3b300270107001f
:1022c40061c0b30030c0b300240107008040eb00bc
:1022d40000c0eb002101070080c0eb00c0c2b300c6
:1022e4001e010700f1cdb300e0c2b3001b010700db
:1022f40011c0b30000c0eb001801070031c2b300e5
:1023040010c1b300150107000080fa0000000600a8
:102314000000fa005416800068026200e00f5200c8
:10232400020032000002eb0001003700140020001c
:10233400040078000080fa00000006000000fa00a3
:102344005416800070026200e00f52000200320056
:102354000002eb00010037001400200004007800a4
:102364000080fa00000006001e00fa00881f7800b2
:1023740000047800e6ff070000027800040f7800ec
:10238400eeff0700000278001407980043000700de
:1023940000027800240798007e00070000027800fd
:1023a400340798005c000700000278004407980096
:1023b40004192000050020005407980065079800c0
:1023c400c41220000500200074079800050f98002f
:1023d4002e029000e00f52001f0032003e029000d7
:1023e400e00f52001c0032004e029000e00f520039
:1023f40019003200f50007000002be00140f980017
:10240400250f9800230107000002be00340f980036
:10241400450f98001e0b9000ae0b90003e0a9000f2
:10242400ce0a900004b8b9000000780006a9b900eb
:10243400820078000100400006037800040278005e
:102444000432b8000500400080027800540f980060
:10245400650f9800090037006022b800140f980037
:10246400250f98006022b800340f9800450f98009b
:102474006022b800540f9800650f98000e00090000
:102484003e1c7800e801b100ee01b10008007800bc
:102494004f0478000080fa00000006000600fa00ed
:1024a400d4168000044278006142620044479800d8
:1024b4006022b800048fbe000d003700d4168000df
:1024c4000442780061426200844278004e429000e7
:1024d40084cf520002003200140020000b003700a9
:1024e40014002000050020001e0f42005e974a00e1
:1024f400f4342c00050020001e03be00840f53009a
:10250400858f5b00edff34000002eb0004007800cf
:102514000080fa00000006000600fa00d4168000cd
:102524004b22de0061426200444798006022b800fa
:10253400048fbe000d003700d41680004b22de004d
:1025440061426200844278004e42900084cf52007f
:1025540002003200140020000b0037001400200099
:10256400050020001e0f42005e974a00f4072f006a
:10257400a52f20001e03be00840f5300858f5b002f
:10258400edff34000002eb00040078000080fa0044
:10259400000006000600fa00541780004322de0003
:1025a40061426200444798006022b800048fbe0074
:1025b4000d003700541780004322de0061426200a0
:1025c400844278004e42900084cf520002003200d0
:1025d400140020000b003700140020000500200028
:1025e4001e0f42005e974a00f4072f00a52f20001b
:1025f4001e03be00840f5300858f5b00edff340083
:102604000002eb00040078000080fa0000000600dd
:102614000600fa0010079800210798000000000047
:10262400d51680000480200004826200e00f52006e
:10263400fbff320000000000d5168000048020005b
:1026440004826200e00f5200fbff3a000002eb003c
:10265400040f78000b0037000000000054178000be
:1026640068026200e00f5200fcff3200000000002c
:102674005417800068026200e00f5200fcff3a0029
:102684001e0fe8001e0290009e027800848f520004
:10269400f1ff35000000000054178000680262005a
:1026a400e00f5200fcff32000002eb00040f780040
:1026b4001b00370000000000d41680006102620095
:1026c400e00f5200fcff3a0000000000d416800026
:1026d40061026200e00f5200fcff32001e0278002b
:1026e40004024200ae0290000482420055168000ab
:1026f400050a780000000000d41680006102620020
:10270400e00f5200fcff3a0000000000d4168000e5
:1027140061026200e00f5200fcff32001e0fe8006d
:10272400f41820009e027800848f5200e1ff3400e8
:102734000080fa00000006000000fa00ca62a90046
:10274400ca82a8000080fa00000006000000fa0017
:10275400ca62a8000080fa00000006000400fa0023
:1027640020479800314798000042eb00044f78005e
:102774003e419000ae40900000c3b300d00007007b
:1027840000427800044f78000080fa000000060040
:102794000400fa00204798000042eb00044f780040
:1027a4000e02e80004017800ae40900000c3b300bc
:1027b400e900070000427800044f78001e429000b0
:1027c400044078000080fa00000006000400fa00cb
:1027d4006022b800048fbe0000000000d5168000ff
:1027e4000480200004826200e00f5200fbff3200ec
:1027f40000000000d51680000480200004826200de
:10280400e00f5200fbff3a00000000005417800064
:1028140068026200e00f5200fcff3a000000000072
:102824005417800068026200e00f5200fcff32007f
:102834006022b800048fbe000e00370000000000c4
:10284400d416800061026200e00f5200fcff3a00df
:1028540000000000d416800061026200e00f520004
:10286400fcff320014002000050020001e0f42006f
:102874005e974a005417800068026200e00f52001d
:10288400eeff3a001e02be000400be000080fa0003
:10289400000006000400fa006022b800048fbe00a5
:1028a40000000000d516800004802000048262002d
:1028b400e00f5200fbff320000000000d51680003c
:1028c4000480200004826200e00f5200fbff3a0003
:1028d4001300370000000000d5168000048020009b
:1028e40004826200e00f520004003a005417800092
:1028f40068026200e00f5200f7ff3200140020006b
:10290400050020001e0f42005e974a0000000000f0
:102914005417800068026200e00f5200fcff3a0086
:10292400d51680000480200004826200e00f52006b
:10293400e8ff32000082eb008082eb001e0f4200b1
:102944005e974a001e02be000400be000080fa002a
:10295400000006000000fa000742a9000782a9004f
:102964000002eb00541088000002eb0064108800a1
:102974000702a900540220002410880007e2a800de
:102984000080fa00000006000000fa000602a80019
:10299400000000003410800061026200e00f520069
:1029a400fcff3a000080fa00000006000000fa0074
:1029b4000642a80000000000341080006402620097
:1029c400e00f5200fcff3a000080fa00000006000d
:1029d4000000fa000622a800000000003410800065
:1029e40062026200e00f5200fcff3a000080fa002d
:1029f400000006000000fa0006a2a8000682a80053
:102a0400000000003410800070026200e00f5200e9
:102a1400fcff3a0006a2a9000080fa0000000600ac
:102a24000000fa0006a2a9000682a8000000000027
:102a34003410800070026200e00f5200fcff3a0084
:102a44000080fa00000006000200fa00004f78003f
:102a54009e4278000582fb001410880000000000ec
:102a6400451080000400240004826200e00f52003c
:102a7400fbff3a00441080000482ea004f22de008b
:102a840004427800044078000080fa000000060048
:102a94000000fa000662a800000000004410800054
:102aa40062026200e00f5200fcff3200041080005a
:102ab40004427800044078000080fa000000060018
:102ac4000600fa00204798003147980042479800d2
:102ad4000042eb00044f7800abff07002e42900049
:102ae4000442420004407800d7ff07000042780007
:102af4000482fb000402e9004f22de000442780055
:102b04001e4f42003e409000cfff07000042780075
:102b14000482fb000402e9004f22de000442780034
:102b24001e4f42004e409000c7ff0700004278004d
:102b34000482fb000402e9004f22de000442780014
:102b44001e4f420099ff07001e427800044078009f
:102b54000080fa00000006000600fa0020479800f2
:102b640031479800220798000042eb00044f780098
:102b740085ff07002e429000044242000440780082
:102b8400b1ff0700004278000482fb000402e90060
:102b94004f22de00044278001e4f42003e40900067
:102ba400a9ff0700004278000482fb000402e90048
:102bb4004f22de00044278001e4f420072ff0700dd
:102bc4002e4290000482fb0004024200044278007a
:102bd4000404a000044078009bff07000042780032
:102be4000482fb000402e9004f22de000442780064
:102bf4001e4f42001e427800e04f52000300320094
:102c04006aff07001e42780006003700a0ff070095
:102c140000427800ae029000844a780063ff070007
:102c24001e427800044078000080fa00000006008c
:102c34000000fa009560a9009580a9000080fa00c0
:102c4400000006000000fa009560a8009580a80026
:102c54000080fa00000006000200fa0014022000be
:102c640044118800840028000411880004402200d4
:102c7400141188009560a8009580a800e882a80037
:102c8400e8a2a9002535800004fc2f00048262001c
:102c9400a400b3002435880085368000f40f2c008e
:102ca400848262000430200004827200843688002a
:102cb4000200370034118000044f780014118000a2
:102cc40061026200e00f5200faff3a000080fa004d
:102cd400000006000000fa002222a900341180003e
:102ce40004427800044078000080fa0000000600e6
:102cf4000200fa00004f780000000000b45d80007c
:102d0400e00f5200fdff3a0014002000b45d88007b
:102d14001e02fb00241188000080fa000000060057
:102d24000600fa00200798002e009000fff5070027
:102d340000027800140798009e029000f407200017
:102d4400848f5200020034000082eb001e00370022
:102d540000000000b45d8000e00f5200fdff3a0067
:102d640014002000040f78000c003700a65d8000da
:102d74001e027800ae0290000482420014427800e1
:102d840045b3200085024300844a7800a45d800096
:102d94000402e800a45d88001e0fe8001e029000f3
:102da4009e027800848f5200f0ff3500140020004a
:102db400b45d88002e029000144278000402fb00e7
:102dc400241188000002eb00040078000080fa005f
:102dd40000000600849fbe000200fa008580a9005e
:102de400b45d8000e00f520025003200a45d800035
:102df400e00f520003003a000002eb00b45d8800cb
:102e040022003700a45d8000e00f52001e00340051
:102e140044b32000144278000402fb00241188000b
:102e2400a45d80000402e900a45d88000002eb00b8
:102e3400040f7800080037009e02e80044b3200025
:102e4400048242001442780045b320009e8242006e
:102e5400844a78001e0fe800a45d80009e0278007a
:102e6400848f5200f4ff3500a55d800044b3200038
:102e7400848242000042eb00844a78000300370059
:102e84000000000001003700000000000080fa008c
:102e94004f02be0000400600841f78000000fa00c4
:102ea40014002000c45d88008560a9000080fa0039
:082eb4004f0278000040060007
:020000040000fa
:102ebc00b80b00000200000002000000000000003f
:102ecc00000800003403000000000000340b000078
:102edc008000000000000000b40b000004000000a3
:102eec000200000000000000000000005a0c00006e
:102efc002a0000000200000030313200333435006b
:102f0c003637380039414200434445004600300012
:102f1c0031323300343536003738390061626300a2
:102f2c006465660000286e00756c6c00290000005a
:102f3c00ba0b0000a000000002000000010000001d
:102f4c000000000000000a0000000000000000006b
:102f5c00006400000000000000000000e803000016
:102f6c00000000000000100027000000000000001e
:102f7c0000a08600010000000000000040420f008d
:102f8c000000000000008000969800000000000087
:102f9c000000e100f50500000000000000ca9a00e6
:102fac003b00000000000000e40b54000200000095
:102fbc000000e80076481700000000000010a50093
:102fcc00d4e8000000000000a0724e0018090000b8
:102fdc00000040007a10f3005a0000000080c60088
:102fec00a47e8d000300000000c16f00f286230058
:102ffc00000000008a5d7800456301000000640059
:10300c00a7b3b600e00d000000e889000423c70058
:10301c008a000000aa0c000006000000000000005e
:10302c00840c00002600000002000000ab0c000025
:10303c0000ab0c000900000000020000ad0c000009
:10304c0000ad0c000e0201000000000000000000aa
:10305c00000000000602020000000000840c0000ca
:10306c00b00c000002000000020000000100000093
:04307c000000000050
:020000040000fa
:103080000200fa00000f78000400280024088800dd
:10309000070037000002eb00040888000000000071
:1030a00005088000f4e72300848f5200fcff3600ff
:1030b0001e02780004f0a7000402ea000402ea00fd
:1030c0004f22de00044278001e0fe900e04f52005c
:1030d000f0ff3a000080fa00000006000200fa004b
:1030e000000f78000400280024088800060037003c
:1030f0000002eb00040888000000000004088000c3
:10310000ef0f5200fdff36001e02780004f0a7000a
:103110000402ea000402ea004f22de0004427800c2
:103120001e0fe900e04f5200f1ff3a000080fa0064
:043130000000060095
:020000040000fa
:020000040005f5
:0457f400ffff0000b3
:020000040000fa
:020000040005f5
:0457f80066a30000a4
:020000040000fa
:020000040005f5
:0457fc007f3e0000ec
:00000001FF
