:020000040000fa
:080000000002040000000000f2
:020000040000fa
:10000800c4020000940200009a020000a00200004e
:10001800a6020000c4020000c4020000c4020000de
:10002800c4020000c4020000c4020000c4020000b0
:10003800c4020000c4020000c4020000c4020000a0
:10004800c4020000c4020000c4020000c402000090
:10005800c4020000c4020000c4020000c402000080
:10006800c4020000c4020000c4020000c402000070
:10007800c4020000c4020000c4020000c402000060
:10008800c4020000c4020000c4020000c402000050
:10009800c4020000c4020000c4020000c402000040
:1000a800c4020000c4020000c4020000c402000030
:1000b800c4020000c4020000c4020000c402000020
:1000c800c4020000c4020000c4020000c402000010
:1000d800c4020000c4020000c4020000c402000000
:1000e800c4020000c4020000c4020000c4020000f0
:1000f800c4020000c4020000c4020000c4020000e0
:10010800c4020000c4020000c4020000c4020000cf
:10011800c4020000c4020000c4020000c4020000bf
:10012800c4020000c4020000c4020000c4020000af
:10013800c4020000c4020000c4020000c40200009f
:10014800c4020000c4020000c4020000c40200008f
:10015800c4020000c4020000c4020000c40200007f
:10016800c4020000c4020000c4020000c40200006f
:10017800c4020000c4020000c4020000c40200005f
:10018800c4020000c4020000c4020000c40200004f
:10019800c4020000c4020000c4020000c40200003f
:1001a800c4020000c4020000c4020000c40200002f
:1001b800c4020000c4020000c4020000c40200001f
:1001c800c4020000c4020000c4020000c40200000f
:1001d800c4020000c4020000c4020000c4020000ff
:1001e800c4020000c4020000c4020000c4020000ef
:0801f800c4020000c402000073
:020000040000fa
:10020800c4020000ac020000b2020000b802000004
:10021800be020000c4020000c4020000c4020000c4
:10022800c4020000c4020000c4020000c4020000ae
:10023800c4020000c4020000c4020000c40200009e
:10024800c4020000c4020000c4020000c40200008e
:10025800c4020000c4020000c4020000c40200007e
:10026800c4020000c4020000c4020000c40200006e
:10027800c4020000c4020000c4020000c40200005e
:10028800c4020000c4020000c4020000c40200004e
:10029800c4020000c4020000c4020000c40200003e
:1002a800c4020000c4020000c4020000c40200002e
:1002b800c4020000c4020000c4020000c40200001e
:1002c800c4020000c4020000c4020000c40200000e
:1002d800c4020000c4020000c4020000c4020000fe
:1002e800c4020000c4020000c4020000c4020000ee
:1002f800c4020000c4020000c4020000c4020000de
:10030800c4020000c4020000c4020000c4020000cd
:10031800c4020000c4020000c4020000c4020000bd
:10032800c4020000c4020000c4020000c4020000ad
:10033800c4020000c4020000c4020000c40200009d
:10034800c4020000c4020000c4020000c40200008d
:10035800c4020000c4020000c4020000c40200007d
:10036800c4020000c4020000c4020000c40200006d
:10037800c4020000c4020000c4020000c40200005d
:10038800c4020000c4020000c4020000c40200004d
:10039800c4020000c4020000c4020000c40200003d
:1003a800c4020000c4020000c4020000c40200002d
:1003b800c4020000c4020000c4020000c40200001d
:1003c800c4020000c4020000c4020000c40200000d
:1003d800c4020000c4020000c4020000c4020000fd
:1003e800c4020000c4020000c4020000c4020000ed
:0803f800c4020000c402000071
:020000040000fa
:100400002f8020000e7f24000e01880000000000d5
:1004100000012000200288000c000700004320009b
:100420000100200011000700000020000000e00093
:10043000020032000000020000000000fa03020087
:10044000000000000040da000000fe004440a90067
:10045000200020000000e000030032000000200027
:10046000a00188004440a800000006009101880017
:10047000800078000000eb0015003700e2804000ab
:1004800032a0b4009101ba00e280400032a0b40072
:100490009102ba00e280400032a0b4000002eb00fa
:1004a000472bde00f507b200602ce10004003a00a3
:1004b0000059eb008301e900fdff3e000400370016
:1004c0006128e100010032000082eb000400070017
:1004d0001101ba000200e000e8ff3a000000060047
:1004e0003159ba008301e9000c0032002159ba00e9
:1004f0008301e900080032000400e00003003a0034
:10050000e280400032a0b400f5ff370011d9ba00f4
:100510008301e900faff3a008100e800e180400031
:1005200032a0b400000006000000fa008020a900fc
:10053000ffff37000000fa008060a900ffff3700ce
:100540000000fa008040a900ffff37000000fa0019
:100550008080a900ffff37000000fa008020a9007a
:10056000ffff37000000fa008060a900ffff37009e
:100570000000fa008040a900ffff37000000fa00e9
:100580008080a900ffff37000000fa00ffff37005e
:020000040000fa
:040590000000000067
:020000040000fa
:100594000200fa001402200044118800840028009c
:1005a400041188000440200014118800e882a80087
:1005b400e8a2a9002535800004fc2f000482620013
:1005c400a400b3002435880085368000f40f2c0085
:1005d4008482620004302000048272008436880021
:1005e4000200370034118000044f78001411800099
:1005f40061026200e00f5200faff3a000080fa0044
:10060400000006000000fa00141180000442780083
:10061400614262000482fb00040078000080fa005a
:10062400000006000000fa002222a90000000000d9
:100634001411800061026200e00f5200fcff3200de
:100644003411800004427800044078000080fa00ed
:10065400000006000200fa00842c2800040f780031
:100664002222a9000000000014118000610262002f
:10067400e00f5200fcff320002003700341180000a
:100684001e0f42001411800061026200e00f52004c
:10069400faff32001e027800040078000080fa009d
:1006a400000006000200fa00004f7800000000007d
:1006b400151180000420200004826200e00f520023
:1006c400fbff3a001e02fb00241188000080fa00a0
:1006d400000006000200fa00000f78000500370051
:1006e4001e027800144278001e0fe80004407800cf
:1006f400ecff07001e02780014427800e04f52001d
:10070400f7ff3a000080fa00000006000200fa0039
:10071400000f78001e0278002410880007e2a90068
:100724000722a8008620a90007e2a800020007000b
:100734000080fa00000006000200fa000002eb004c
:10074400040f78000642a800040037001e0fe800da
:100754001e027800f40f520005003c0034108000a3
:1007640064026200e00f5200f8ff3a000100370013
:10077400000000000662a9008620a90008e2a90082
:100784000942a9000080fa00000006000000fa00f7
:1007940040a7a9003600200084072000a5092000f6
:1007a40037742000844b7800854b7800864b7800a2
:1007b4001600200064042000750520002774200022
:1007c400844b7800854b7800864b7800000000004d
:1007d400153a80000400270084826200040023008c
:1007e400848f5200faff3a000080fa0000000600ed
:1007f4002200fa000300070080c7b300a9ff070026
:10080400fdff37000000fa000082eb006419880045
:100814005fff07000080fa00000006000000fa00f5
:100824000080fa00000006000000fa000080fa00d0
:10083400000006000000fa000080fa000000060034
:100844000200fa00000f78000080fa0000000600a1
:0c0854000000fa000080fa00000006001e
:020000040000fa
:100860000008000002000000020000006400000018
:040870000000000084
:020000040000fa
:020000040005f5
:0457f400ffff0000b3
:020000040000fa
:020000040005f5
:0457f80066a30000a4
:020000040000fa
:020000040005f5
:0457fc007f3e0000ec
:00000001FF
