:020000040000fa
:080000000002040000000000f2
:020000040000fa
:10000800c4020000940200009a020000a00200004e
:10001800a6020000c4020000c4020000c4020000de
:10002800c4020000c4020000c4020000c4020000b0
:10003800c4020000c4020000c4020000e81300006b
:10004800c4020000c4020000c4020000c402000090
:10005800c4020000c4020000c4020000c402000080
:10006800c4020000c4020000c4020000c402000070
:10007800c4020000c4020000c4020000c402000060
:10008800c4020000c4020000c4020000c402000050
:10009800c4020000c4020000c4020000c402000040
:1000a800c4020000c4020000c4020000c402000030
:1000b800c4020000c4020000c4020000c402000020
:1000c800c4020000c4020000c4020000c402000010
:1000d800c4020000c4020000c4020000c402000000
:1000e800c4020000c4020000c4020000c4020000f0
:1000f800c4020000c4020000c4020000c4020000e0
:10010800c4020000c4020000c4020000c4020000cf
:10011800c4020000c4020000c4020000c4020000bf
:10012800c4020000c4020000c4020000c4020000af
:10013800c4020000c4020000c4020000c40200009f
:10014800c4020000c4020000c4020000c40200008f
:10015800c4020000c4020000c4020000c40200007f
:10016800c4020000c4020000c4020000c40200006f
:10017800c4020000c4020000c4020000c40200005f
:10018800c4020000c4020000c4020000c40200004f
:10019800c4020000c4020000c4020000c40200003f
:1001a800c4020000c4020000c4020000c40200002f
:1001b800c4020000c4020000c4020000c40200001f
:1001c800c4020000c4020000c4020000c40200000f
:1001d800c4020000c4020000c4020000c4020000ff
:1001e800c4020000c4020000c4020000c4020000ef
:0801f800c4020000c402000073
:020000040000fa
:10020800c4020000ac020000b2020000b802000004
:10021800be020000c4020000c4020000c4020000c4
:10022800c4020000c4020000c4020000c4020000ae
:10023800c4020000c4020000c4020000e813000069
:10024800c4020000c4020000c4020000c40200008e
:10025800c4020000c4020000c4020000c40200007e
:10026800c4020000c4020000c4020000c40200006e
:10027800c4020000c4020000c4020000c40200005e
:10028800c4020000c4020000c4020000c40200004e
:10029800c4020000c4020000c4020000c40200003e
:1002a800c4020000c4020000c4020000c40200002e
:1002b800c4020000c4020000c4020000c40200001e
:1002c800c4020000c4020000c4020000c40200000e
:1002d800c4020000c4020000c4020000c4020000fe
:1002e800c4020000c4020000c4020000c4020000ee
:1002f800c4020000c4020000c4020000c4020000de
:10030800c4020000c4020000c4020000c4020000cd
:10031800c4020000c4020000c4020000c4020000bd
:10032800c4020000c4020000c4020000c4020000ad
:10033800c4020000c4020000c4020000c40200009d
:10034800c4020000c4020000c4020000c40200008d
:10035800c4020000c4020000c4020000c40200007d
:10036800c4020000c4020000c4020000c40200006d
:10037800c4020000c4020000c4020000c40200005d
:10038800c4020000c4020000c4020000c40200004d
:10039800c4020000c4020000c4020000c40200003d
:1003a800c4020000c4020000c4020000c40200002d
:1003b800c4020000c4020000c4020000c40200001d
:1003c800c4020000c4020000c4020000c40200000d
:1003d800c4020000c4020000c4020000c4020000fd
:1003e800c4020000c4020000c4020000c4020000ed
:0803f800c4020000c402000071
:020000040000fa
:100400000f9420000e7f24000e01880000000000e1
:1004100000012000200288000c000700a0702100cd
:100420000100200011000700000020000000e00093
:10043000020032000000020000000000141602005a
:10044000000000000040da000000fe004440a90067
:10045000201520000000e000030032000000200012
:10046000a00188004440a800000006009101880017
:10047000800078000000eb0015003700e2804000ab
:1004800032a0b4009101ba00e280400032a0b40072
:100490009102ba00e280400032a0b4000002eb00fa
:1004a000472bde00f507b200602ce10004003a00a3
:1004b0000059eb008301e900fdff3e000400370016
:1004c0006128e100010032000082eb000400070017
:1004d0001101ba000200e000e8ff3a000000060047
:1004e0003159ba008301e9000c0032002159ba00e9
:1004f0008301e900080032000400e00003003a0034
:10050000e280400032a0b400f5ff370011d9ba00f4
:100510008301e900faff3a008100e800e180400031
:1005200032a0b400000006000000fa008020a900fc
:10053000ffff37000000fa008060a900ffff3700ce
:100540000000fa008040a900ffff37000000fa0019
:100550008080a900ffff37000000fa008020a9007a
:10056000ffff37000000fa008060a900ffff37009e
:100570000000fa008040a900ffff37000000fa00e9
:100580008080a900ffff37000000fa00ffff37005e
:100590000c00fa00889fbe0000047800f4ff2700da
:1005a000d4bf9f008004eb0099bf9f0088bf9f00cd
:1005b000a8bf9f00240c2000b4bf9f007881570083
:1005c000cfb0970070805700070007000fba970060
:1005d000094a78000fba9700080052004f04be0085
:1005e0000080fa00000006002f03b000889fbe00c4
:1005f0008a9fbe008c9fbe008e1f7800e0af9f00d8
:10060000c1af9f00b2b79f008006eb006e023700bb
:10061000cfa897008100e800c1af9f0054c2b3008b
:10062000844f500006003a00010278000006eb00fb
:1006300001c3b30000c2b300b7c2b3000700370064
:100640000000fb00efa897006b020700e10f4000dd
:100650005d0232008d06e8005b02370084027800fc
:1006600034437800d2c2b300824f530009003200f5
:1006700005003c00804f530008003200874f5300b4
:100680000c003a0007003700814f530009003a0080
:10069000060037000c30a000f0ff37000c00a0006f
:1006a000eeff37000c10a000ecff37000c20a0007c
:1006b000eaff370062026600010032000c00a10070
:1006c00068026600010032000c20a1000602fb0057
:1006d0000403b100e90f52000c003e00050378004e
:1006e0000002eb006a22b900b603fb000703b10069
:1006f00004824300860278009603fb000703b100e2
:10070000e98f5300f7ff3600080037000002eb00c6
:10071000a7c2b300874f530004003a00bfb197004f
:1007200043027800b3b79f008502e8000007eb00a2
:10073000e6c2b300954f13000a003a000ce0a00097
:1007400064435300d54f13000200320005037800c4
:10075000080037003fb3970046077800b6b79f0000
:100760008502e80005037800080037006a70b900c8
:100770000087430086027800b603fb000703b10040
:10078000e98f5300f9ff3600f6ff3700b6427800d4
:10079000c6af9f00c0c6b30080cf52002500320014
:1007a0000f003c0036c6b30086cf52006e00320008
:1007b00004003c00e0cf5200080232006b435300bb
:1007c0000f00370046c6b30086cf52001700320034
:1007d0006543430086cf520083003a001300370080
:1007e00036c7b30086cf52001f00320007003c001e
:1007f0006443530086cf5200140032000643e800e1
:1008000086cf520078003a001300370056c7b30075
:1008100086cf5200790032006343430086cf5200f6
:1008200071003a00a5c79f000d003700a5c79f00c3
:1008300074003700f003660005012000010032005b
:100840000500280005067600d0ff3700a5c79f00e9
:100850000c60a0006b003700a5c79f000c50a000e3
:100860000c70a00067003700a5c79f00bfb09700bd
:10087000c1027800b1b79f0005047800e08f5200f4
:1008800001003a00a8902000080378008002eb00e5
:10089000010037008502e800e6c37a00e0cf53008c
:1008a000fcff3a0085047800e00f57000300320097
:1008b000890f5700010031008e0478000007eb001b
:1008c000890f5200010036000907520068066600d1
:1008d00014003a0007003700efa89700000220003c
:1008e000c5010700e10f4000010032008d06e8005d
:1008f0000e07e900e00f5700f7ff3a000087eb0012
:1009000008003700080278003400fb000404780077
:10091000efa89700b8010700e10f40000100320086
:100920008d06e800090278008404e900e00f520017
:10093000f4ff3a00e00f5600a30132000700370031
:10094000efa8970000022000ab010700e10f400074
:10095000010032008d06e8000e07e900e00f5700a5
:10096000f7ff3a00980137003fb19700c2027800c4
:10097000b2b79f0005007800cf80de00010178004b
:1009800082017800f0af9f0081b79f0092b79f006f
:10099000a3b79f004800de00c80add000080720097
:1009a000a0c79f007003660009003200e04f5000ae
:1009b00007003200e14f400005003200b0c79f0041
:1009c0006fdb9700c6c79f00290020000300370097
:1009d000efdb9700b7c79f001900200038fc2f00fd
:1009e0000f044400b0ff3700a5c79f0028fc2f006c
:1009f0000f04440019002000abff3700a5c79f007b
:100a00000c0cb3008c027800050cb2002b003a00ed
:100a1000e00f560005003d003fb097004005be00c6
:100a20004004be00b0b79f0017003700f002660018
:100a30000f003200bfb297004501be00b5b79f005e
:100a4000c2a79f00d3a79f000503780096029000dd
:100a5000cfaade00e5a79f00f5a79f004fa497004f
:100a6000dfa497006fa59700ffa597000600370049
:100a70003fb0970040047800b0b79f00cfc4de00bd
:100a8000090578008a057800e00f5400e08f5c00cb
:100a9000e00f5d00e08f5d0025003d003c00b300ed
:100aa0006000b8006011b800080450008984580044
:100ab0000a0559008b8559001d003700e00f5600cc
:100ac00005003d00bfb097004105be004104be00d7
:100ad000b1b79f0016003700f00266000e0032002a
:100ae000bfb297004501be00b5b79f0082af9f001f
:100af00093af9f000003eb00a6af9f008003eb00c5
:100b0000b7af9f000fac97009fac97002fad970039
:100b1000bfad9700060037003fb097004004780053
:100b2000b0b79f00090020000a0020000b00200041
:100b3000e00f570007003a001e002000e00f5400ad
:100b4000e08f5c00e00f5d00e08f5d00010032008f
:100b50000007eb008c007800010cb200f1af9f00a1
:100b600005042000858f50002c00320003003c005b
:100b7000e08f5000080032003c00370005082000dc
:100b80007fa99700850f510010003200050c20004e
:100b9000850f510035003a000685200015c0b300ce
:100ba0003600be003601be000040e10001c8e10091
:100bb00002d0e10003d8e1002b0039008542e800b3
:100bc000f4cf5200f6ff3a002700370015c0b300fb
:100bd00000012000010020006011b8000040e10089
:100be00001c8e10002d0e10003d8e1001e00390095
:100bf000460020000000d0008180d2000281d20097
:100c00008381d2000603e900faff3a008542e8003a
:100c1000f0cf5200f1ff3a001300370015c0b300c7
:100c200080002000010020006011b8000040e100b9
:100c300001c8e10002d0e10003d8e1000a00390058
:100c4000370020000000d0008180d2000281d20055
:100c50008381d2008703e900faff3a008542e80069
:100c6000f5cf5200f1ff3a00a5c79f002fc09700b3
:100c70008002fb008e8f520002003d00aec79f0035
:100c800003003700850f570001003d00050778007d
:100c9000e00f520003003200e30266000100320060
:100ca0000402e90005002400850266000500320008
:100cb0008e0f5200020034000e0252000100370075
:100cc0000002eb002fc197008202fb008001eb00c5
:100cd000d3af9f00850f52000200340085025200fe
:100ce000d5af9f00640266002c003200e20266006d
:100cf00061026600e08f520006003200b002200060
:100d0000e00f5200010032000080e800efa89700d9
:100d100004003700e00f520006003200efa89700f1
:100d200000022000b4000700e10f40000100320083
:100d30008d06e8005faa9700e00f52008d00320098
:100d40000802be000a03be00dfac9700efa89700c0
:100d500000032000c4b79f00d5b79f00e6b79f00ef
:100d6000f7b79f00a40007004fb29700dfb29700cb
:100d70006fb39700ffb39700e10f4000010032000e
:100d80008d06e8008904e900f0ff3a00d9af9f0022
:100d90000605be000404be0076003700dfaa9700f7
:100da000e08f5200180032006802660016003a0018
:100db0000802be000a03be00dfac9700efa8970050
:100dc00000022000c4b79f00d5b79f00e6b79f0080
:100dd000f7b79f00880007004fb29700dfb2970077
:100de0006fb39700ffb39700e10f4000010032009e
:100df0008d06e8008904e900f0ff3a00d9af9f00b2
:100e00000605be000404be00e20266006102660040
:100e1000e08f520006003200b0022000e00f5200c6
:100e2000010032000080e800efa8970004003700be
:100e3000e00f52004f003200efa8970000022000a0
:100e40006d000700e10f40004a0032008d06e80007
:100e5000480037000e07e9007fab97000704200029
:100e6000870f53002d00320003003c00e00f5300b9
:100e70000800320037003700040820007fae9700da
:100e8000840f560012003200040c2000840f56001c
:100e900030003a004372dd008084200000024200ee
:100ea0005403be004402be000800be000a01be009a
:100eb000b4010700a4002000050020006033b80042
:100ec000b701070004c3b30004424000200037000c
:100ed000948f2000bfa29700e08f520001003200e3
:100ee000848e2000c272dd000800be000a01be0030
:100ef0008502e900050033008301d1000281d3009f
:100f00008180d3000080d300f9ff37006f006000bc
:100f100064407800a0c79f000e0037006372b900dc
:100f20000800be000a01be00040678000c06e900b5
:100f3000050033008301d1000281d3008180d300fa
:100f40000080d300f9ff3700674260000443b0001f
:100f5000a4c79f00afc097000100fb00efa8970057
:100f600025000700e10f4000060032008d06e80072
:100f7000040037000c0178000202b200b2a79f0003
:100f80008cbf9f00e00f5700b2ff3a000fbe9700e2
:100f9000680666000c003200dfa99700e08f510060
:100fa0000900340003067800efa897000002200033
:100fb00011000700e10f4000010032008d06e8003b
:100fc0000c06e900f8ff3a004faa97001440780099
:100fd000a0c79f00e04f50008dfd3a000d00780043
:100fe0004f0778004f06be004f05be004f04be00fd
:100ff0002f03b10000000600889fbe0001047800a6
:1010000038029000e20262008084eb003b00320074
:10101000040378000620b2009802900002003a0013
:10102000e08f520035003a000490a000340498008c
:1010300080047800f90fb200e08f520002003a00fd
:10104000a8029000050c7800ea8f540005003a00d1
:101050000408b20003003a0088007800d0002000a5
:10106000e5ff070018029000d8029000850f52009b
:101070000b0032000402e800140498001802780003
:10108000094a7800040ce80015c0b30084932000de
:10109000054a7800ea8f540018003a00050037002e
:1010a0008800780009407800170007008004780065
:1010b00012003700380290000410b2000f00320016
:1010c00018019000a800900048009000520007000e
:1010d00018029000840f5000040032003802900083
:1010e0000403b300340498008084eb000002eb009a
:1010f0001404980028029000040c7800090078007d
:101100004f04be00000006000200fa00889fbe00e7
:10111000a0ff9f000104780038029000840278004c
:101120000504b200020032000000fb003500370069
:10113000e202620005003a000403b30034049800a0
:10114000150498000080eb002e003700d8049000b2
:10115000e08f540006003a0012002000e68057009d
:10116000480090002c000700190498002300370065
:10117000a8029000e08f520008003a00b5932000ca
:1011800025049800050c78002500200055049800df
:10119000150498000430a000340498001801900051
:1011a000a8009000480090001b0007002802900053
:1011b0008082eb0015049800affa9700054a78008a
:1011c000040ce8002ffa9700ea4f52000b003a0097
:1011d000380290000410b20008003200180190009c
:1011e000a8009000480090000b0007000002eb00f0
:1011f00014049800a8029000050c78002ffa9700bc
:101200000400fb004f04be000080fa00000006004e
:1012100000c0da00000006000a00fa00e20f5000e9
:1012200022003e00f4498000e10f52000600320027
:1012300087232000462320002423200005232000ac
:10124000e08f530004003a0087222000462220004d
:101250002422200005222000000028001500600044
:1012600003003a00800b780007002800958a73007d
:10127000054020009482620001003a0014a0a00002
:101280008202780006003700940378000710b2004d
:10129000fdff3200b103fb00070b78008502e90077
:1012a000e08f5200f8ff3a000800370034002000b9
:1012b000b4bf9f00c0bf9f00d1bf9f00e2bf9f008f
:1012c0006a805700d2ff07006fb9970002007800cc
:1012d0000080fa0000000600889fbe008a9fbe00c2
:1012e0003004be002005be000404440085844c0088
:1012f00006054d0087854d000898be000a90be0087
:101300000440e10005c8e10006d0e10007d8e10093
:1013100002003100680040001008e8004f05be00e0
:101320004f04be00000006001000fa00889fbe00b7
:101330008a9fbe000605be000404be003002be0047
:101340002003be00c4b79f00d5b79f00e6b79f003b
:10135000f7b79f000802520089825a000a035b0017
:101360008b835b0084bf9f0095bf9f00a6bf9f003b
:10137000b7bf9f000498be000698be001100200071
:101380004fb29700dfb297006fb39700ffb397009b
:101390000820e10009a8e1000ab0e1000bb8e10073
:1013a000010039008000eb00108810004f05be00de
:1013b0004f04be000080fa00000006001400fa008e
:1013c000889fbe008a9fbe008c9fbe003f00070022
:1013d0000605be000404be000006eb00ccb79f006b
:1013e000bcb79f00acb79f009cb79f008cb79f0015
:1013f0000d0420004fb39700bfb29700860343004f
:101400002fb29700e00f530004003d003d0007009d
:101410000f004000b0ff070003003700390007004d
:101420000f004000c0ff0700cfb2970095bf9f009c
:10143000e08f5200090035002b0007001400200047
:10144000050020006033b800000072008180720047
:1014500002017300838173001c0007000c06e80082
:101460008d0f5600e3ff3a001fba9700e00f5200bd
:1014700005003d000802be000a03be0000fe2f006a
:101480000f00400094ff07004faa9700e00f5200a2
:1014900008003a000fb497009fb497002fb597004b
:1014a000bfb59700d8b79f00e9b79f00fab79f0074
:1014b0008bbf9f000c0007004f06be004f05be000b
:1014c0004f04be000080fa00000006000100070083
:1014d0000000060090b79f00a1b79f00b2b79f0021
:1014e000c3b79f00000006000100070000000600cf
:1014f0001fb09700afb097003fb19700cfb19700f2
:10150000000006004f2bde0087037300a7b79f0083
:101510004f23de00858242008502730095b79f004d
:10152000ffaa97004f2bde00040242000402730062
:1015300084b79f006faa97004f23de008582420088
:1015400085027300f5af9f00e9ff07004f18de002a
:101550000402420000027200e4af9f00e4ff0700b3
:101560000000400081804800020149008381490059
:10157000d8ff07000802be000a03be0000fe2f00cd
:1015800000000600881f780018002000881f7800df
:101590008aff07008f87e9004f04780000000600eb
:1015a000801feb0085ff07008f87e9000000060021
:1015b000889fbe008a9fbe00e00f5000e08f580059
:1015c000e00f5900e08f59000c003d006044b80066
:1015d0006055b8000000540081805c0002015d008d
:1015e00083815d00180020001500070008003d0001
:1015f000180007000004eb00050037000004eb00b2
:101600000f00070002003d00120007001800200034
:10161000dcff0700e00f5400060032006022b80033
:101620006033b8000000520081805a0002015b0064
:1016300083815b004f05be004f04be000000060022
:10164000e00f5200e08f5a00e00f5b00e08f5b007c
:10165000000006006044b8006055b8000402540061
:1016600085825c0006035d0087835d000000060044
:10167000889fbe008a9fbe008c1f7800e00f50003c
:10168000e08f5800e00f5900e08f59000d003d0039
:101690006044b8006055b8000000540081805c00d0
:1016a00002015d0083815d001c0020000820e10034
:1016b00009a8e1000ab0e1000bb8e1000d003d000f
:1016c000080037000006eb00e00f5200e08f5a00e0
:1016d000e00f5b00e08f5b0006003d006044b80057
:1016e0006055b8000402540085825c0006035d006a
:1016f00087835d00aaff0700e00f56000600320056
:101700006022b8006033b8000000520081805a00a7
:1017100002015b0083815b004f0678004f05be002d
:081720004f04be0000000600aa
:020000040000fa
:101728005468000065200000766100006c750000b8
:10173800652000006f6600002070000061720000e4
:10174800616d000065740000657200002070000083
:10175800206900007320000025640000000d0000cf
:101768000a000000526500007365000074690000fb
:101778006e67000020630000616d00006572000064
:10178800612e00002e2e000000500000206900008d
:1017980073200000736500007421000000540000ed
:1017a8006865000020630000616d0000657200003c
:1017b8006120000069730000206f00006e210000a6
:1017c800005400006865000020630000616d00009f
:1017d800657200006120000069730000206f00003e
:1017e80066660000210000005468000065200000c3
:1017f800636100006d6500007261000020690000ef
:10180800732000006f6e00002072000065730000f6
:101818006574000021000000546800006520000085
:10182800636100006d6500007261000020690000be
:10183800732000006e6f0000742000006f6e0000bf
:10184800207200006573000065740000210000002c
:10185800546100006b6900006e6700002070000092
:101868006963000074750000726500002e2e000088
:101878002e000000446f00006e650000210000008b
:1018880054750000726e0000696e00006720000049
:101898006f66000066200000636100006d6500004f
:1018a800726100002e2e00002e000000547500000a
:1018b800726e0000696e0000672000006f6e000005
:1018c80020630000616d000065720000612e000059
:1018d8002e2e000000000000434100004d5f000074
:1018e800444100005441000020250000640000002d
:1018f800203e00003e3e0000000d00000a000000ef
:1019080000430000414d00005f50000044570000b4
:101918004d2000002d3e0000203000000043000054
:10192800414d00005f52000045530000455400003f
:10193800202d00003e20000031000000434100003f
:101948004d5f000050440000574d0000202d00005e
:101958003e20000031000000496e000020430000d6
:10196800616d000057720000697400006500000096
:1019780072650000675f0000616400006472000027
:10198800202500006400000064610000746100000c
:10199800202500006400000065720000726f0000de
:1019a8007220000025640000004900006e2000003d
:1019b800436100006d520000656100006400000092
:0419c800000000001b
:020000040000fa
:1019cc000c00fa0030079800410798005207980065
:1019dc00ce0290005e02900004aab9008402780046
:1019ec0064432000048f42001e02780024479800b4
:1019fc001e0278004822de00344798003e02900018
:101a0c0024079800ae02900024c4b300844a7800e6
:101a1c002e0290000402e80024079800ae02900009
:101a2c00d4c4b300844a78002e0290000402e8006b
:101a3c00240798002e029000ae429000054a7800d0
:101a4c002e0290000402e800240798002e02900059
:101a5c00be429000054a78002e0290000402e80075
:101a6c0024079800ae0290000042eb00844a7800f4
:101a7c002e0290000402e80024079800ae029000a9
:101a8c000042eb00844a78002e0290000402e80029
:101a9c0024079800ae0290000042eb00844a7800c4
:101aac002e0290000402e80024079800ae02900079
:101abc000042eb00844a78002e0290000402e800f9
:101acc0024079800ae0290000042eb00844a780094
:101adc002e0290000402e80024079800ae02900049
:101aec000042eb00844a78002e0290000402e800c9
:101afc0024079800ae02900064c3b300844a7800b7
:101b0c002e0290000402e80024079800ae02900018
:101b1c0044c0b300844a78002e0290000402e8000e
:101b2c0024079800ae0290000042eb00844a780033
:101b3c002e0290000402e80024079800ae029000e8
:101b4c000042eb00844a78002e0290000402e80068
:101b5c00240798000080fa00000006000c00fa0030
:101b6c003007980041079800520798004e029000e9
:101b7c00044f78004e0290004822de001447980073
:101b8c005e029000244798005e0290004822de001e
:101b9c00344798003e02900024079800ae02900053
:101bac0084c2b300844a78002e0290000402e8003c
:101bbc0024079800ae0290000042eb00844a7800a3
:101bcc002e0290000402e80024079800ae02900058
:101bdc000042eb00844a78002e0290000402e800d8
:101bec0024079800ae0290000042eb00844a780073
:101bfc002e0290000402e800240798002e029000a8
:101c0c00ae429000054a78002e0290000402e800d3
:101c1c00240798002e029000be429000054a7800de
:101c2c002e0290000402e80024079800ae029000f7
:101c3c000042eb00844a78002e0290000402e80077
:101c4c0024079800ae0290000042eb00844a780012
:101c5c002e0290000402e800240798002e02900047
:101c6c001e4a78002e0290000402e8002407980017
:101c7c002e0290009e429000054a78002e029000a1
:101c8c000402e80024079800ae0290000042eb002a
:101c9c00844a78002e0290000402e8002407980081
:101cac00ae0290000042eb00844a78002e029000b5
:101cbc000402e80024079800ae02900014c0b300a0
:101ccc00844a78002e0290000402e8002407980051
:101cdc00ae0290000042eb00844a78002e02900085
:101cec000402e80024079800ae02900084c0b30000
:101cfc00844a78002e0290000402e8002407980021
:101d0c00ae0290000042eb00844a78002e02900054
:101d1c000402e80024079800ae0290000042eb0099
:101d2c00844a78002e0290000402e80024079800f0
:101d3c00ae0290000042eb00844a78002e02900024
:101d4c000402e80024079800ae0290000042eb0069
:101d5c00844a78002e0290000402e80024079800c0
:101d6c00ae0290000042eb00844a78002e029000f4
:101d7c000402e80024079800ae0290000042eb0039
:101d8c00844a78002e0290000402e8002407980090
:101d9c00ae0290000042eb00844a78002e029000c4
:101dac000402e80024079800ae0290000042eb0009
:101dbc00844a78002e0290000402e8002407980060
:101dcc00ae0290000042eb00844a78002e02900094
:101ddc000402e80024079800ae0290000042eb00d9
:101dec00844a78002e0290000402e8002407980030
:101dfc00ae0290000042eb00844a78002e02900064
:101e0c000402e80024079800ae0290000042eb00a8
:101e1c00844a78002e0290000402e80024079800ff
:101e2c00ae0290000042eb00844a78002e02900033
:101e3c000402e80024079800ae0290000042eb0078
:101e4c00844a78002e0290000402e80024079800cf
:101e5c00ae0290000042eb00844a78002e02900003
:101e6c000402e80024079800ae0290000042eb0048
:101e7c00844a78002e0290000402e800240798009f
:101e8c00ae0290000042eb00844a78002e029000d3
:101e9c000402e80024079800ae0290000042eb0018
:101eac00844a78002e0290000402e800240798006f
:101ebc00ae02900014c0b300844a78002e02900049
:101ecc000402e80024079800ae0290000042eb00e8
:101edc00844a78002e0290000402e800240798003f
:101eec00ae0290000042eb00844a78002e02900073
:101efc000402e80024079800ae0290000042eb00b8
:101f0c00844a78002e0290000402e800240798000e
:101f1c00ae0290000042eb00844a78002e02900042
:101f2c000402e80024079800ae0290000042eb0087
:101f3c00844a78002e0290000402e80024079800de
:101f4c00ae0290000042eb00844a78002e02900012
:101f5c000402e800240798000080fa000000060044
:101f6c000800fa0020079800310798002e02900014
:101f7c00040f78000002eb001407980008003700eb
:101f8c001e027800144278000440780054040700c4
:101f9c001e0fe8001e0290000402e80014079800cf
:101fac009e0290003e029000848f5200f4ff350098
:101fbc000080fa00000006000200fa000002eb00ac
:101fcc00040f78000f0037001e02780004427800de
:101fdc0004407800420407001e0278000442780096
:101fec00044078003e0407001e027800044278008a
:101ffc00044078003a0407000040eb003804070066
:10200c001e0fe800f40f20009e027800848f52000f
:10201c00edff34000080fa00000006000400fa0016
:10202c000002eb00040f7800440037000002eb00c4
:10203c00140798003c0037001e0290000442780000
:10204c006522b9000402780004427800044078004c
:10205c00230407001e029000044278006522b90098
:10206c0004027800044278006a424200044078007e
:10207c001b0407001e029000044278006522b90080
:10208c000402780004427800744242000440780054
:10209c00130407001e027800044278000442420038
:1020ac00044078000e0407009e02780079824200fa
:1020bc0004427800044242000440780008040700ff
:1020cc001e029000044278006922b90004027800d4
:1020dc000442780004407800010407001e029000be
:1020ec00044278006922b9000402780004427800a6
:1020fc006a42420004407800f90307001e02900077
:10210c00044278006922b900040278000442780085
:10211c007442420004407800f10307001e02900054
:10212c000402e800140798009e029000b4022000fc
:10213c00848f5200c0ff34001e0fe800340f2000c3
:10214c009e027800848f5200b8ff34000080fa00a1
:10215c00000006000000fa00c9e2a900c862a9004c
:10216c00c882a900d802a900e862a900d962a90016
:10217c00c802a800c9c2a800c9a2a800c982a800a8
:10218c00c962a800c942a800c922a800c902a800b7
:10219c00c8a2a800c842a80004002800743a88000d
:1021ac00a4002000640888003405800004c0a0004e
:1021bc0004d0a10004e0a00034058800040028002d
:1021cc008408880084e0a90094e0a800ea62a900d1
:1021dc00db62a9009d0007000080fa0000000600e9
:1021ec000000fa0020c1b3001f0107000042780074
:1021fc0005c8b300054272008440780020c1b300ca
:10220c00c20007000080fa00000006000000fa007f
:10221c005416800068026200e00f52000200320087
:10222c000002eb00010037001400200004007800cd
:10223c000080fa00000006000000fa00541680002e
:10224c0070026200e00f5200020032000002eb004c
:10225c000100370014002000040078000080fa0010
:10226c00000006000600fa000002eb00040f7800e4
:10227c0070003700db62a80040062000c90307008d
:10228c00db62a9000002eb00140798006400370021
:10229c00ea62a80040062000c2030700ea62a90017
:1022ac000002eb00240798000d003700000000002e
:1022bc00d416800061026200e00f5200fcff3a006d
:1022cc0000000000d416800061026200e00f520092
:1022dc00fcff32002e0290000402e8002407980054
:1022ec002e0290009e0f5200f0ff35005416800015
:1022fc0004427800614262000482fb004722dd0048
:10230c0084427800541680004e22de006142620046
:10231c000482fb004622dd000442780084c2720075
:10232c00541680004d22de00614262000482fb00e4
:10233c004522dd000442780084c2720054168000ed
:10234c004c22de00614262000482fb004422dd006c
:10235c000442780084c27200541680004b22de00c6
:10236c00614262000482fb004322dd0004427800db
:10237c0084c27200541680004a22de006142620060
:10238c000482fb004222dd000442780084c2720009
:10239c00541680004922de00614262000482fb0078
:1023ac00040242000442780084c272005416800079
:1023bc004822de00614262000482fb0004024200fb
:1023cc000442780004c272000482fb00841f78006f
:1023dc0004c72800841f78000080200069f80700db
:1023ec00e487570004428000e00f520007003200df
:1023fc00c0c72800460307000080200044030700e4
:10240c0010c82800420307000200370040c828000b
:10241c003f0307001e0290000402e8001407980016
:10242c009e029000f44a2000848f520098ff3400e2
:10243c001e0fe800f46320009e027800848f520087
:10244c008cff34000080fa00000006000000fa0047
:10245c0004428000e00f520007003200c0c7280081
:10246c002b03070050c828002903070010c82800b8
:10247c00270307000200370040c828002403070088
:10248c00ca62a900ca82a900800c20002e03070092
:10249c0004428000e00f520007003200c0c7280041
:1024ac001b03070030c928001903070010c82800b7
:1024bc00170307000200370040c828001403070068
:1024cc00ca82a8000080fa00000006000000fa0092
:1024dc0004428000e00f520007003200c0c7280001
:1024ec000b03070020ca28000903070010c82800a6
:1024fc00070307000200370040c828000403070048
:10250c00ca62a8000080fa00000006000400fa006d
:10251c0020479800314798000042eb00044f7800a8
:10252c003e419000ae40900000c3b300180107007c
:10253c0000427800044f780004428000e00f520003
:10254c0007003200c0c72800f102070000cb2800aa
:10255c00ef02070010c82800ed0207000200370048
:10256c0040c82800ea0207002e4290000482fb00bb
:10257c00841f7800c4cb2800841f780000802000c2
:10258c0000f80700e487570004428000e00f520077
:10259c0007003200c0c72800dd02070000802000c1
:1025ac00db02070010c82800d90207000200370020
:1025bc0040c82800d60207003e4290000482fb006f
:1025cc00841f780084cc2800841f780000802000b1
:1025dc00ecf70700e487570004428000e00f52003c
:1025ec0007003200c0c72800c90207000080200085
:1025fc00c702070010c82800c502070002003700f8
:10260c0040c82800c20207009e4278000582fb00e9
:10261c00841f780004cd2800841f780000802000df
:10262c00d8f70700e487570004428000e00f5200ff
:10263c0007003200c0c72800b50207000080200048
:10264c00b302070010c82800b102070002003700cf
:10265c0040c82800ae0207001e42780004407800f3
:10266c000080fa00000006000400fa0020479800e1
:10267c000042eb00044f78000e02e80004017800e1
:10268c00ae40900000c3b300e700070000427800a2
:10269c00044f780004428000e00f52000700320023
:1026ac00c0c728009a02070090cd280098020700a6
:1026bc0010c82800960207000200370040c8280006
:1026cc00930207002e4290000482fb00841f7800c6
:1026dc00c4cb2800841f780000802000a9f70700d5
:1026ec00e487570004428000e00f520007003200dc
:1026fc00c0c7280086020700008020008402070063
:10270c0010c82800820207000200370040c82800c9
:10271c007f0207001e4290000482fb00841f780099
:10272c0084cc2800841f78000080200095f70700d7
:10273c00e487570004428000e00f5200070032008b
:10274c00c0c728007202070000802000700207003a
:10275c0010c828006e0207000200370040c828008d
:10276c006b0207009e4278000582fb00841f7800f4
:10277c0004cd2800841f78000080200081f707001a
:10278c00e487570004428000e00f5200070032003b
:10279c00c0c728005e020700008020005c02070012
:1027ac0010c828005a0207000200370040c8280051
:1027bc00570207001e429000044078000080fa0087
:1027cc0000000600849fbe00861f78003400f800cd
:1027dc0004002000a40188000000fa00d416800038
:1027ec00044278006142620004c2ea006142620065
:1027fc000482fb0061026200d6168000e5ff2f0008
:10280c008502630004827200d416880084e0a9005b
:10281c000080fa003400f9004f0378004f02be002c
:10282c00004006000000fa000742a9000782a90038
:10283c000002eb00541088000002eb0064108800ca
:10284c000702a900540220002410880007e2a80007
:10285c000080fa00000006000000fa000602a80042
:10286c00000000003410800061026200e00f520092
:10287c00fcff3a000080fa00000006000000fa009d
:10288c000642a800000000003410800064026200c0
:10289c00e00f5200fcff3a000080fa000000060036
:1028ac000000fa000622a80000000000341080008e
:1028bc0062026200e00f5200fcff3a000080fa0056
:1028cc00000006000000fa0006a2a8000682a8007c
:1028dc00000000003410800070026200e00f520013
:1028ec00fcff3a0006a2a9000080fa0000000600d6
:1028fc000000fa0006a2a9000682a8000000000051
:10290c003410800070026200e00f5200fcff3a00ad
:10291c000080fa00000006000200fa00004f780068
:10292c009e4278000582fb00141088000000000015
:10293c00451080000400240004826200e00f520065
:10294c00fbff3a00441080000482ea004f22de00b4
:10295c0004427800044078000080fa000000060071
:10296c000000fa000662a80000000000441080007d
:10297c0062026200e00f5200fcff32000410800083
:10298c0004427800044078000080fa000000060041
:10299c000600fa00204798003147980042479800fb
:1029ac000042eb00044f7800abff07002e42900072
:1029bc000442420004407800d7ff07000042780030
:1029cc000482fb000402e9004f22de00044278007e
:1029dc001e4f42003e409000cfff0700004278009f
:1029ec000482fb000402e9004f22de00044278005e
:1029fc001e4f42004e409000c7ff07000042780077
:102a0c000482fb000402e9004f22de00044278003d
:102a1c001e4f420099ff07001e42780004407800c8
:102a2c000080fa00000006000600fa00204798001b
:102a3c0031479800220798000042eb00044f7800c1
:102a4c0085ff07002e4290000442420004407800ab
:102a5c00b1ff0700004278000482fb000402e90089
:102a6c004f22de00044278001e4f42003e40900090
:102a7c00a9ff0700004278000482fb000402e90071
:102a8c004f22de00044278001e4f420072ff070006
:102a9c002e4290000482fb000402420004427800a3
:102aac000404a000044078009bff0700004278005b
:102abc000482fb000402e9004f22de00044278008d
:102acc001e4f4200a6ff070000427800ae029000a5
:102adc00844a78007bff070068ff07001e427800dd
:102aec00044078000080fa00000006000800fa009c
:102afc0020479800314798002207980063479800b8
:102b0c000042eb00044f780053ff07002e42900068
:102b1c0004424200044078007fff07000042780026
:102b2c000482fb000402e9004f22de00044278001c
:102b3c001e4f42003e40900077ff07000042780095
:102b4c000482fb000402e9004f22de0004427800fc
:102b5c001e4f420040ff07002e4290000482fb00f3
:102b6c0004024200044278000404a00004407800ef
:102b7c0069ff0700004278000482fb000402e900b0
:102b8c004f22de00044278001e4f42001e427800a5
:102b9c00e04f52000c00320038ff07001e42780054
:102bac001b0037006eff070000427800ae02900059
:102bbc00844a78002e0290000402e8002407980052
:102bcc004bff0700010037000000000014c0b300e9
:102bdc00ee429000e1cf520001003e000042eb00bb
:102bec00ee4290008542e90065479800e04f5200a4
:102bfc00ecff3a005aff070000427800ae0290004a
:102c0c00844a78002fff07001cff07001e42780043
:102c1c00044078000080fa00000006000200fa0070
:102c2c00710007000e01070000427800044f780085
:102c3c000b0107000042780014479800e0cfb30066
:102c4c00270107001e02fb00cfa2de007600200049
:102c5c0007002000860f5200878f5a005c003e0050
:102c6c00046001005c0037004f003700440037005f
:102c7c003900370003003700140037000d0037000f
:102c8c001a00370014428000841f780044b92800d1
:102c9c00841f7800008020003af60700e487570074
:102cac00008020001a01070030bb28001801070023
:102cbc004a00370060bb28001501070030bb280014
:102ccc001301070046fd07004400370090bc2800a4
:102cdc000f01070030bb28000d0107001e429000b9
:102cec000482fb00144288003c00370047fd0700bb
:102cfc0000027800e00f52000500320030bd2800c1
:102d0c000301070030bb2800010107000400370055
:102d1c0050be2800fe00070030bb2800fc00070056
:102d2c0045fd070000027800e00f5200050032005c
:102d3c0080bf2800f600070030bb2800f400070015
:102d4c002600370000c12800f100070030bb280026
:102d5c00ef00070021003700c0c22800ec0007007c
:102d6c0030bb2800ea0007003efd0700e0c3280046
:102d7c00e700070030bb2800e5000700170037000c
:102d8c0040c42800e200070030bb2800e000070028
:102d9c00cefd0700e0c32800dd00070030bb280093
:102dac00db0007000d003700a0c52800d800070085
:102dbc0030bb2800d6000700a4fd0700e0c32800a4
:102dcc00d300070030bb2800d100070003003700f8
:102ddc0000000000010037000000000000c0eb0004
:102dec00bf0007008fff37000000fa000082eb00e5
:102dfc0064198800750007008afe0700d5fc0700df
:082e0c000080fa00000006003e
:020000040000fa
:102e140040080000040000000200000001006400fb
:102e24000000000000080000400000000000000056
:102e340044080000020000000000000046080000f2
:102e4400020000000200000000000000e80800008a
:102e54002a00000002000000303132003334350013
:102e640036373800394142004344450046003000bb
:102e7400313233003435360037383900616263004b
:102e84006465660000286e00756c6c002900000003
:102e940048080000a000000002000000010000003b
:102ea4000000000000000a00000000000000000014
:102eb400006400000000000000000000e8030000bf
:102ec40000000000000010002700000000000000c7
:102ed40000a08600010000000000000040420f0036
:102ee4000000000000008000969800000000000030
:102ef4000000e100f50500000000000000ca9a008f
:102f04003b00000000000000e40b5400020000003d
:102f14000000e80076481700000000000010a5003b
:102f2400d4e8000000000000a0724e001809000060
:102f3400000040007a10f3005a0000000080c60030
:102f4400a47e8d000300000000c16f00f286230000
:102f5400000000008a5d7800456301000000640001
:102f6400a7b3b600e00d000000e889000423c70001
:102f74008a0000003809000006000000000000007c
:102f840012090000260000000200000039090000b8
:102f94000039090009000000000200003b0900009c
:102fa400003b09000e0201000000000000000000c8
:102fb40000000000060202000000000012090000e8
:102fc4003e090000020000000200000001000000b1
:042fd40000000000f9
:020000040000fa
:102fd8000200fa001402200044118800840028002e
:102fe800041188000440200014118800e882a80019
:102ff800e8a2a9002535800004fc2f0004826200a5
:10300800a400b3002435880085368000f40f2c0016
:1030180084826200043020000482720084368800b2
:103028000200370034118000044f7800141180002a
:1030380061026200e00f5200faff3a000080fa00d5
:10304800000006000000fa00141180000442780015
:10305800614262000482fb00040078000080fa00ec
:10306800000006000000fa002222a900000000006b
:103078001411800061026200e00f5200fcff320070
:103088003411800004427800044078000080fa007f
:10309800000006000200fa0044ce2800040f780061
:1030a8002222a900000000001411800061026200c1
:1030b800e00f5200fcff320002003700341180009c
:1030c8001e0f42001411800061026200e00f5200de
:1030d800faff32001e027800040078000080fa002f
:1030e800000006000200fa00004f7800000000000f
:1030f800151180000420200004826200e00f5200b5
:10310800fbff3a001e02fb00241188000080fa0031
:10311800000006000200fa00000f780005003700e2
:103128001e027800144278001e0fe8000440780060
:10313800ecff07001e02780014427800e04f5200ae
:10314800f7ff3a000080fa00000006000200fa00cb
:10315800000f7800040028002408880007003700c2
:103168000002eb0004088800000000000508800049
:10317800f4e72300848f5200fcff36001e0278001b
:1031880004f0a7000402ea000402ea004f22de006d
:10319800044278001e0fe900e04f5200f0ff3a00a9
:1031a8000080fa00000006000200fa00000f780014
:1031b8000400280024088800060037000002eb00fd
:1031c800040888000000000004088000ef0f520087
:1031d800fdff36001e02780004f0a7000402ea0092
:1031e8000402ea004f22de00044278001e0fe900c4
:1031f800e04f5200f1ff3a000080fa00000006009c
:103208000000fa0040a7a90036002000840720002b
:10321800a509200037742000844b7800854b78007e
:10322800864b7800160020006404200075052000f5
:1032380027742000844b7800854b7800864b7800f3
:1032480000000000153a8000040027008482620014
:1032580004002300848f5200faff3a000080fa002d
:04326800000006005c
:020000040000fa
:020000040005f5
:0457f400ffff0000b3
:020000040000fa
:020000040005f5
:0457f80066a30000a4
:020000040000fa
:020000040005f5
:0457fc007f3e0000ec
:00000001FF
